:1000000005C100000C94C9320C94F4320C941F33D7
:100010000C944A330C9475330C94A0330C94CB336A
:100020000C94F63324C1000022C1000020C100005E
:100030001EC100001CC100001AC1000018C1000050
:1000400016C1000014C1000012C1000010C1000060
:100050000EC100000CC100000AC100000C94213444
:1000600006C100000C941D380C94533800C10000E8
:10007000FEC00000FCC00000FAC00000F8C0000094
:10008000F6C00000F4C00000F2C00000F0C00000A4
:100090000C94A9380C94DF38EAC00000E8C00000D6
:1000A000E6C00000E4C00000E2C00000E0C00000C4
:1000B000DEC00000DCC00000DAC00000D8C00000D4
:1000C000D6C00000D4C000000C94292E0C94353901
:1000D0000C946B39CCC000000C94C1390C94F739E6
:1000E000C6C0000000000A0B02090C0D0E08070331
:1000F00004010000000000000000000000000000FB
:1001000000000000000000000000000000000000EF
:1001100012111000000000000000000000000000AC
:100120000000000000000000000001021020200874
:100130000810204010204080020102010804020142
:1001400001020408102040808040201008040201B1
:10015000800402018040201008040201080402010A
:100160000102040810204080010204081020408091
:1001700005050505070508080808020202020A0A23
:100180000808040404040101010101010101030341
:10019000030303030303040707070C0C0C0C0C0CEC
:1001A0000C0C0202020206060606060606060B0BE9
:1001B0000B0B0B0B0B0B000020002300260029006B
:1001C0002C002F003200000100000301060109018C
:1001D00000002200250028002B002E0031003400F2
:1001E00002010000050108010B01000021002400AC
:1001F00027002A002D003000330001010000040117
:1002000007010A017C3808399439203A11241FBEAD
:10021000CFEFD1E2DEBFCDBF00E00CBF13E0A0E026
:10022000B2E0EEEBF5E700E00BBF02C007900D92E5
:10023000A031B107D9F729E0A0E1B3E001C01D92D8
:10024000A537B207E1F711E0C6E0D1E000E006C053
:1002500021970109802FFE010E94AC3AC230D107DC
:1002600080E00807A9F70E941B2F0C94DD3AC8CE46
:10027000611102C00C9462366130E1F362E0FACFA2
:10028000662319F061E00C949E3660E0FCCFCF92BB
:10029000DF92EF92FF92CF93882351F16A017B01A5
:1002A000CFEFC80F20E030E0A901CB01B6010E94DA
:1002B0000F3087FF11C0C701B60190580E948030EF
:1002C0009B01AC016C2F70E090E080E0CF91FF903B
:1002D000EF90DF90CF90B2C0C701B6010E947B3093
:1002E0008C2FCF91FF90EF90DF90CF900C9428351A
:1002F000CF91FF90EF90DF90CF9008950F931F93D1
:100300008B019C0183E036952795179507958A9573
:10031000D1F7005F1C4F462F477021E030E0F90114
:1003200002C0EE0FFF1F4A95E2F7AF01F8012081EE
:100330002423CB010196211102C090E080E01F919F
:100340000F9108950F931F938B019C0183E03695C5
:100350002795179507958A95D1F7677081E090E00A
:1003600001C0880F6A95EAF7F801E05FFC4F208131
:10037000452B31F48095822380831F910F9108953E
:10038000822BFACF2F923F924F925F926F927F9281
:100390008F929F92AF92BF92CF92DF92EF92FF9295
:1003A0000F931F93CF93DF93D62EC72E782E692EEF
:1003B00049015A01280161E08D2D0E946236CD2D40
:1003C000DC2D8E010F5F1F4FA8016D2D7C2D872D19
:1003D000962DB8DF20E030E0A901C201B7010E94EC
:1003E000B131181664F4C201B7010E9480302B01AC
:1003F000C501B4010E948030A201CE0123D0C80102
:10040000DF91CF911F910F91FF90EF90DF90CF90F0
:10041000BF90AF909F908F907F906F905F904F9024
:100420003F902F900895882341F08150682F70E00D
:1004300090E080E050E040E085CF0895862FB9013C
:100440000C9428359C01FC01EC51FF4FE491E150E4
:10045000E231E0F4F0E08827EF5CFD4F8F4F0C9421
:10046000AC3A43024A024D026402790246028E020D
:100470009A029E02B502CA02DF02F6020B0346028E
:10048000200337034C0384B5806884BD60E0822F6D
:100490000C949E3684B58062F8CF809180008C7F6A
:1004A00082608093800080918100807E8061682BD3
:1004B0006093810050938700409386008091800074
:1004C000806880938000E2CF809180008C7F826082
:1004D0008093800080918100807E8061682B609392
:1004E0008100509387004093860080918000806255
:1004F000E8CF809180008C7F826080938000809123
:100500008100807E8061682B60938100509387001A
:1005100040938600809180008860D3CF8091B000A6
:1005200080688093B0008091B100887F682B6093D1
:10053000B100ACCF8091B0008062F3CF8091900089
:100540008C7F82608093900080919100807E80619A
:10055000682B609391005093970040939600809190
:10056000900080688093900091CF809190008C7F64
:1005700082608093900080919100807E8061682BE2
:100580006093910050939700409396008091900063
:100590008062E8CF809190008C7F82608093900091
:1005A00080919100807E8061682B609391005093D0
:1005B000970040939600809190008860D3CF8091FF
:1005C000A0008C7F82608093A0008091A100807E3B
:1005D0008061682B6093A1005093A7004093A60010
:1005E0008091A00080688093A00050CF8091A000EF
:1005F0008C7F82608093A0008091A100807E8061CA
:10060000682B6093A1005093A7004093A6008091AF
:10061000A0008062E8CF8091A0008C7F82608093F0
:10062000A0008091A100807E8061682B6093A10072
:100630005093A7004093A6008091A0008860D3CF7C
:10064000809120018C7F8260809320018091210124
:10065000807E8061682B6093210150932701409335
:100660002601809120018068809320010FCF809126
:1006700020018C7F82608093200180912101807E07
:100680008061682B609321015093270140932601DC
:10069000809120018062E8CF809120018C7F826070
:1006A0008093200180912101807E8061682B60937E
:1006B00021015093270140932601809120018860F9
:1006C000D3CFCF93DF93EC0170E060E06C177D0730
:1006D0000CF5072E000C880B990B0E94AE3020E021
:1006E00030E0A9010E94982F20E030E0A9010E948B
:1006F000982F20E030E040E450E40E94982F20E062
:1007000030E040E450E40E94972F0E947B306F5FFE
:100710007F4FDCCFDF91CF9108950F931F93CF933D
:10072000DF93EC018C810E94CB368C018C859D85FA
:10073000C8DF88850E94CB36488159816A817B81D8
:10074000019781F40130110579F44F5F5F4F6F4FCE
:100750007F4F488359836A837B83DF91CF911F91B9
:100760000F910895012B89F34150510961097109D5
:10077000F0CF8AE193E0D1CF8AE293E0CECF8AE353
:1007800093E0CBCF8AE493E0C8CF0F931F93CF932E
:10079000DF93EC0188850E94CB368C018C859D858A
:1007A00090DF8C810E94CB36488159816A817B81A0
:1007B000019779F4012B81F44F5F5F4F6F4F7F4FAB
:1007C000488359836A837B83DF91CF911F910F9177
:1007D00008950130110581F34150510961097109F2
:1007E000EFCF8AE193E0D1CF8AE293E0CECF8AE3E4
:1007F00093E0CBCF8AE493E0C8CF0F931F93CF93BE
:10080000DF93D82FC62F8A01E091190380E1E89F7A
:10081000F0011124E65EFC4F8D2F90E0B0E0A0E0E7
:1008200084839583A683B783862F90E0B0E0A0E011
:1008300080879187A287B3871082118212821382E8
:1008400081E090E0A0E0B0E084879587A687B78735
:1008500060E08D2F0E94623660E08C2F0E9462362D
:1008600080911903813009F43FC0A8F0823009F467
:1008700062C0833009F486C08091190391E0980F1B
:1008800090931903F801808390E080E0DF91CF918D
:100890001F910F91089580E0D23049F081E0D3306C
:1008A00031F08EEE8D0F8430D8F487E18D1B41E05E
:1008B00050E061EF73E00E944F3280E0C23049F0B7
:1008C00081E0C33031F08EEE8C0F843058F487E134
:1008D0008C1B41E050E069EB73E00E944F32CCCFBB
:1008E0008FEFE5CF8FEFF5CF80E0D23049F081E098
:1008F000D33031F08EEE8D0F8430C8F487E18D1B3C
:1009000041E050E064EF73E00E944F3280E0C2307B
:1009100049F081E0C33031F08EEE8C0F843048F422
:1009200087E18C1B41E050E06CEB73E0D6CF8FEF9A
:10093000E7CF8FEFF7CF80E0D23049F081E0D330BE
:1009400031F08EEE8D0F8430C8F487E18D1B41E0CD
:1009500050E067EF73E00E944F3280E0C23049F010
:1009600081E0C33031F08EEE8C0F843048F487E1A3
:100970008C1B41E050E06FEB73E0AFCF8FEFE7CF20
:100980008FEFF7CF80E0D23049F081E0D33031F003
:100990008EEE8D0F8430C8F487E18D1B41E050E06E
:1009A0006AEF73E00E944F3280E0C23049F081E08C
:1009B000C33031F08EEE8C0F843048F487E18C1B0D
:1009C00041E050E062EC73E088CF8FEFE7CF8FEF2C
:1009D000F7CF90E1899FF0011124E65EFC4F808102
:1009E0009181A281B381FB0180839183A283B38330
:1009F00090E080E0089590E1899FF0011124E65E87
:100A0000FC4F108211821282138290E080E00895E0
:100A100090E080E0089590E080E008950F931F93A8
:100A2000009709F489C06115710509F485C000912A
:100A300044021091450220914602309147020E3F38
:100A40001F4F2F4F3F4F09F068C04FEF5FEFBA01C4
:100A500040934402509345026093460270934702CC
:100A600040914402509145026091460270914702C4
:100A7000DC011296ED91FC9180819181A281B3817C
:100A80008093910490939204A0939304B093940460
:100A900084819581A681B78180938D0490938E0483
:100AA000A0938F04B093900480859185A285B3852F
:100AB0008093890490938A04A0938B04B0938C0450
:100AC00084859585A685B785809385049093860453
:100AD000A0938704B093880410928104109282043A
:100AE00010928304109284040E94B31488ED94E160
:100AF00090935B0380935A0390935D0380935C0310
:100B00000E94B213009731F421E030E03093960454
:100B1000209395041F910F91089500914402109124
:100B200045022091460230914702DB010D931D934F
:100B30002D933C93139794CF8FEF9FEFEBCF8F9232
:100B40009F92AF92BF92CF92DF92EF92FF921F934C
:100B5000CF93DF934B015C011091980482E090E009
:100B6000909396048093950481149104A104B10498
:100B700041F480919804811104C080919704C1E0F0
:100B80008111C0E0C12CD12C760180919804811193
:100B900006C080919704811102C0CC23D9F083E074
:100BA00090E09093960480939504CC2381F1CCE956
:100BB000DFEF111102C00E943D18CE01DF91CF91ED
:100BC0001F91FF90EF90DF90CF90BF90AF909F90DC
:100BD0008F9008956AE070E080E090E00E94903489
:100BE00080E1C80E87E2D81EE11CF11C8FEF881649
:100BF0009806A806B80631F0C1E08C149D04AE0436
:100C0000BF0408F0C0E080E00E94DE13BECFD0E059
:100C1000C0E0CFCFCF92DF92EF92FF920F931F935E
:100C2000CF93DF938F3F910511F008F046C02091DC
:100C30009504309196042330310539F020919504C4
:100C4000309196042130310531F424E030E03093C6
:100C50009604209395046A017B01EC018230910592
:100C6000B8F011E0AE01C701B6010E94B113AB01AB
:100C7000BC0190E080E0112311F1CE01DF91CF9112
:100C80001F910F91FF90EF90DF90CF900C94521A2C
:100C90008C01000F111F065A1C4FD8018D919C9199
:100CA000892BF9F20E94591A0297D9F6D801ED91D1
:100CB000FC91CE011995182FD5CF8FEF9FEFDF91C3
:100CC000CF911F910F91FF90EF90DF90CF900895FB
:100CD00080E00C94DE13CF93DF9386E090E0909356
:100CE0009604809395040E943714EC01EAE5F3E042
:100CF00084E0DF011D928A95E9F70E94D5171092D2
:100D0000960410929504CE01DF91CF9108958091C1
:100D1000970408958091800408956093440270932D
:100D20004502809346029093470290E080E0089548
:100D30002F923F924F925F926F927F928F929F92EB
:100D4000AF92BF92CF92DF92EF92FF920F931F93D9
:100D5000CF93DF93CDB7DEB7CB54D1090FB6F8945C
:100D6000DEBF0FBECDBF26967FAF6EAF269728960B
:100D70005FAF4EAF28973E8B2D8B2C96FFAEEEAE1D
:100D80002C97FB01E150F04CEE0FFF1FEE0FFF1F01
:100D9000E80FF91F80809180A280B3808F8A988E9F
:100DA000A98EBA8EB501A401442777FD4395552736
:100DB0006627772729964FAF2997F901E150F04C24
:100DC000EE0FFF1FEE0FFF1F2896AEACBFAC2897AB
:100DD000EA0DFB1DC080D180E280F380CB8EDC8EDB
:100DE000ED8EFE8EB701A601442777FD439555276A
:100DF000662777272A964FAF2A97188B0F87F80117
:100E000030E020E02C96EEACFFAC2C972E153F0581
:100E10000CF43FC022969FAF8EAF22971A8B098B9E
:100E2000312C212C812C912C540183948D829E8213
:100E3000AF82B88626968EAC9FAC269728143904CC
:100E40007CF129969FAC29972A96AFAC2A9730E07F
:100E500020E041E050E060E070E09A10F5C1C55B31
:100E6000DF4F0FB6F894DEBF0FBECDBFDF91CF913D
:100E70001F910F91FF90EF90DF90CF90BF90AF90B8
:100E80009F908F907F906F905F904F903F902F90AA
:100E9000089511921192119211922F5F3F4FB2CF8C
:100EA0002296EEADFFAD229781919191A191B191E2
:100EB0002296FFAFEEAF22978F88988CA98CBA8CC0
:100EC000B7FE23C04D815E816F8178854150510905
:100ED000610971095A016B01A81AB90ACA0ADB0A29
:100EE000D601C50121E0CD80DE80EF80F8848C152D
:100EF0009D05AE05BF0508F020E0822E912CB12C97
:100F0000A12C8D829E82AF82B8865D01CC24DD2427
:100F1000A8A2B9A2CAA2DBA29C01AD014427552711
:100F20002CA33DA34EA35FA32C96EEADFFAD2C9753
:100F3000E219F3098D889E888E169F060CF4F40141
:100F40002896AEACBFAC28972496BFAEAEAE249721
:100F5000C988DA88DC8ACB8A1E861D86812C912C72
:100F60005401839489869A86AB86BC86812C912C09
:100F70005401CD84DE84CE16DF0604F1F7FF02C0F3
:100F8000F0E0E0E0E20DF31D2C96EEACFFAC2C9708
:100F9000EE15FF0554F4EE0FFF1FEE0FFF1FE00FDD
:100FA000F11F80829182A282B3822FEF221A320A2D
:100FB000E989FA893496FA8BE98B3CCF2496AEAD59
:100FC000BFAD2497CD90DD90ED90FD902496BFAFFE
:100FD000AEAF24972B8D3C8D4D8D5E8D57FF22C07B
:100FE00089859A85AB85BC850197A109B109AC01BA
:100FF000BD014C195D096E097F096A017B0181E021
:1010000029853A854B855C85C216D306E406F5062C
:1010100008F080E0482F50E070E060E049875A8790
:101020006B877C87B7018827992768A779A78AA744
:101030009BA7EE24FF2428A139A14AA15BA1C701E7
:10104000B6010E947B3A2B013C012CA13DA14EA18F
:101050005FA168A579A58AA59BA50E947B3A6CA78C
:101060007DA78EA79FA7AB89BC894D915D916D919E
:101070007D91BC8BAB8BDB01CA01880D991DAA1D2C
:10108000BB1D89839A83AB83BC8391E09F8F2981A9
:101090003A814B815C81281539054A055B0508F0CA
:1010A0001F8E2CA13DA14EA15FA1C701B6010E94D8
:1010B0007B3A6B017C0189809A80AB80BC808C0C70
:1010C0009D1CAE1CBF1C89829A82AB82BC825201DD
:1010D0009924882488AA99AAAAAABBAA29813A8114
:1010E0004B815C81280D391D4A1D5B1D2CAB3DAB2E
:1010F0004EAB5FAB8CA49DA4AEA4BFA454019924B5
:10110000882488AE99AEAAAEBBAE280D391D4A1D03
:101110005B1D2CAF3DAF4EAF5FAFAB89BC89149761
:101120002D933D934D935C93139728A139A14AA128
:101130005BA168A579A58AA59BA50E947B3A9F8C97
:10114000690D711D811D911D230166247724460EB2
:10115000571E681E791E2CA53DA54EA55FA54A0108
:10116000AA24BB24840C951CA61CB71C81E090E02B
:10117000A0E0B0E049815A816B817C814C155D050E
:101180006E057F0518F080E090E0DC01880D991D68
:10119000AA1DBB1D41E050E060E070E088A899A85E
:1011A000AAA8BBA8CCA8DDA8EEA8FFA8C814D9049B
:1011B000EA04FB0418F040E050E0BA01840F951FE8
:1011C000A61FB71F812C912C54018394C8ACD9ACB5
:1011D000EAACFBAC2CAD3DAD4EAD5FAD2C153D0585
:1011E0004E055F0518F0812C912C5401880E991E34
:1011F000AA1EBB1E4D855E854F5F5F4F5E874D8784
:10120000B8CEEF85F889C190D190E190F190F88B3C
:10121000EF87DB01CA010197A109B1098C199D096A
:10122000AE09BF09349780839183A283B383E1E041
:1012300084179507A607B70708F0E0E04E2F50E0A7
:1012400070E060E02F5F3F4F2C968EAC9FAC2C97E8
:1012500028153905B4F203CE2F923F924F925F9238
:101260006F927F928F929F92AF92BF92CF92DF92B6
:10127000EF92FF920F931F93CF93DF9300D01F92B3
:10128000CDB7DEB78B015C834B83FB01E150F04CA3
:10129000EE0FFF1FEE0FFF1FE80FF91F4081518176
:1012A0006281738177FD27C04C01B12CA12CC12C28
:1012B000D12C7601A016B10664F5F401619171910B
:1012C000819191914F010E94AC304B815C810E94D1
:1012D000B7319B01AC01C701B6010E94982F6B0189
:1012E0007C012B813C81205E3F4F3C832B833FEF71
:1012F000A31AB30ADFCF9A838983312C212C81E092
:1013000090E0A0E0B0E0C12CD12C7601201631068F
:10131000CCF0C701B6010F900F900F900F90DF91A6
:10132000CF911F910F91FF90EF90DF90CF90BF90E2
:10133000AF909F908F907F906F905F904F903F9075
:101340002F900895E981FA814190519061907190B8
:10135000FA83E9834094509460947094530142015D
:10136000880E991EAA1EBB1EC501B4010E94AC3096
:101370004B815C810E94B7319B01AC01C701B60172
:101380000E94972F6B017C0181E084149504A604D0
:10139000B70408F080E090E0B0E0A0E02B813C8151
:1013A000205E3F4F3C832B833FEF231A330AAECF9F
:1013B0008F519F4FFC01808191810197A1F4F90128
:1013C00080819181A281B381FB0180839183A2837B
:1013D000B383F90184819581A681B781FA01808365
:1013E0009183A283B3830895CF92DF92EF92FF920D
:1013F0006B017C019F7720E030E040E859E50E94D6
:101400000F3087FF2BC020E030E040E05FE3C701F2
:10141000B6010E94B13187FD0EC020E030E040E00F
:101420005FE3C701B6010E94982FFF90EF90DF9015
:10143000CF900C94E93020E030E040E05FEBC70152
:10144000B6010E94B131181684F420E030E0A90101
:10145000C701B6010E94EB316B017C01C701B601E7
:10146000FF90EF90DF90CF90089520E030E040E0D3
:101470005FE3C701B6010E94972FFF90EF90DF90C6
:10148000CF900C94FC2FE0910604F091070480911A
:101490003F0990914009A0914109B0914209808390
:1014A0009183A283B38308952F923F924F925F92CC
:1014B0006F927F928F929F92AF92BF92CF92DF9264
:1014C000EF92FF920F931F93CF93DF93CDB7DEB7C9
:1014D000A8970FB6F894DEBF0FBECDBF80915B0416
:1014E00090915C048130910509F096C1809143048C
:1014F00090914404A0914504B091460480904B041F
:1015000090904C04A0904D04B0904E04C0904704BD
:10151000D0904804E0904904F0904A048F3F2FEFA8
:101520009207A207B20709F054C1C701B6016F5F65
:101530007F4F8F4F9F4F0E94AC30A50194010E94B6
:10154000EB3120E030E040E85FE40E94EB31609353
:101550008A0370938B0380938C0390938D03809107
:101560003A098150823008F46EC180E080933A09D4
:10157000C0900002D0900102E0900202F0900302BD
:10158000A7019601609104097091050980910609EF
:10159000909107090E940F30882341F0C0920409FE
:1015A000D0920509E0920609F0920709809103099B
:1015B000811110920309BE01675F7F4F8091080976
:1015C00008DA8091280290912902A0912A02B09114
:1015D0002B028D839E83AF83B88789859A85AB85DF
:1015E000BC8589839A83AB83BC8382E0E82EF12C8F
:1015F00007E419E021E030E0AE014F5F5F4F61E0AA
:1016000070E0CE01059694DB88E0F801A3E5B9E02F
:1016100001900D928A95E1F780915B0490915C04B2
:101620009E8B8D8B0197D1F420910402309105029D
:1016300040910602509107026091080270910902E0
:1016400080910A0290910B020E94EB3160933B095A
:1016500070933C0980933D0990933E09C0903B09EB
:10166000D0903C09E0903D09F0903E0950E040E008
:1016700062E070E087E499E0EFDD20E030E040E8F0
:101680005DE20E94EB319B01AC01C701B6010E94F3
:10169000972F6B017C01C0923F09D0924009E092E4
:1016A0004109F0924209E0915E04F0915F044080AC
:1016B000518062807380209021093090220900912E
:1016C000230910912409B0902909A0902A0990902B
:1016D0002B0980902C099101A801C301B2010E943D
:1016E0000F302B2D3A2D492D582D18160CF4ADC066
:1016F000C301B2010E940F3018160CF4E2C410921C
:10170000430910924409109245091092460920910C
:10171000430930914409409145095091460960912F
:1017200010027091110280911202909113020E9496
:10173000EB314B015C0120910C0230910D02409184
:101740000E0250910F02C701B6010E94EB319B01BE
:10175000AC01C501B4010E94982F4B015C0120919E
:101760004F093091500940915109509152096091AF
:1017700018027091190280911A0290911B020E9426
:10178000EB319B01AC01C501B4010E94982F4B01C4
:101790005C018092430990924409A0924509B0925D
:1017A000460940901C0250901D0260901E027090ED
:1017B0001F02A30192010E94B13118160CF083C0E0
:1017C000409243095092440960924509709246093B
:1017D0008AC0BC01CD016F5F7F4F8F4F9F4F0E942A
:1017E000AC30A50194010E94EB312B013C01C701F3
:1017F000B6010E94AC30A50194010E94EB3120E0BB
:1018000030E040E85FE40E94EB319B01AC01C30192
:10181000B2010E94982F9BCE892B09F0A0CEE091B7
:10182000BA03F091BB030190F081E02D808191819A
:10183000A281B381E0915E04F0915F048083918383
:10184000A283B3838CCE83E091CEB101C8010E9404
:101850000F3087FF0BC02B2D3A2D492D582DC3017A
:10186000B2010E94B13118160CF435C4209125093B
:10187000309126094091270950912809B22CA32CB8
:10188000902E812EC701B6010E94972F698F7A8F03
:101890008B8F9C8F2B2D3A2D492D582DC301B201D2
:1018A0000E94972F9B01AC01698D7A8D8B8D9C8D49
:1018B0000E94133060934309709344098093450953
:1018C0009093460924CF40902002509021026090CE
:1018D000220270902302A3019201C501B4010E946B
:1018E0000F3087FD6DCFAD89BE89119709F5E8945A
:1018F000F7F88090430990904409A0904509B09072
:10190000460920E030E0A901C501B4010E94B131CF
:1019100018160CF03BC320E030E040E450E4C7016F
:10192000B6010E94B13118160CF030C31092330981
:1019300080913309813009F449C3823009F46AC3C4
:1019400081111DC02CE332E0AE01435F5F4FBE0149
:101950006F5E7F4F8AE793E02BDD80915B0490916F
:101960005C04019761F480913A09882309F42BC340
:10197000833009F024C381E090E080933A0965E068
:1019800070E080E090E00E947E018C01909320093D
:1019900080931F0960914309709144098091450922
:1019A000909146099F772091240230912502409121
:1019B0002602509127020E94EB316B017C0120E04E
:1019C00030E04FE753E40E940F3018160CF446C382
:1019D000C0924309D0924409E0924509F092460929
:1019E00020E030E0A90160914309709144098091A1
:1019F0004509909146090E94B13187FF08C01092B5
:101A000043091092440910924509109246094091E9
:101A10004309509144096091450970914609C801F4
:101A20000E94470180915B0490915C04019709F04A
:101A300052C069897A898B899C89D6DC6B017C01CB
:101A4000C0924309D0924409E0924509F0924609B8
:101A500020E030E040E853E40E940F306FEF87FF52
:101A60000EC020E030E0A901C701B6010E94B131EB
:101A700060E087FD04C0C701B6010E9480308EE19E
:101A80000E9440016D857E858F859889ADDC6B0154
:101A90007C01C0924309D0924409E0924509F0923A
:101AA000460920E030E040E853E40E940F306FEF39
:101AB00087FF0EC020E030E0A901C701B6010E94F7
:101AC000B13160E087FD04C0C701B6010E948030DB
:101AD0008FE10E94400180915B0490915C0401972A
:101AE00009F03BC28091210990912209A09123091C
:101AF000B09124098D8B9E8BAF8BB88F409063097A
:101B0000509064096090650970906609E0915E04E8
:101B1000F0915F04C080D180E280F380A301920144
:101B2000BC01CD010E940F308111A5C2C0922109D4
:101B3000D0922209E0922309F0922409E5E2F9E02B
:101B400080913F0990914009A0914109B0914209CB
:101B500080839183A283B38360914704709148048A
:101B60008091490490914A040E94AC3020E030E01A
:101B700040E85FE40E94EB316B017C01609143041B
:101B80007091440480914504909146040E94AC30C9
:101B90009B01AC01C701B6010E94982F20E030E004
:101BA000A9010E94982F0E948030AB01BC0190E0F7
:101BB00080E030D880915B0490915C04019709F03B
:101BC000CCC160915304709154048091550490915C
:101BD00056040E94AC3020E030E040E85FE40E9410
:101BE000EB316B017C0160914F0470915004809146
:101BF0005104909152040E94AC309B01AC01C7018A
:101C0000B6010E94982F20E030E0A9010E94982F91
:101C10000E948030AB01BC0181E090E00E940A0686
:101C2000A0915B04B0915C04BAA3A9A3119709F039
:101C300094C1E091BA03F091BB030190F081E02DD3
:101C4000408051806280738080918A0390918B03E1
:101C5000A0918C03B0918D038BA39CA3ADA3BEA3D5
:101C6000E0918E03F0918F03C080D180E280F380F9
:101C7000E091BE03F091BF0300811181E0918203E6
:101C8000F091830320803180A281B381BE8BAD8B24
:101C9000848195819A8F898FA681B781BE8FAD8F00
:101CA0008085918598A38F8FE0918003F0918103C7
:101CB0001182108284E0F801D10101900D928A9581
:101CC000E1F7E091B803F091B903AD89BE89B18322
:101CD000A083D9DB20E030E040E05FE3C701B6013C
:101CE0000E94EB314B015C01ED89FE89208131813D
:101CF000428153810E94EB31D1012D913D914D9153
:101D00005C910E94982FF801608371838283938392
:101D1000E091BA03F091BB038081918198A78FA3D2
:101D2000A5019401C301B2010E94982FAFA1B8A5EB
:101D30006D937D938D939C931397E091B803F091ED
:101D4000B903898D9A8D91838083AEDB9CDBA98D4D
:101D5000BA8D2D913D914D915C91C501B4010E94C8
:101D6000EB31F10120813181428153810E94982F12
:101D7000D8016D937D938D939C931397E091B80355
:101D8000F091B9038D8D9E8D918380838DDB7BDBFC
:101D9000AD8DBE8D2D913D914D915C91C701B601E8
:101DA0000E94EB31F10120813181428153810E94F7
:101DB000982FD8016D937D938D939C931397E09109
:101DC000BA03F091BB030190F081E02D8BA19CA19F
:101DD000ADA1BEA180839183A283B383E091B803B8
:101DE000F091B903AF8DB8A1B183A0835DDB4BDB6C
:101DF000E98DFA8D60817181828193819B01AC01B3
:101E00000E94982FAD89BE892D913D914D915C9195
:101E10000E94982F4B015C01ED8DFE8D60817181D8
:101E2000828193819B01AC010E94982F9B01AC01A0
:101E3000C501B4010E94982FAF8DB8A12D913D919D
:101E40004D915C910E94982F4B015C0120E030E0A5
:101E500040EC50E4C701B6010E9413309B01AC0175
:101E6000C501B4010E94EB31F10120813181428131
:101E700053810E94982FD8016D937D938D939C93ED
:101E80001397E0918003F091810389A19AA1918336
:101E900080838091430490914404A0914504B091C3
:101EA00046040196A11DB11D809343049093440400
:101EB000A0934504B0934604892B8A2B8B2B99F46D
:101EC0008091470490914804A0914904B0914A043C
:101ED0000196A11DB11D8093470490934804A093DF
:101EE0004904B0934A0480918A0390918B03A09196
:101EF0008C03B0918D03E0915E04F0915F048083C8
:101F00009183A283B38380914F0490915004A09158
:101F10005104B09152040196A11DB11D80934F044C
:101F200090935004A0935104B0935204892B8A2BB0
:101F30008B2B99F48091530490915404A0915504F3
:101F4000B09156040196A11DB11D80935304909346
:101F50005404A0935504B0935604A8960FB6F89471
:101F6000DEBF0FBECDBFDF91CF911F910F91FF90CC
:101F7000EF90DF90CF90BF90AF909F908F907F9029
:101F80006F905F904F903F902F90089520E030E049
:101F9000A901C501B4010E940F3087FF0EC020E0E7
:101FA00030E040E450E4C701B6010E94B131181698
:101FB00024F481E080933309BBCC82E0FBCF082E70
:101FC000000C990BDACC82E090E0D7CC24E332E02D
:101FD000AE01435F5F4FBE016F5E7F4F8AE793E0C4
:101FE000E7D980915B0490915C04019709F0C7CC1C
:101FF00080913909882359F0833029F481E090E0F9
:1020000080933909BCCC082E000C990BF9CF82E0E3
:1020100090E0F6CF2CE232E0AE01435F5F4FBE01AD
:102020006F5E7F4F8AE793E0C3D980915B04909104
:102030005C04019709F0A3CC80913809882359F0FA
:10204000833029F481E090E08093380998CC082E01
:10205000000C990BF9CF82E090E0F6CF80E090E0A1
:10206000AFE7B3E48093430990934409A0934509F3
:10207000B0934609B5CC8090290990902A09A09088
:102080002B09B0902C09A5019401C301B2010E9453
:102090000F3081110BC0C0922909D0922A09E09219
:1020A0002B09F0922C09EDE2F9E04ACDA50194014B
:1020B0006D897E898F89988D0E940F3087FFEBCFC5
:1020C00035CD2B2D3A2D492D582DB101C8010E9437
:1020D0000F3087FDC0CB20912D0930912E09409102
:1020E0002F0950913009CECB4F925F926F927F9221
:1020F000AF92BF92DF92EF92FF920F931F93CF9315
:10210000DF9384E090E0F4D1EAE7F3E08EEEDF01C4
:102110001D928A95E9F7CBE5D4E0D783C6838EE597
:1021200094E09093BB038093BA030BE414E0158B07
:10213000048B26E034E037AF26AF40E054E0509304
:10214000BF034093BE032BE334E03093BD032093E1
:10215000BC032DE334E03093C1032093C00322E09D
:1021600034E03093C3032093C20324E034E030937F
:10217000C5032093C403F093E503E093E403F583E0
:10218000E48321E030E03983288321E234E06DE00C
:1021900074E0E9017983688361E174E07093240459
:1021A0006093230465E174E0709326046093250432
:1021B00069E174E070932804609327046DE174E092
:1021C00070932A04609329046FE4A62E69E0B62E6A
:1021D000DA01AD92BC923187208721E732E0338764
:1021E000228720E634E0EC013983288340E050E088
:1021F00060E87FEB40935704509358046093590470
:1022000070935A044FE652E163E87AE3D8014D93A4
:102210005D936D937C9313974BE254E081EE91E2D2
:10222000A4E3BAE8EA0188839983AA83BB8386ED95
:102230009FE0A3ECB0EA80932F0490933004A09326
:102240003104B09332048DE79EE8AEEBB4EE809398
:10225000330490933404A0933504B093360483E0A0
:1022600097EBA8ECBBEC8093370490933804A093D1
:102270003904B0933A04AEE6B3E0B383A283EEE54B
:10228000F3E01196FC93EE9386E792E091838083CE
:1022900068E379E07383628395838483978386837D
:1022A000918780879387828789E399E095878487E0
:1022B0008AE399E09787868781E494E015969C935A
:1022C0008E93149713965C934E93129717963C93A4
:1022D0002E931697EBE3F9E084E1DF011D928A95D6
:1022E000E9F784E0E50119928A95E9F7CDEFD8E0A6
:1022F0008EE3FE0111928A95E9F7E3E5F9E0108299
:102300001182128213821482158216821782DD24B2
:10231000D394DFAA70E0A72E72E0B72EF50180817A
:102320009181A281B3818F839887A987BA87412C35
:10233000512C3201439449825A826B827C8248E05C
:1023400059E063E082E00E94FD03DD821E828FEF90
:102350008EAB1C8ED8AE19A24D8E5E8E6F8E78A27B
:10236000E12CF12C8701A801970165E070E080E085
:1023700090E00E94C2019BA38AA3D9A21C8ADAAE74
:102380004D8A5E8A6F8A788E61E08EE10E94380104
:10239000D98E1C86D9AE4D865E866F86788A61E0BE
:1023A0008FE10E943801D98A809163099091640974
:1023B000A0916509B09166098CA39DA3AEA3BFA3AC
:1023C0008CA79DA7AEA7BFA7F50184899589A6898B
:1023D000B78980934F0990935009A0935109B09306
:1023E00052098B85DF91CF911F910F91FF90EF9054
:1023F000DF90BF90AF907F906F905F904F900C9464
:10240000FB048091FD08811114C081E08093FD08D8
:102410008091FE089091FF08A0910009B0910109F8
:102420000197A105B10529F48091020981110E944B
:1024300008058091190981112EC081E08093190946
:1024400080911A0990911B09A0911C09B0911D0956
:102450000197A105B105F9F480911E098823D9F0EF
:1024600065E070E080E090E00E947E01909320099A
:1024700080931F0940E050E0BA010E94470165E0E7
:1024800070E080E090E00E947E01909320098093AC
:102490001F090E94130280911109811103C081E07C
:1024A0008093110980910909811103C081E0809313
:1024B0000909089560E070E080E89FE7089560E012
:1024C00070E080E89FE7089560E070E080E89FEFAB
:1024D000089560E070E080E89FEF089560E070E0AC
:1024E00080EC9FEF089560E070E080EC9FEF08952E
:1024F000F5DF609367097093680980936909909389
:102500006A09F1DF60935B0970935C0980935D0950
:1025100090935E09CFDF60936309709364098093A1
:10252000650990936609CBDF60935F09709360093A
:102530008093610990936209C7DF60936B09709380
:102540006C0980936D0990936E09C3DF60936F09E6
:1025500070937009809371099093720908954F9256
:102560005F926F927F928F929F92AF92BF92CF9223
:10257000DF92EF92FF920F931F93F89440907404B0
:10258000509075046090760470907704C090680451
:10259000D0906904E0906A04F0906B0441305105DA
:1025A00009F0A4C09B01AC0124193509460957095B
:1025B00029013A0100917004109171042091720474
:1025C0003091730448015901840C951CA61CB71C5A
:1025D00080169106A206B306A0F400916C04109137
:1025E0006D0420916E0430916F040F5F1F4F2F4FC9
:1025F0003F4F00936C0410936D0420936E0430934E
:102600006F048092700490927104A0927204B09250
:10261000730400916C0410916D0420916E0430914C
:102620006F048092780490927904A0927A04B09218
:102630007B0400937C0410937D0420937E043093EC
:102640007F04609374047093750480937604909370
:102650007704A8EEB3E0A30192010E94B43A6C0D96
:102660007D1D8E1D9F1D6093680470936904809387
:102670006A0490936B0400914402109145022091EA
:102680004602309147020F3F1F4F2F4F3F4FF1F04F
:102690000091440210914502209146023091470278
:1026A0000E3F1F4F2F4F3F4F89F0C0904402D090F4
:1026B0004502E0904602F090470221E08C149D0410
:1026C000AE04BF0408F420E02093800478941F91A6
:1026D0000F91FF90EF90DF90CF90BF90AF909F90C1
:1026E0008F907F906F905F904F9008954B015C01A9
:1026F00084189508A608B708A3019201261B370B7A
:10270000480B590B6415750586059705D0F08216A0
:102710009306A406B50640F420E030E0A901811438
:102720009104A104B10491F4A8EEB3E00E94B43A7C
:10273000A7019601261B370B480B590BCA01B9019B
:10274000C5CF82169306A406B50670F7A8EEB3E0CF
:10275000A50194010E94B43A6C0D7D1D8E1D9F1D34
:10276000B5CFFDCECF93DF9300D01F92CDB7DEB7AC
:102770001C821B821A821982BE016F5F7F4FCE01BD
:1027800003960E94F72D69817A818B819C810E943A
:102790003E27009761F4BE016F5F7F4FCE01039625
:1027A0000E94032E69817A818B819C8127D50F90AD
:1027B0000F900F900F90DF91CF910895FF920F939C
:1027C0001F93CF93DF93082F60E070E0CB010E944E
:1027D0009034FF24F3940E942726EC01892B89F082
:1027E00010E0CE3F8FEFD80769F0002361F160E081
:1027F00070E0CB010E94903481E090E0892B59F386
:1028000022C011E01ED5EC01892B21F0CE3F8FEFC5
:10281000D80759F711111EC011E0229609F410E0F3
:102820000E94D725EC01892B21F0CE3F8FEFD807EE
:10283000E1F6111111C011E0CE3F8FEFD80709F476
:1028400010E001110BC0CE01DF91CF911F910F91CC
:10285000FF90089511E0E4CF11E0F3CF60E070E065
:10286000CB010E9490341F25812F90E0C7CFCF93DA
:10287000DF931FD6D0E0C0E0892B71F06AE070E0F2
:1028800080E090E00E94903481E098DF12D621969B
:10289000C03D27E0D20781F711D60E9492271092FF
:1028A000980410929704109291041092920410923E
:1028B00093041092940410928D0410928E0410923E
:1028C0008F04109290041092890410928A0410923E
:1028D0008B0410928C04109285041092860410923E
:1028E000870410928804109281041092820410923E
:1028F0008304109284044EEF5FEF6FEF7FEF4093FD
:10290000440250934502609346027093470210922E
:102910008004E8E7F4E028E0DF011D922A95E9F75A
:102920001092740410927504109276041092770439
:102930001092700410927104109272041092730439
:1029400010926C0410926D0410926E0410926F0439
:10295000109268041092690410926A0410926B0439
:10296000DF91CF9108951092A4041092A5041092C3
:10297000A6041092A7041092A3048091AC04909135
:10298000AD049093A2048093A1041092A00410922D
:102990009F0410929B0410929C0410929D0410922C
:1029A0009E041092A9041092A80490E080E008957B
:1029B000CF92DF92EF92FF920F931F93CF938C01F0
:1029C000019709F055C02091AC043091AD0480917D
:1029D000A1049091A2044091AC045091AD04509395
:1029E000A2044093A1042817390781F01092A00493
:1029F00010929F0410929B0410929C0410929D04CC
:102A000010929E041092A9041092A8048091AC0424
:102A10009091AD04019761F58091A8049091A9046B
:102A2000892B21F480914802811112C08091A80461
:102A30009091A9040197E1F480919B0490919C04EA
:102A4000A0919D04B0919E040197A105B10581F468
:102A500010929B0410929C0410929D0410929E046C
:102A60001092480282E090E09093A9048093A80419
:102A70008091AC049091AD04019709F01CC1809144
:102A8000C2049091C3048017910709F014C180918A
:102A9000BE049091BF04A091C004B091C1040097FE
:102AA00009F409C12091BD0421110DC04091BE045B
:102AB0005091BF046091C0047091C104452B462B16
:102AC000472B09F4F8C02091A8043091A9042230C2
:102AD000310509F0F0C020919F042111ECC0FC01E8
:102AE000C080D180E280F3808091A304882309F420
:102AF000D3C08091AF049091B004892B09F4FEC03B
:102B00002091AF043091B00481E02230310509F00A
:102B100080E02091AF043091B004C1E02130310554
:102B200049F02091AF043091B004C1E0223031056A
:102B300009F0C0E0882309F456C02091B90430910F
:102B4000BA044091BB045091BC04C701B6010E9475
:102B5000B13187FD14C02091B9043091BA0440917D
:102B6000BB045091BC046091A4047091A5048091B1
:102B7000A6049091A7040E940F3087FD22C02091E7
:102B8000B9043091BA044091BB045091BC04C70110
:102B9000B6010E94B131181634F52091B904309174
:102BA000BA044091BB045091BC046091A40470919C
:102BB000A5048091A6049091A7040E940F30811172
:102BC00012C08091B1049091B204A091B304B0916D
:102BD000B404892B8A2B8B2B19F481E08093A004F9
:102BE00081E080939F04CC2309F456C02091B9045E
:102BF0003091BA044091BB045091BC04C701B601A6
:102C00000E940F3087FF14C02091B9043091BA049C
:102C10004091BB045091BC046091A4047091A50440
:102C20008091A6049091A7040E94B13187FF22C031
:102C30002091B9043091BA044091BB045091BC0476
:102C4000C701B6010E940F30811126C02091B9043E
:102C50003091BA044091BB045091BC046091A4042B
:102C60007091A5048091A6049091A7040E94B131AF
:102C7000181694F48091B1049091B204A091B30419
:102C8000B091B404892B8A2B8B2B19F481E08093AB
:102C9000A00481E080939F0481E090919F049111B2
:102CA00080E08093A304C092A404D092A504E09293
:102CB000A604F092A7040130110509F067C18091C4
:102CC000A8049091A904892BD9F41092AE04109213
:102CD0009F0480914802882379F082E090E09093ED
:102CE000A9048093A804109248022091AC0430916A
:102CF000AD0481E0232BE9F080E01BC081E009CF27
:102D0000109248028091AE04882349F01092A004EA
:102D10001092A9041092A8041092AE04EDCF8091F5
:102D2000AC049091AD04892BE1F080919F04109246
:102D30009F042091A8043091A9042230310509F4A0
:102D40005EC088F42115310509F448C021303105F1
:102D500009F4F3C01092A00410929F041092AE04E4
:102D600038C081E0E6CF2330310509F4B1C024300A
:102D7000310581F740919B0450919C0460919D0422
:102D800070919E04411551056105710561F0415036
:102D900051096109710940939B0450939C0460930D
:102DA0009D0470939E0440919B0450919C046091FB
:102DB0009D0470919E04452B462B472BD9F42091FE
:102DC000AA043091AB042130310509F046C01092BD
:102DD000A0041092A9041092A8040CC0809148028B
:102DE000882341F082E090E09093A9048093A804A6
:102DF00010924802109299048091A004CEC08823BA
:102E0000C9F38091B1049091B204A091B304B09140
:102E1000B404181619061A061B060CF07DC0809122
:102E2000AC049091AD04019709F076C08091B10493
:102E30009091B204A091B304B091B40480939B0428
:102E400090939C04A0939D04B0939E0483E090E033
:102E50009093A9048093A804CDCF4091B5045091DC
:102E6000B6046091B7047091B804452B462B472BEC
:102E7000A9F01092A0048091B5049091B604A0919D
:102E8000B704B091B80480939B0490939C04A093E2
:102E90009D04B0939E0481E090E0DACF882399F0FE
:102EA0008091490290914A02A0914B02B0914C024C
:102EB00080939B0490939C04A0939D04B0939E04E4
:102EC00084E090E0C5CF1092A00482E090E0C0CFF3
:102ED00080919B0490919C04A0919D04B0919E04CC
:102EE0000097A105B10559F00197A109B109809397
:102EF0009B0490939C04A0939D04B0939E048091A6
:102F00009B0490919C04A0919D04B0919E04892BF8
:102F10008A2B8B2B09F06ECF8091490290914A0247
:102F2000A0914B02B0914C02892B8A2B8B2B09F478
:102F30004ECF81E08093A004B3CF40919B04509189
:102F40009C0460919D0470919E044115510561059A
:102F5000710561F0415051096109710940939B0469
:102F600050939C0460939D0470939E0440919B0435
:102F700050919C0460919D0470919E04452B462BBA
:102F8000472B09F037CF8111C7CF9FCF809199048C
:102F9000882309F431CF80919A04CF911F910F912A
:102FA000FF90EF90DF90CF9008951092A4041092BC
:102FB000A5041092A6041092A7041092A3041092E4
:102FC000A9041092A8041092A2041092A1041092D5
:102FD000C3041092C2041092A00410929F04109295
:102FE0009B0410929C0410929D0410929E041092D7
:102FF0009A04109299041092BE041092BF04109289
:10300000C0041092C1041092BD041092B904109231
:10301000BA041092BB041092BC0488EE93E0A0E0C6
:10302000B0E08093490290934A02A0934B02B09380
:103030004C021092B5041092B6041092B70410928C
:10304000B8041092B1041092B2041092B30410921A
:10305000B4041092B0041092AF0481E0809348024F
:103060001092AE041092AD041092AC041092AB0416
:103070001092AA0490E080E008958091AC049091B1
:10308000AD04892B19F580914802882351F0809175
:10309000AE04811106C081E080939A048093990464
:1030A00008952091AE043091480281E090E03323EE
:1030B00011F090E080E030E082239323892B21F00F
:1030C00010929A0481E0EACF10929904089582E068
:1030D00090E0FA01918380838FEF9FEF0895CF9363
:1030E000DF93EA01009711F00E94A7281982188245
:1030F00090E080E0DF91CF910895DB01009719F413
:103100008FEF8C9308952EEF2C93FC013F96EF30B8
:10311000F10508F034C08827EF56F74E8F4F0C9416
:10312000AC3ABD18BB18B918B718B518B118B31810
:10313000AF18AD18AB18A818A418A018A618BF1877
:1031400080E311968C93089589E2FBCF82E2F9CF58
:1031500011961C92089583E2F4CF81E2F2CF81E1CF
:10316000F0CF87E2EECF8AE2ECCF80E1EACF84E2D3
:10317000E8CF88E2E6CF86E2E4CF81E3E2CF80E2E7
:10318000E0CF8091D0049091D10408959093D10420
:103190008093D00408958091CF0408959091CF0436
:1031A000892B8093CF040895982F90958091CF0418
:1031B00089238093CF0408958091CE04089580914F
:1031C000CC049091CD0408956115710559F0FB016F
:1031D00030E020E070E060E02417350719F0611559
:1031E000710511F0CB010895A081B181A817B9072D
:1031F00009F4BF012F5F3F4F3696EECF8091D20486
:1032000081111CC041D247D29093C5048093C4045D
:103210000E9419220E942B229093C9048093C80413
:103220000E943F250E9446259093C7048093C604C0
:1032300081E08093D20490E080E0089584EF9FEFD6
:1032400008958F929F92AF92BF92CF92DF92EF92AA
:10325000FF920F931F93CF93DF9300D000D000D045
:103260001F92CDB7DEB71A86198618861F821E8276
:103270001D821C821B821A8219828091D20407EF60
:103280001FEF882309F48BC08E010D5F1F4F9E0135
:103290002B5F3F4FAE01495F5F4FBE01675F7F4FBE
:1032A00090E080E00E94C3268C01009721F00596F3
:1032B000029708F0C7C089859A85009709F4EFC086
:1032C000ED80FE802B813C812E0D3F1D4F81588566
:1032D0004217530708F4E3C0E80EF91ED7014C91DA
:1032E0002091D0043091D104232B09F494C0413FA4
:1032F00008F069C08CE1840F8D3008F483C08DE242
:10330000840F803108F481C088E3840F8B3008F487
:103310007FC09DE7C92E98E1D92EE7E6F8E16D81DF
:103320007E81AE014F5F5F4F89859A8519955C015B
:10333000C114D104A1F189809A808114910479F19A
:103340008B819C818815990508F484C010E000E009
:103350004B815C8170E060E0C7010E94D63A0115A4
:103360001105E9F449815A8169857A858D819E81AB
:10337000680F791FC501F6011995E980FA800D8162
:103380001E812F81388549855A856FEF7FEF81E057
:1033900090E00E945E268C01892B09F053C0C80181
:1033A0002A960FB6F894DEBF0FBECDBFDF91CF9146
:1033B0001F910F91FF90EF90DF90CF90BF90AF9053
:1033C0009F908F90089530E020E0220F331FF90185
:1033D000EC53FB4F0190F081E02D309709F499CF29
:1033E000842F90E01995009709F493CFDC01129691
:1033F000ED91FC9113971496CD90DC90309709F0E5
:103400008ECF1EC021E030E0E0CF22E030E0DDCF03
:1034100023E030E0DACFD12CC12CEFE6F8E14F3FCA
:1034200009F07DCFE091C404F091C504309719F400
:1034300004EF1FEF0CC08FEF90E019950097B1F6E5
:1034400004EF1FEF89859A85009709F4A8CF0E94A1
:10345000A728A5CF0E948D278C0189859A850E9477
:10346000A72870E060E0C4010E94262798878F8318
:103470000E945B269E838D836F817885611571051F
:1034800059F0C8010E942B2A9A87898706EF1FEFFF
:10349000892B09F05BCF5CCF08EF1FEF59CF08EF06
:1034A0001FEFD0CF2091D2042111DAC787EF9FEF11
:1034B00008958091D0049091D10408950E944B25E5
:1034C0000E94A524EDD0E4ECF4E088E0DF011D9239
:1034D0008A95E9F71092D20490E080E0089586E0A2
:1034E00090E0FA019183808390E080E0089547E0C6
:1034F00050E069E772E068CEDF92EF92FF920F939F
:103500001F93CF93DF938A01EC01C60FD71FE09082
:10351000D604F090D704D9800E947527D8161906D2
:1035200078F082E090E0F801918380838EEF9FEF46
:10353000DF91CF911F910F91FF90EF90DF90089551
:10354000EF2841F482E090E0F8019183808384EFDA
:103550009FEFEECF89818093D50490E00196F8012A
:103560009183808390E080E0E3CFCF93DF93EA0103
:103570000E94B823882321F00E9482270E94B92349
:1035800082E090E0998388838BEF9FEFDF91CF916A
:103590000895CF93DF93EB0186E0FB0111928A95AA
:1035A000E9F78FEF8883F7DD898306DE8A8307DEFC
:1035B0009D838C83DF91CF910895CF93DF93EA01B0
:1035C0000E94BB23811109C082E090E09983888327
:1035D00085EF9FEFDF91CF91089590E080E0D6DDF9
:1035E00081E090E09983888390E080E0F3CF0F93AF
:1035F0001F93CF93DF93EA018C01060F171F0E94E0
:10360000BB2381110BC082E090E09983888385EF12
:103610009FEFDF91CF911F910F910895F801818164
:10362000823038F082E090E0998388838EEF9FEFBC
:10363000F0CF81E090E0AADD88E090E09983888374
:1036400090E080E0E6CFCF93DF930097D1F4EB01D9
:10365000FB01329686E0DF011D928A95E9F78FEF34
:10366000888385E089831A820E9475278B830E9454
:1036700074279D838C8381E08E838F83DF91CF912C
:103680000895DF91CF9139CD87E79AE19093D404E3
:103690008093D30408958091D3049091D404089525
:1036A0001092D4041092D30408958091D60490917E
:1036B000D7040895411105C0611571058105910573
:1036C00061F06093D6047093D7048093D8049093EC
:1036D000D9044093DA0481E0089580E00895FF92D0
:1036E0000F931F93CF93DF938A01EC01C60FD71F6F
:1036F000F9800E947527F816190668F082E090E0BC
:10370000F801918380838EEF9FEFDF91CF911F911E
:103710000F91FF9008956C817D818E819F814B81F7
:10372000C9DF811108C082E090E0F80191838083B5
:1037300084EF9FEFEACF89818093D50490E00196D2
:10374000F8019183808390E080E0DFCFCF93DF9317
:10375000EA01FC01E60FF71F64817581868197817C
:103760004381A8DF811109C082E090E099838883BA
:1037700084EF9FEFDF91CF91089581E090E09983EE
:10378000888390E080E0F6CFE6EDF4E0408151815F
:1037900062817381480F511D611D711D40835183EA
:1037A000628373830895CF93C091D5044C2F50E06A
:1037B0006091D6047091D70401960E94CD3A8C2F67
:1037C000E3DF1092D504CF910895009799F480918A
:1037D000D6049091D7042FEFFB012083892B59F059
:1037E0002091D50430E02F5F3F4F2417350719F49F
:1037F000CB01D9CF82CC0895009799F48091D6045B
:103800009091D7042FEFFB012083892B59F0209151
:10381000D50430E02F5F3F4F2417350719F4CB0153
:10382000C2CF6BCC08952DE0AC01249FC001259F31
:10383000900D1124E091DF04F091E004E80FF91FEE
:10384000238134812250310981E02230310508F092
:1038500080E008950F931F93CF93DF930091E104CD
:103860001091E204D0E0C0E080E00C171D0749F49D
:1038700091E0811190E0892FDF91CF911F910F91FD
:1038800008958111F5CFCE01CEDF2196EECFA09124
:10389000DF04B091E004109729F12091E104309108
:1038A000E20482179307F0F45DE0589F9001599F5E
:1038B000300D1124A20FB31FED91FC911197309799
:1038C00089F012968C91681768F485E0689FE00D86
:1038D000F11D112480819181892B21F081E0928159
:1038E000491708F080E00895EF92FF920F931F931D
:1038F000CF93DF93EA01FC01E60FF71F02811381EA
:10390000E480F5804F2D6E2DC801C1DF81110DC0FF
:1039100082E090E0998388838EEF9FEFDF91CF91D3
:103920001F910F91FF90EF900895C8017CDF8823CD
:1039300039F082E090E09983888388EF9FEFEECFA3
:103940001093540200935302E0925502F0925602F3
:1039500081E090E09983888390E080E0DFCFCF9290
:10396000DF92EF92FF920F931F93CF93DF937A0131
:10397000EC01C60FD71FC0905302D09054020091A3
:10398000550210915602412F602FC60180DF811130
:1039900010C082E090E0F701918380838AEF9FEF6F
:1039A000DF91CF911F910F91FF90EF90DF90CF901B
:1039B0000895C60138DF882341F082E090E0F701E6
:1039C0009183808388EF9FEFEBCF4C815D816E8187
:1039D0007F819A8189818F3F41F082E090E0F701F9
:1039E000918380838EEF9FEFDBCFEDE0EC9D900124
:1039F000ED9D300D1124E091DF04F091E004E20F21
:103A0000F31F0190F081E02D25E0029FE00DF11DF4
:103A100011240190F081E02D27E0129FE00DF11DAF
:103A20001124808391838B818283438354836583B4
:103A300076831F5F1093560281E090E0F701918337
:103A4000808390E080E0ACCFEF92FF920F931F93C2
:103A5000CF93DF937A018C01060F171FC091DF040B
:103A6000D091E004209781F021E030E0F8018281DC
:103A700093814091E1045091E2048417950710F07E
:103A800030E020E0232B71F482E090E0F701918395
:103A900080838EEF9FEFDF91CF911F910F91FF9069
:103AA000EF9008954DE0489F9001499F300D1124FB
:103AB000C20FD31FB8DE882341F082E090E0F70107
:103AC0009183808388EF9FEFE6CFF80124813581D1
:103AD00020383105C8F687818111D6CF4181842FE6
:103AE00090E08F7E009741F082E090E0F7019183B3
:103AF000808386EF9FEFCFCF4F833E832D83268138
:103B000028871986223010F421E0288721E030E050
:103B1000F70131832083BFCF88E090E0FA019183E1
:103B2000808390E080E00895FB018FEF808381E146
:103B300081838FEF9FEF9383828380E890E095836A
:103B40008483168217820895FB018FEF808391E0B2
:103B5000918382839383848384E3858381E090E0EF
:103B60009783868308954BE050E063EA72E02CCBA4
:103B70008F929F92BF92CF92DF92EF92FF920F931C
:103B80001F93CF93DF93EA01FC01E60FF71F8281B9
:103B900093810481B580E091DF04F091E0043097D7
:103BA00091F482E090E0998388838CEF9FEFDF911E
:103BB000CF911F910F91FF90EF90DF90CF90BF902A
:103BC0009F908F9008952091E1043091E204821734
:103BD000930738F082E090E0998388838EEF9FEF1F
:103BE000E6CF2DE0289F6001299FD00C1124EC0D19
:103BF000FD1DE080F180E114F10499F28281081743
:103C000048F785E0089F80011124E00EF11EF701BE
:103C100080819181892B29F6BB20E1F2F7E0BF9EDC
:103C200040011124C4010E945928F7019183808327
:103C3000E091DF04F091E004EC0DFD1D0190F081B6
:103C4000E02DE00FF11F80819181009739F482E02F
:103C500090E0998388838DEF9FEFA9CFA40170E056
:103C600060E00E94D63A8091DF049091E004C80E93
:103C7000D91EF60180819181080F191FF801B282C7
:103C800081E090E09983888390E080E090CFAF92CC
:103C9000BF92CF92DF92FF920F931F93CF93DF9348
:103CA000EA01FC01E60FF71F82819381F480009105
:103CB000DF041091E0040115110581F482E090E029
:103CC000998388838CEF9FEFDF91CF911F910F91A4
:103CD000FF90DF90CF90BF90AF9008952091E104C6
:103CE0003091E2048217930738F082E090E09983E4
:103CF00088838EEF9FEFE8CF2FEF2F0D2C3FA8F793
:103D00002DE0289F6001299FD00C11240C0D1D1D52
:103D1000F80180819181892B89F6F5E0FF9E5001A1
:103D20001124C5010E945928F80191838083E091F4
:103D3000DF04F091E004EC0DFD1D8081918100977E
:103D400039F482E090E0998388838DEF9FEFBCCFB8
:103D5000A50170E060E00E94D63AE091DF04F091A6
:103D6000E004EC0DFD1DF28281E090E099838883F0
:103D700090E080E0A9CFCF92DF92EF92FF920F9375
:103D80001F93CF93DF93860F971FFC01028113814E
:103D90008091DF049091E004892B81F082E090E033
:103DA000FA01918380838CEF9FEFDF91CF911F9178
:103DB0000F91FF90EF90DF90CF900895C801B0E091
:103DC000A0E00197A109B1098F3F9F4FA105B1055F
:103DD00040F082E090E0FA01918380838EEF9FEFC4
:103DE000E4CF7A018DE0809F6001819FD00C112487
:103DF000C6010E945928EC01009741F482E090E04E
:103E0000F701918380838DEF9FEFCFCFA60170E004
:103E100060E00E94D63AD093E004C093DF04109390
:103E2000E2040093E10490E080E02FEF3FEF801781
:103E3000910741F481E090E0F7019183808390E065
:103E400080E0B3CF3C872B8701962D96F0CFCF92A1
:103E5000DF92EF92FF920F931F93CF93DF93EC01CA
:103E6000D12CC12C10E000E0F12CE12C8A818017CC
:103E7000110609F0BCF4AE01455F5F4F63E070E0EE
:103E8000C7010E94D328009721F02FEF3FEF3C8716
:103E90002B87DF91CF911F910F91FF90EF90DF90D3
:103EA000CF900895E881F981EC0DFD1D23813481C7
:103EB000C90101960115110519F44F8144FD0496BD
:103EC00061E070E0C3D7E816F90608F47C010F5FE3
:103ED0001F4F85E0C80ED11CC9CFF8942091DD0496
:103EE0003091DE0481E02115310509F080E0232BBB
:103EF00009F0789408954F925F926F927F928F921B
:103F00009F92AF92BF92CF92DF92EF92FF920F9368
:103F10001F93CF93DF933C01660E771EF3018281DE
:103F200093814C01B12CA12CC091DF04D091E0040D
:103F3000209769F021E030E06091E1047091E204A3
:103F40008617970710F030E020E0232BC1F482E0C1
:103F500090E0FA01918380838EEF9FEFDF91CF9104
:103F60001F910F91FF90EF90DF90CF90BF90AF9097
:103F70009F908F907F906F905F904F900895809268
:103F8000570290925802A0925902B0925A026DE0E4
:103F9000689F9001699F300D1124C20FD31FF30158
:103FA0008181833040F082E090E0FA019183808348
:103FB00086EF9FEFD3CF2A012B813C81232BF1F495
:103FC000288139819F8191FF2EC0232B09F464C081
:103FD0002091E4049A81422F490F5527551FBA01B9
:103FE00041E050E06138710514F050E040E0452BAD
:103FF00009F452C02A87920F9093E40481508230D2
:1040000008F476C06ADF882309F4C7C0F301818110
:10401000813009F480C008F470C0823009F4B5C062
:1040200090E080E090C0232BB9F12091E3049A81C5
:10403000E22FE90FFF27FF1F41E050E0ED3FF105C0
:1040400014F050E040E0452B39F12A87920F90930D
:10405000E304D4CFA081B181A20FB31F11966C915C
:10406000060F111D0196295F3F4F8417950794F3A2
:10407000C114D104C9F48F8184FF16C035D721E063
:10408000A8014B5F5F4F8417950708F420E0A70154
:104090004B5F5F4F21110EC082E090E0F2019183EF
:1040A000808387EF9FEF5ACF1FD721E0A8014F5F92
:1040B0005F4FE9CF88819981E80EF91EF7011483DB
:1040C0000383FFEFCF1ADF0A7A018A818C151D0462
:1040D00009F00CF497CFE881F981EE0DFF1D4281C4
:1040E00050E030E020E010E000E090E080E0BDCF64
:1040F000F12CE12CD12CC12CE8CF81E090E09C8305
:104100008B83A8DB882309F48BCF81E090E03ED835
:1041100080E44AD885CF8B859C85019651F083E059
:1041200090E09C838B8382E090E030D880E436D8A6
:1041300077CF22E082169104A104B1047CF4CE0171
:1041400086DE009761F3789422E030E0F20131835B
:104150002083892BF9F08DEF9FEF00CF2D813E81D9
:1041600080914D0290914E0228173907C1F6609157
:10417000510270915202AE01455F5F4F80914F0234
:10418000909150020E94EA29DCCF82E090E09C836B
:104190008B8346CF90E080E0E1CE82E090E0F201B8
:1041A0009183808385EF9FEFD9CE8F929F92AF92BC
:1041B000BF92CF92DF92EF92FF920F931F93CF9314
:1041C000DF93EA018C01060F171FF801818183300C
:1041D00098F082E090E09983888386EF9FEFDF91EB
:1041E000CF911F910F91FF90EF90DF90CF90BF90F4
:1041F000AF909F908F9008958091DF049091E0049C
:10420000892B61F081E090E02091E1043091E2049B
:10421000232B11F490E080E0892B39F482E090E0C8
:10422000998388838EEF9FEFDACF57DE882309F4D6
:10423000D6C0F8018181813009F48CC0E8F0823069
:1042400099F42091E1043091E204E091DF04F091CF
:10425000E00490E080E041E050E02817390709F0E1
:10426000B4C0F8DA811117C0789481E090E09983A6
:10427000888390E080E0B3CF2091E1043091E204A4
:10428000E091DF04F091E00490E080E041E050E054
:104290002817390741F481E090E00E94C61880E4B5
:1042A0000E94D418E1CF63817481672B11F054838D
:1042B000438301963D96ECCFE091DF04F091E0045A
:1042C000E00FF11F238134812230310569F4238509
:1042D00034852F3F3F4F41F422E0C216D104E10460
:1042E000F1040CF5CF01B3DD4FEFC41AD40AE40A90
:1042F000F40A035F1F4F4091E1045091E20470E023
:1043000060E0C416D506E606F70664F50097A1F24C
:104310007894892B09F4A9CF82E090E0998388836F
:104320008DEF9FEF5CCF4581568120914D023091FA
:104330004E0242175307C1F6AF01455F5F4F6091D0
:1043400051027091520280914F02909150020E944E
:10435000EA29CACF10E000E090E080E0C12CD12C27
:104360007601C9CF0097A1F610E000E0812C912CD6
:10437000540183E0E82EF12C1AC0E091DF04F091A3
:10438000E004E00FF11F83819481029749F4F482E5
:10439000E38282E090E00E94C61880E40E94CE187A
:1043A0008FEF881A980AA80AB80A035F1F4F8091F6
:1043B000E1049091E204B0E0A0E088169906AA0614
:1043C000BB06DCF290E080E0A3CF638174816230B1
:1043D000710511F45483438301963D963ECF82E0EC
:1043E00090E09983888385EF9FEFF9CE0097B9F429
:1043F0008FEFFB01808320915702309158024DE0EE
:10440000429FC001439F900D1124E091DF04F09181
:10441000E004E80FF91F8285FB01818308950C9465
:104420007D1888E090E0FA019183808390E080E03D
:1044300008951092DE041092DD04EFEDF4E086E0C2
:10444000DF011D928A95E9F783EB9DE19093DC04EF
:104450008093DB0408958091DB049091DC0408953F
:104460002F923F924F925F926F927F928F929F9284
:10447000AF92BF92CF92DF92EF92FF920F931F9372
:10448000CF93DF93CDB7DEB762970FB6F894DEBF58
:104490000FBECDBFF8942091DD043091DE042F5F74
:1044A0003F4F3093DE042093DD0478942091DF04A5
:1044B0003091E0043B832A83232B09F456C12091D9
:1044C000E1043091E204232B09F44FC14D875E874C
:1044D0006F87788B9C878B878A819B819A8B898B4E
:1044E000D12CC12C198210E000E08091E104909160
:1044F000E204C816D90618F43981332329F1F89457
:104500008091DD049091DE0401979093DE04809306
:10451000DD047894C80162960FB6F894DEBF0FBE32
:10452000CDBFDF91CF911F910F91FF90EF90DF9062
:10453000CF90BF90AF909F908F907F906F905F9043
:104540004F903F902F900895B60190E080E02AD3DD
:104550008887A989BA8917968C91179781FD8DC094
:1045600013968D919C911497039709F086C0159628
:10457000ED91FC91FF83EE832B853C85E217F307D9
:1045800009F07BC0712C612C512C412C63C093D35A
:104590009A87898710E04114510431F4A989BA89B6
:1045A00017961C9112951170A989BA89ED91FC9109
:1045B000E60DF71D23803480111169C0BFEF2B1A5F
:1045C0003B0A61E070E0C10141D45C01A989BA896C
:1045D0001B968D919C918F3F980709F45CC0B501A3
:1045E0003AD74C01009709F4BBC0E985FA85E80F7A
:1045F000F91FA989BA891A968C91840D80831111AB
:104600004DC08F010F5F1F4F80914D0290914E0260
:10461000AE81BF81A817B90709F09DC081E090E085
:10462000B885BB2311F090E080E0710109851A85FF
:104630009501A401B6019195819591093FD38C0113
:10464000892B11F0C40183D58FEF481A580A95E0E1
:10465000690E711CA989BA8912968C91841515046A
:1046600029F024F0B981BB2309F491CFE885EE232A
:1046700021F0B60190E080E097D2FFEFCF1ADF0A79
:1046800029893A89235F3F4F3A8B298B2ECFE5E06A
:104690002E0E311C96CFC5010CD5A3CF8D859E85DE
:1046A000AF85B88981839283A383B4838F010B5F25
:1046B0001F4FAACFE080F180EC81FD81EE0EFF1E3E
:1046C000D70113966D917C9114978C918F3FE1F1F6
:1046D000E1E0F0E002C0EE0FFF1F8A95E2F7CF01A4
:1046E000092E000CAA0BBB0BFB014081518162819A
:1046F000738184239523A623B72321E0892B8A2B5A
:104700008B2B09F420E0D8012C93D70111968C91C2
:10471000080F111DEA81FB813196FB83EA832C810E
:104720003D81295F3F4F3D832C83A989BA89ED9153
:10473000FC91E60DF71D82812A813B8182171306C9
:1047400011F00CF0B7CF6ACFF701418150E0C801FA
:104750000E94CD3ADACF1D821C821B821A82E5CFDD
:1047600031E0398306EF1FEF6FCF10E000E0C7CED6
:10477000B4CB789408952F923F924F925F926F92AC
:104780007F929F92AF92BF92CF92DF92EF92FF9271
:104790000F931F93CF93DF9300D000D0CDB7DEB738
:1047A0000091DF041091E004992493940115110500
:1047B00009F43EC0A090E104B090E2048EDB982E94
:1047C0008823B1F11092E0041092DF041092E20409
:1047D0001092E1041092E3041092E4048FEF9FEF33
:1047E000DC018093570290935802A0935902B09332
:1047F0005A0278947BD31E830D83C12CD12C760171
:10480000C501B0E0A0E089839A83AB83BC832224F6
:104810002A94322C89819A81AB81BC81C816D90631
:10482000EA06FB06F4F0C80192D480E40E94D41892
:10483000892D26960FB6F894DEBF0FBECDBFDF914F
:10484000CF911F910F91FF90EF90DF90CF90BF908D
:10485000AF909F907F906F905F904F903F902F9080
:104860000895AD81BE8192E0C916D104E104F1043E
:104870000CF51B968D919C918F3F980709F02BD5D5
:10488000ED81FE8134862386ED81FE8180819181D8
:10489000B12CA12C412C512C3201892B59F5BFEFA1
:1048A000CB1ADB0AEB0AFB0AED81FE813D96FE8303
:1048B000ED83B0CF15962D913C91169780914D02C6
:1048C00090914E0228173907F9F61B968D919C910D
:1048D000B0D5DACF8A0D9B1DDC018D919C9100979C
:1048E00009F035D4BFEF4B1A5B0A6B0A7B0AE5E08F
:1048F000AE0EB11CAD81BE818D919C911197129627
:104900004C9150E070E060E044165506660677066C
:104910000CF31DD4C4CFCF93DF93EA012CDF8111B8
:1049200009C082E090E09983888385EF9FEFDF9153
:10493000CF91089581E090E00E94C61881E090E058
:104940009983888390E080E0F2CF15DF1092DC0439
:104950001092DB04089542E050E065EE72E00C94A2
:10496000E418FF920F931F93CF93DF938A01EC011A
:10497000C60FD71FF980B9D20897F816190671F03B
:1049800068F082E090E0F801918380838EEF9FEFE2
:10499000DF91CF911F910F91FF9008956C817D81E0
:1049A0008E819F814B810E945A1B811108C082E039
:1049B00090E0F8019183808384EF9FEFE9CFF98045
:1049C0000E94551B4F2D50E0BE01685F7F4F0E9433
:1049D000CD3A89810E94C41B81E090E0F801918367
:1049E000808390E080E0D4CFDF92EF92FF920F932C
:1049F0001F93CF93DF938A01EC01C60FD71F0E944C
:104A0000551B7C01D98071D2DD2059F0029721E03D
:104A100030E0D816190619F010F030E020E0232B12
:104A200079F482E090E0F801918380838EEF9FEF2C
:104A3000DF91CF911F910F91FF90EF90DF9008953C
:104A4000EF2841F482E090E0F8019183808384EFC5
:104A50009FEFEECFF9800E94551B4F2D50E0BE0115
:104A60006E5F7F4F0E94CD3A89810E94C41B81E016
:104A700090E0F8019183808390E080E0D9CF8BEAC9
:104A800094E29093E6048093E50408958091E50410
:104A90009091E60408950895FC0111821082938399
:104AA00082830895DB011D921C92DC011296ED9128
:104AB000FC9113977183608313967C936E93129786
:104AC0000895FC0180819181DB018D939C93A081ED
:104AD000B181109741F08D919C9191838083892BB6
:104AE00011F4F383E2830895FC0180819181DB015D
:104AF0008D939C93892B11F47383628371836083FC
:104B00000895FC0111821082938382830895CF93CC
:104B1000DF931F921F92CDB7DEB71A821982F894E5
:104B2000BE016F5F7F4F8CEE94E0CBDF89819A816D
:104B3000009709F00CD389819A81892B89F7BE01EE
:104B40006F5F7F4F80EF94E0BCDF89819A8100978F
:104B500009F0FDD289819A81892B89F778940F9089
:104B60000F90DF91CF910895CF93DF931F921F9203
:104B7000CDB7DEB71A821982F894BE016F5F7F4FFE
:104B800088EE94E09EDF89819A81009709F0DFD258
:104B900089819A81892B89F778940F900F90DF9102
:104BA000CF91089581E0089590E080E00895EF921C
:104BB000FF920F931F93CF93DF931F921F92CDB756
:104BC000DEB71A8219828091E70407EF1FEF88236E
:104BD000A1F1F894BE016F5F7F4F80EF94E071DF29
:104BE000789489819A81EE24E394F12C892B51F4F5
:104BF000F894BE016F5F7F4F8CEE94E062DF789493
:104C0000F12CE12C89819A810EEF1FEF0097A9F01A
:104C1000FC014281538164E070E01DD68C01892B38
:104C200061F0F89469817A81C701880F991F880F14
:104C3000991F84519B4F58DF7894C8010F900F90B3
:104C4000DF91CF911F910F91FF90EF9008950F93F7
:104C50001F93CF93DF9300D01F92CDB7DEB71C8296
:104C60001B821A8219828091E70407EF1FEF8823C5
:104C7000C1F0AE014D5F5F4F64E070E0CE01019680
:104C80005DD68C01892B69F4E981FA818B819C8145
:104C900093838283F89469817A8188EE94E002DFBD
:104CA0007894C8010F900F900F900F90DF91CF91E3
:104CB0001F910F91089562D7049608958F929F9245
:104CC000AF92BF92CF92DF92EF92FF920F931F931A
:104CD000CF93DF931F921F92CDB7DEB71A8219824E
:104CE000BC016F5F7F4F6330710598F0AA24AA94CE
:104CF000BA2CC5010F900F90DF91CF911F910F91AA
:104D0000FF90EF90DF90CF90BF90AF909F908F90EB
:104D100008954115510551F3480159018A016C016B
:104D2000CADF8815990511F7E114F104F9F28E0D27
:104D30009F1DA816B906D0F28091E7048823F1F0F0
:104D4000F894B501645071099701AE014F5F5F4F50
:104D5000C801049688D65C01892B71F489819A81F7
:104D6000F80193838283C601880F991F880F991FCA
:104D7000B80184519B4F96DE7894BBCF87EFA82E65
:104D8000BB24BA94B6CFAF92BF92CF92DF92EF928C
:104D9000FF920F931F93CF93DF931F921F92CDB774
:104DA000DEB71A821982892B09F047C06115710597
:104DB00009F443C04115510509F43FC021153105DF
:104DC00009F43BC001151105C1F18091E704882366
:104DD000B9F179016A015B01F894BE016F5F7F4F01
:104DE00088EE94E06EDE789489819A81009759F17B
:104DF000DC0112966D917C91A80104964DD68C0130
:104E0000E981FA81D501ED93FC9382819381049627
:104E1000F601918380834FDFD7018D939C93C80166
:104E20000F900F90DF91CF911F910F91FF90EF9016
:104E3000DF90CF90BF90AF9008950FEF1FEFEFCFAF
:104E400007EF1FEFECCF0EEF1FEFE9CFCF93DF930C
:104E5000EC01672B71F49BD68C179D0760F08ED602
:104E60002496C80FD91F8DD68C0F9D1FDF91CF912F
:104E700008958AD6F1CF90E080E0F8CF0F931F938A
:104E8000CF93DF932091E70421112BC08B01EC011C
:104E90008CEE94E001DE80EF94E0FEDD88EE94E09D
:104EA000FBDD86D00097C1F472D670E060E0CEDF03
:104EB0004BE552E062E070E076D1009769F48091B2
:104EC0005B0290915C0275D6B801CE01AAD400971E
:104ED00019F421E02093E704DF91CF911F910F9106
:104EE000089584EF9FEFF8CF4FC651C6CF93DF935D
:104EF00051D6EC01892B11F40ADE36DECE01DF91AA
:104F0000CF910895CF93DF9345D6EC01892B09F417
:104F1000FEDDCE01DF91CF91089580915B029091EB
:104F20005C020895CF93DF938091E704D0E0C0E066
:104F30008823D1F043D6EC01892BB1F4E8DD14DEEF
:104F400080915B0290915C02C6D1D5D2EC01892B95
:104F500059F48CEE94E0D5DD80EF94E0D2DD88EE5C
:104F600094E0CFDD1092E704CE01DF91CF91089558
:104F7000CF93DF930097A1F4DF91CF910895EC01D7
:104F80001A821982A883309711F0928381832F5F50
:104F90003F4FFC01860F971F4217530781F7ECCF55
:104FA00030E020E0F0E0E0E0AFEF6F5F7F4FF4CF64
:104FB000AF92BF92CF92DF92EF92FF920F931F9327
:104FC000CF93DF9389EF95E07C012CEFE22281EF14
:104FD000C82E82E0D82E97EFA92E92E0B92EC8E312
:104FE000D6E08E01D6014D915D916D01F501619183
:104FF00071915F01D8011196FC92EE9215965C9327
:105000004E93149713965C934E93129717967C9336
:105010006E9316979B012F5F3F4F249FC001259FE2
:10502000900D349F900D112419969C938E93189790
:10503000C7019EDFF80180859185E80EF91E065FA5
:105040001F4FF7EFCF16F2E0DF0661F6E6EFF4E070
:1050500080E091E0DF019C011D9221503040E1F79A
:105060001092F5041092F40486E596E01F8E1E8ED1
:105070001BA21AA219A218A21DA21CA21FA21EA244
:105080002A968C179D0791F71092350610923406D8
:10509000109237061092360690E080E0DF91CF91B3
:1050A0001F910F91FF90EF90DF90CF90BF90AF9046
:1050B0000895009799F1F8948930910550F4809102
:1050C0003A0690913B06892B39F020E090E080E091
:1050D00018C08131910550F48091440690914506A5
:1050E000892B31F021E081E090E00BC08197A8F49A
:1050F00080914E0690914F06892B79F022E082E054
:1051000090E0EAE0E89FD001E99FB00D1124A85C8F
:10511000B94F8D919C91009721F4789490E080E0B4
:105120000895E29FF0011124E85CF94FDC0111962B
:105130004D915C915183408342815381415051098B
:1051400053834283FC012193CF0178940895009703
:1051500049F1DC018E91863041F4E0913606F09100
:1051600037063097F9F0CD0119948630D8F4282FFE
:1051700030E0F8948FEF8C938AE0829FF001839F58
:10518000F00D1124E85CF94F8081918112969C9377
:105190008E931197B183A08382819381019693832B
:1051A000828378940895CF92DF92EF92FF920F93CB
:1051B0001F93CF93DF939C0189EF94E08C7F41157F
:1051C000510509F485C02115310509F481C0611527
:1051D000710509F47DC08A01AB01B9016D5F7F4F94
:1051E0006C7F9B012F5F3F4F249F7001259FF00C28
:1051F000349FF00C1124F894E8E3F6E023E030E06B
:10520000E901A6A1B7A1C68CD78CCD2809F054C05E
:10521000109709F03CC0C090F404D090F5042DEF35
:1052200030E02C193D092E153F0530F47894CFEF6E
:10523000DFEF86EF9FEF1FC02AE02C9FF0012D9F2C
:10524000F00D1124E85CF94F9183808355834483EA
:105250005383428377836683F186E08689DEEC0C94
:10526000FD1CF092F504E092F4047894CF3FDC0743
:1052700001F390E080E0F801D183C083DF91CF910A
:105280001F910F91FF90EF90DF90CF900895AE1592
:10529000BF0590F02AE02C9FF0012D9FF00D112406
:1052A000E85CF94F91838083558344835383428321
:1052B000778366835DDED9CF8A0F9B1F2F5F3F4FB9
:1052C0003A962630310509F09BCFCFEFDFEFCDCFF7
:1052D0008FEF9FEFD3CFFF920F931F93CF93DF9367
:1052E0009C01235031092330310508F070C0EC01D6
:1052F000F89485E09AE09C9FD0019D9FB00D112409
:10530000A05CB94F082F10E0909FF001919FF00D25
:105310001124E85CF94F20813181C017D10714F1C5
:10532000FF24F394232B41F52AE0209FF001219FD5
:10533000F00D1124E85CF94F8091F4049091F5048C
:1053400040855185841B950B9093F5048093F4045C
:105350002C9FF0012D9FF00D1124E85CF94F118670
:1053600010861CC0232B39F42D913C911197232BCF
:10537000A9F48150C7CFF12C8AE08C9FF0018D9F5A
:10538000F00D1124E85CF94F4085518570E060E034
:10539000808191810E94D63AF110C6CF8AE08C9F1D
:1053A000F0018D9FF00D1124E85CF94F11821082FD
:1053B000158214821382128217821682789490E0EA
:1053C00080E0DF91CF911F910F91FF9008958FEFB3
:1053D0009FEFF7CF4115510549F1009739F161155C
:1053E000710521F1F8942091340630913506232B74
:1053F000B9F42091360630913706232B89F4909327
:105400003506809334067093370660933606789499
:1054100026E030E090E080E0FA01318320830895B7
:1054200078942FEF3FEF86EF9FEFF6CF8FEF9FEF50
:105430000895069769F4F894109235061092340690
:105440001092370610923606789490E080E0089526
:105450008FEF9FEF08956115710519F4F0E0E0E01A
:1054600011C08630910581F4E0913406F091350643
:105470003097A1F3CB0101961995009779F3FC01C0
:1054800086E08193CF0108959C0123503109233098
:10549000310520F72AE0289FD001299FB00D112463
:1054A000A85CB94F2D913C911197232BB9F2169618
:1054B0002D913C9117972617370780F2F894129692
:1054C0002D913C9113972115310529F0ED91FC9117
:1054D0001197309711F47894C1CF41815281119680
:1054E0005C934E932150310913963C932E9312975F
:1054F00081937894C7CFE6EFF5E08EE3DF011D924C
:105500008A95E9F7E6EFF4E080E091E0DF019C01A5
:105510001D9221503040E1F71092F5041092F404EE
:10552000E8E3F6E08CE3DF011D928A95E9F7E4E316
:10553000F6E084E0DF011D928A95E9F790E080E0D3
:105540000895CF93DF93C0915D02D0915E02CF3F6B
:10555000DC0759F4DFD390935E0280935D0297FFDE
:1055600009C0D0935E02C0935D0284EF9FEFDF918C
:10557000CF91089590E080E0FACF8230910528F431
:105580008093740690E080E008958FEF9FEF089578
:105590004F925F926F927F92AF92BF92CF92DF92C3
:1055A000EF92FF920F931F93CF93DF931F921F925F
:1055B000CDB7DEB71A821982009709F479C0611558
:1055C000710509F475C020915D0230915E0207EF0C
:1055D0001FEF2F3F3F4F09F445C06B015C01412C89
:1055E000512C3201F12CE12C10E000E09E012F5FE4
:1055F0003F4FA6014E195F09B5016E0D7F1D8091C9
:105600005D0290915E02EAD3892B09F04BC089813B
:105610009A81009741F4E114F10429F42091740671
:10562000222309F442C0E80EF91EEC14FD04D0F464
:1056300080E8481684E858068EE16806710420F573
:1056400060E070E0CB010E9490342AE0420E511CD1
:10565000611C711C0A3F4FEF140721F0043F8FEFCC
:105660001807A1F4C8010F900F90DF91CF911F91FF
:105670000F91FF90EF90DF90CF90BF90AF907F9011
:105680006F905F904F90089501EF1FEF81E090E0E1
:10569000013F2FEF120711F090E080E0892B09F411
:1056A000A5CFE0CF04EF1FEFDDCF0AEF1FEFDACF7A
:1056B0000FEF1FEFD7CF4F925F926F927F92AF9213
:1056C000BF92CF92DF92EF92FF920F931F93CF93EF
:1056D000DF931F921F92CDB7DEB71A82198200970F
:1056E00009F479C06115710509F475C020915D0256
:1056F00030915E0207EF1FEF2F3F3F4F09F445C087
:105700006B015C01412C512C3201F12CE12C10E099
:1057100000E09E012F5F3F4FA6014E195F09B501C2
:105720006E0D7F1D80915D0290915E020AD3892BE0
:1057300009F04BC089819A81009741F4E114F1048A
:1057400029F420917406222309F442C0E80EF91EC0
:10575000EC14FD04D0F480E8481686E9580688E980
:105760006806710420F560E070E0CB010E9490347F
:105770002AE0420E511C611C711C0E3F4FEF1407B2
:1057800021F0043F8FEF1807A1F4C8010F900F908C
:10579000DF91CF911F910F91FF90EF90DF90CF900D
:1057A000BF90AF907F906F905F904F90089502EF01
:1057B0001FEF81E090E0023F2FEF120711F090E021
:1057C00080E0892B09F4A5CFE0CF04EF1FEFDDCFF8
:1057D0000EEF1FEFDACF0FEF1FEFD7CF80915D02F3
:1057E00090915E028F3F980749F08CD2892B49F443
:1057F0008FEF9FEF90935E0280935D0290E080E0D8
:10580000089584EF9FEF0895FC01680F791F90E0E1
:1058100080E0E617F70709F408952191820F911DA2
:10582000F8CF20917506211113C08BDE009791F4FB
:1058300010927B0610927A061092790610927806E2
:10584000109277061092760621E02093750608954F
:1058500084EF9FEF0895AF92BF92CF92DF92EF92C5
:10586000FF920F931F93CF93DF93009709F460C0CB
:105870004630510508F45CC020917506C7EFDFEF94
:10588000222309F449C08C01060F171FF801C080BC
:10589000D180C114D10409F44EC096012A5F3F4F54
:1058A0004217530708F447C07C0180917A06909113
:1058B0007B0693838283B6016C5F7F4F5801A60EEF
:1058C000B71EC801A1DFF5019183808364E070E019
:1058D000C8015EDEEC01892BF9F481E090E04DDE39
:1058E000B601C801049654DEEC01892B91F462E004
:1058F00070E0C5014DDEEC01892B59F4C70127DCAE
:1059000080917A0690917B06019690937B06809316
:105910007A0690E080E031DECE01DF91CF911F91D9
:105920000F91FF90EF90DF90CF90BF90AF900895D0
:10593000CFEFDFEFF1CFC9EFDFEFEECF6F927F92C6
:105940008F929F92AF92BF92CF92DF92EF92FF928F
:105950000F931F93CF93DF9300D01F92CDB7DEB785
:10596000009709F47AC04115510509F476C02091D9
:10597000750607EF1FEF222309F44DC03A017B01A2
:105980005C0164E070E0CE01019695DE8C01892B0C
:1059900009F041C009811A810115110509F45AC0A5
:1059A000480186E0880E911CB701680D791D809131
:1059B0005F02909160024FDD6C01009709F450C0C6
:1059C000A70170E060E00E94D63A89819A81AB819C
:1059D000BC81EC0CFD1CF70181939193A193B193D1
:1059E0007F0181E090E0C9DDB801C70164DE892B49
:1059F00031F562E070E0C701800F911F5CDE8C0121
:105A0000892BE9F490E080E0B8DDF501D182C08215
:105A1000F30191828082C8010F900F900F900F9038
:105A2000DF91CF911F910F91FF90EF90DF90CF907A
:105A3000BF90AF909F908F907F906F90089590E06F
:105A400080E09BDDF50111821082F301118210824A
:105A5000C6017DDB09EF1FEFDECF0FEF1FEFDBCFBE
:105A600006EF1FEFD8CF0097A1F04115510589F03F
:105A70002115310571F0F90136966E177F0748F050
:105A8000DC012D933C93DA01ED93FC9390E080E0F0
:105A900008958FEF9FEF0895AF92BF92CF92DF925C
:105AA000EF92FF920F931F93CF93DF93009709F428
:105AB0005FC04115510509F45BC06530710508F4FC
:105AC00057C020917506C7EFDFEF222391F1DC016B
:105AD000CD90DC9011971296ED91FC9196012A5F82
