:10000000F8C0000027C1000025C1000023C1000086
:1000100021C100001FC100001DC100001BC1000064
:1000200019C1000017C1000015C1000013C1000074
:1000300011C100000FC100000DC100000BC1000084
:1000400009C1000007C1000005C1000003C1000094
:1000500001C10000FFC00000FDC000000C944B2354
:10006000F9C000000C944B260C948126F3C00000CC
:10007000F1C00000EFC00000EDC00000EBC00000C8
:10008000E9C00000E7C00000E5C00000E3C00000D8
:100090000C94D7260C940D27DDC00000DBC00000B7
:1000A000D9C00000D7C00000D5C00000D3C00000F8
:1000B000D1C00000CFC00000CDC00000CBC0000008
:1000C000C9C00000C7C000000C94A31F0C94632794
:1000D0000C949927BFC000000C94EF270C9425289E
:1000E000B9C0000000000A0B02090C0D0E0807033E
:1000F00004010000000000000000000000000000FB
:1001000000000000000000000000000000000000EF
:1001100012111000000000000000000000000000AC
:100120000000000000000000000001021020200874
:100130000810204010204080020102010804020142
:1001400001020408102040808040201008040201B1
:10015000800402018040201008040201080402010A
:100160000102040810204080010204081020408091
:1001700005050505070508080808020202020A0A23
:100180000808040404040101010101010101030341
:10019000030303030303040707070C0C0C0C0C0CEC
:1001A0000C0C0202020206060606060606060B0BE9
:1001B0000B0B0B0B0B0B00002200250028002B0063
:1001C0002E003100340002010000050108010B017E
:1001D00000002100240027002A002D0030003300F9
:1001E00001010000040107010A01AA263627C227DF
:1001F0004E2811241FBECFEFD1E2DEBFCDBF00E0FD
:100200000CBF12E0A0E0B2E0EAE1F2E500E00BBFD3
:1002100002C007900D92A63BB107D9F727E0A6EBE5
:10022000B2E001C01D92A837B207E1F710E0C9EFB4
:10023000D0E000E006C021970109802FFE010E9456
:10024000DA28C53FD10780E00807A9F70E94BE2041
:100250000C940B29D5CE611102C00C94B8246130E6
:10026000E1F362E0FACF662319F061E00C94F42424
:1002700060E0FCCF90E080E008950F931F9300971B
:1002800009F483C06115710509F47FC00091000273
:100290001091010220910202309103020E3F1F4F84
:1002A0002F4F3F4F09F062C04FEF5FEFBA0140930D
:1002B0000002509301026093020270930302409186
:1002C0000002509101026091020270910302DC0170
:1002D0001296ED91FC9180819181A281B3818093EE
:1002E000200390932103A0932203B09323038481DE
:1002F0009581A681B78180931C0390931D03A093E1
:100300001E03B0931F0380859185A285B3858093DA
:10031000180390931903A0931A03B0931B038485C9
:100320009585A685B7858093140390931503A093B4
:100330001603B0931703109210031092110310923A
:1003400012031092130380D489E496E09093B702CD
:100350008093B60278D3009731F421E030E03093F7
:100360002503209324031F910F910895009100020B
:10037000109101022091020230910302DB010D93E2
:100380001D932D933C9313979ACF8FEF9FEFEBCF55
:100390008F929F92AF92BF92CF92DF92EF92FF9295
:1003A0001F93CF93DF934B015C011091270382E0F1
:1003B00090E0909325038093240381149104A10479
:1003C000B10441F480912703811104C08091260378
:1003D000C1E08111C0E0C12CD12C760180912703AE
:1003E000811106C080912603811102C0CC23D1F077
:1003F00083E090E09093250380932403CC2371F154
:10040000CCE9DFEF111101C0A8D7CE01DF91CF9168
:100410001F91FF90EF90DF90CF90BF90AF909F9093
:100420008F9008956AE070E080E090E00E94BA2327
:1004300080E1C80E87E2D81EE11CF11C8FEF881600
:100440009806A806B80631F0C1E08C149D04AE04ED
:10045000BF0408F0C0E080E022D3C0CFD0E0C0E00D
:10046000D1CFCF92DF92EF92FF921F93CF93DF9382
:100470008F3F910511F008F041C020912403309185
:1004800025032330310539F02091240330912503D1
:100490002130310531F424E030E0309325032093FE
:1004A00024036A017B01EC01892BA9F011E0AE0164
:1004B000C701B601C7D2AB01BC0190E080E01123B7
:1004C000F9F0CE01DF91CF911F91FF90EF90DF9077
:1004D000CF900C94C20B8091B6029091B702892BF9
:1004E00029F30E94C90B029709F7E091B602F09137
:1004F000B70290E080E01995182FD9CF8FEF9FEFCA
:10050000DF91CF911F91FF90EF90DF90CF900895F2
:1005100080E0C5C2CF93DF9386E090E090932503FF
:100520008093240315D3EC011092B7021092B60207
:10053000ACD61092250310922403CE01DF91CF9107
:10054000089580912603089580910F030895609384
:10055000000270930102809302029093030290E0E4
:1005600080E00895CF92DF92EF92FF926B017C01C1
:100570009F7720E030E040E859E50E94AF2187FFF7
:100580002BC020E030E040E05FE3C701B6010E94ED
:10059000E42287FD0EC020E030E040E05FE3C701C9
:1005A000B6010E943821FF90EF90DF90CF900C941D
:1005B0001C2220E030E040E05FEBC701B6010E9462
:1005C000E422181684F420E030E0A901C701B60146
:1005D0000E94E8226B017C01C701B601FF90EF90F9
:1005E000DF90CF90089520E030E040E05FE3C70166
:1005F000B6010E943721FF90EF90DF90CF900C94CE
:100600009C214F925F926F927F928F929F92AF92B6
:10061000BF92CF92DF92EF92FF926091F3027091BE
:10062000F4028091F5029091F6029CDF6B017C014F
:1006300020E030E040E853E40E94AF216FEF87FFF5
:100640000EC020E030E0A901C701B6010E94E422FB
:1006500060E087FD04C0C701B6010E94B32189E0B4
:1006600002DEC090E202D090E302E090E402F0905B
:10067000E5028FEFC81AD80AE80AF80AC092E20227
:10068000D092E302E092E402F092E502C114D104B8
:10069000E104F10499F48091E6029091E702A091BF
:1006A000E802B091E9020196A11DB11D8093E60216
:1006B0009093E702A093E802B093E9028090EA02E7
:1006C0009090EB02A090EC02B090ED026091E602F7
:1006D0007091E7028091E8029091E9020E94DF2187
:1006E000A50194010E94E82220E030E040E85FE4A8
:1006F0000E94E8222B013C01C701B6010E94DF21C4
:10070000A50194010E94E8229B01AC01C301B20142
:100710000E9438216093DE027093DF028093E00232
:100720009093E102FF90EF90DF90CF90BF90AF9059
:100730009F908F907F906F905F904F9008951F9340
:10074000CF93DF93E8ECF2E08BE2DF011D928A9514
:10075000E9F780E090E0A0E8BFEB86A397A3A0A70D
:10076000B1A78DEC9CECACE4BEE382A393A3A4A35D
:10077000B5A38BE794E6AFE1BDE484839583A683BC
:10078000B78386ED92ECA9EFBFE380879187A287BC
:10079000B38783E59FE8A5E2BEE584879587A687B2
:1007A000B7878FE894E9AAE9B9EF808B918BA28B88
:1007B000B38BACEBB2E0B383A283E8EBF2E011962B
:1007C000FC93EE938DE192E0918380839383828307
:1007D0008CED92E015969C938E9314978CEC92E09E
:1007E00013969C938E9312978EED92E017969C939E
:1007F0008E931697CDE6D7E089E0FE0111928A9597
:10080000E9F711E0188781E090E0A0E0B0E089838B
:100810009A83AB83BC8361E089E01DDD1D83DF919A
:10082000CF911F91089580916D07811103C081E0E0
:1008300080936D0708954F925F926F927F928F928F
:100840009F92AF92BF92CF92DF92EF92FF920F935F
:100850001F93F894409003035090040360900503A5
:1008600070900603C090F702D090F802E090F90271
:10087000F090FA02452B09F0A6C09B01AC012419A7
:1008800035094609570929013A010091FF021091E3
:100890000003209101033091020348015901840CA7
:1008A000951CA61CB71C80169106A206B306A0F4E0
:1008B0000091FB021091FC022091FD023091FE029A
:1008C0000F5F1F4F2F4F3F4F0093FB021093FC020F
:1008D0002093FD023093FE028092FF02909200036B
:1008E000A0920103B09202030091FB021091FC025E
:1008F0002091FD023091FE0280920703909208033E
:10090000A0920903B0920A0300930B0310930C0307
:1009100020930D0330930E0360930303709304033D
:100920008093050390930603A301920160E47DE0A8
:1009300083E090E00E94A9286C0D7D1D8E1D9F1DF7
:100940006093F7027093F8028093F9029093FA0291
:1009500000910002109101022091020230910302E5
:100960000F3F1F4F2F4F3F4FF1F0009100021091AA
:10097000010220910202309103020E3F1F4F2F4FC0
:100980003F4F89F0C0900002D0900102E090020237
:10099000F090030221E08C149D04AE04BF0408F41F
:1009A00020E020930F0378941F910F91FF90EF9018
:1009B000DF90CF90BF90AF909F908F907F906F907F
:1009C0005F904F9008954B015C0184189508A6082C
:1009D000B708A3019201261B370B480B590B64156E
:1009E000750586059705E0F082169306A406B50600
:1009F00040F420E030E0A90181149104A104B10485
:100A0000A1F460E47DE083E090E00E94A928A701C2
:100A10009601261B370B480B590BCA01B901C3CFEE
:100A200082169306A406B50660F7A501940160E45A
:100A30007DE083E090E00E94A9286C0D7D1D8E1D55
:100A40009F1DB1CFF8CECF93DF9300D01F92CDB7CB
:100A5000DEB71C821B821A821982BE016F5F7F4F34
:100A6000CE0103960E94721F69817A818B819C81DD
:100A70000E94AA18009761F4BE016F5F7F4FCE01FC
:100A800003960E947E1F69817A818B819C8126D585
:100A90000F900F900F900F90DF91CF910895FF92DC
:100AA0000F931F93CF93DF93082F60E070E0CB018B
:100AB0000E94BA23FF24F3940E949317EC01892B20
:100AC00089F010E0CE3F8FEFD80769F0002361F185
:100AD00060E070E0CB010E94BA2381E090E0892BB6
:100AE00059F322C011E01DD5EC01892B21F0CE3F36
:100AF0008FEFD80759F711111EC011E0229609F4A3
:100B000010E00E944317EC01892B21F0CE3F8FEFBC
:100B1000D807E1F6111111C011E0CE3F8FEFD807D1
:100B200009F410E001110BC0CE01DF91CF911F91AC
:100B30000F91FF90089511E0E4CF11E0F3CF60E052
:100B400070E0CB010E94BA231F25812F90E0C7CF10
:100B5000CF93DF931ED6D0E0C0E0892B71F06AE01E
:100B600070E080E090E00E94BA2381E098DF11D627
:100B70002196C03D27E0D20781F710D60E94FE18CB
:100B80001092270310922603109220031092210343
:100B9000109222031092230310921C0310921D0343
:100BA00010921E0310921F03109218031092190343
:100BB00010921A0310921B03109214031092150343
:100BC0001092160310921703109210031092110343
:100BD00010921203109213034EEF5FEF6FEF7FEF4F
:100BE000409300025093010260930202709303024B
:100BF00010920F03E7E0F3E028E0DF011D922A9551
:100C0000E9F7109203031092040310920503109267
:100C100006031092FF02109200031092010310923B
:100C200002031092FB021092FC021092FD0210923D
:100C3000FE021092F7021092F8021092F90210923E
:100C4000FA02DF91CF91089510923303109234038A
:100C500010923503109236031092320380913B03B9
:100C600090913C03909331038093300310922F03B3
:100C700010922E0310922A0310922B0310922C0331
:100C800010922D03109238031092370390E080E009
:100C90000895CF92DF92EF92FF920F931F93CF931D
:100CA0008C01892B09F055C020913B0330913C0306
:100CB000809130039091310340913B0350913C036C
:100CC00050933103409330032817390781F0109275
:100CD0002F0310922E0310922A0310922B031092CE
:100CE0002C0310922D031092380310923703809139
:100CF0003B0390913C03019761F5809137039091FC
:100D00003803892B21F480910402811112C0809153
:100D10003703909138030197E1F480912A03909171
:100D20002B03A0912C03B0912D030197A105B105D0
:100D300081F410922A0310922B0310922C0310922C
:100D40002D031092040282E090E090933803809388
:100D5000370380913B0390913C03019709F01CC13C
:100D600080915103909152038017910709F014C1AB
:100D700080914D0390914E03A0914F03B091500389
:100D8000009709F409C120914C0321110DC0409135
:100D90004D0350914E0360914F0370915003452BCA
:100DA000462B472B09F4F8C02091370330913803C4
:100DB0002230310509F0F0C020912E032111ECC042
:100DC000FC01C080D180E280F380809132038823CF
:100DD00009F4D3C080913E0390913F03892B09F41D
:100DE000FDC020913E0330913F0381E02230310568
:100DF00009F080E020913E0330913F03C1E02130B3
:100E0000310549F020913E0330913F03C1E022308B
:100E1000310509F0C0E0882309F456C02091480349
:100E20003091490340914A0350914B03C701B601E9
:100E30000E94E42287FD14C02091480330914903A9
:100E400040914A0350914B036091330370913403F6
:100E500080913503909136030E94AF2187FD22C017
:100E6000209148033091490340914A0350914B032C
:100E7000C701B6010E94E422181634F520914803F8
:100E80003091490340914A0350914B0360913303E1
:100E90007091340380913503909136030E94AF2105
:100EA000811112C08091400390914103A0914203AF
:100EB000B0914303892B8A2B8B2B19F481E080930B
:100EC0002F0381E080932E03CC2309F456C0209198
:100ED00048033091490340914A0350914B03C701A5
:100EE000B6010E94AF2187FF14C0209148033091C2
:100EF000490340914A0350914B0360913303709131
:100F0000340380913503909136030E94E42287FFD9
:100F100022C0209148033091490340914A035091E7
:100F20004B03C701B6010E94AF21811126C0209159
:100F300048033091490340914A0350914B0360911B
:100F400033037091340380913503909136030E94EE
:100F5000E422181694F48091400390914103A091EB
:100F60004203B0914303892B8A2B8B2B19F481E028
:100F700080932F0381E080932E0381E090912E03D4
:100F8000911180E080933203C0923303D0923403F6
:100F9000E0923503F0923603012B09F067C180918E
:100FA000370390913803892BD9F410923D031092A6
:100FB0002E0380910402882379F082E090E09093E0
:100FC0003803809337031092040220913B03309141
:100FD0003C0381E0232BE9F080E01BC081E00ACFD5
:100FE0001092040280913D03882349F010922F0350
:100FF000109238031092370310923D03EDCF809189
:101000003B0390913C03892BE1F080912E031092D9
:101010002E0320913703309138032230310509F433
:101020005EC088F42115310509F448C0213031052E
:1010300009F4F3C010922F0310922E0310923D0377
:1010400038C081E0E6CF2330310509F4B1C0243047
:10105000310581F740912A0350912B0360912C03B5
:1010600070912D03411551056105710561F04150E5
:1010700051096109710940932A0350932B0360932E
:101080002C0370932D0340912A0350912B03609100
:101090002C0370912D03452B462B472BD9F420911F
:1010A000390330913A032130310509F046C01092DE
:1010B0002F0310923803109237030CC08091040262
:1010C000882341F082E090E09093380380933703C7
:1010D000109204021092280380912F03CEC088231F
:1010E000C9F38091400390914103A0914203B091D4
:1010F0004303181619061A061B060CF07DC08091D2
:101100003B0390913C03019709F076C08091400326
:1011100090914103A0914203B091430380932A032D
:1011200090932B03A0932C03B0932D0383E090E0C6
:101130009093380380933703CDCF4091440350916F
:1011400045036091460370914703452B462B472B7F
:10115000A9F010922F038091440390914503A09130
:101160004603B091470380932A0390932B03A093E7
:101170002C03B0932D0381E090E0DACF882399F01F
:101180008091050290910602A0910702B091080299
:1011900080932A0390932B03A0932C03B0932D03E9
:1011A00084E090E0C5CF10922F0382E090E0C0CFA2
:1011B00080912A0390912B03A0912C03B0912D03D1
:1011C0000097A105B10559F00197A109B1098093D4
:1011D0002A0390932B03A0932C03B0932D038091AB
:1011E0002A0390912B03A0912C03B0912D03892BFE
:1011F0008A2B8B2B09F06ECF80910502909106020D
:10120000A0910702B0910802892B8A2B8B2B09F43D
:101210004ECF81E080932F03B3CF40912A035091AA
:101220002B0360912C0370912D034115510561052D
:10123000710561F0415051096109710940932A0318
:1012400050932B0360932C0370932D0340912A033A
:1012500050912B0360912C0370912D03452B462B4D
:10126000472B09F037CF8111C7CF9FCF809128033B
:10127000882309F431CF80912903CF911F910F91D9
:10128000FF90EF90DF90CF9008951092330310926B
:1012900034031092350310923603109232031092E9
:1012A00038031092370310923103109230031092DA
:1012B00052031092510310922F0310922E0310929A
:1012C0002A0310922B0310922C0310922D031092DC
:1012D00029031092280310924D0310924E0310928E
:1012E0004F031092500310924C0310924803109237
:1012F000490310924A0310924B0388EE93E0A0E05A
:10130000B0E08093050290930602A0930702B09389
:101310000802109244031092450310924603109263
:10132000470310924003109241031092420310921F
:10133000430310923F0310923E0381E08093040226
:1013400010923D0310923C0310923B0310923A031B
:101350001092390390E080E0089580913B039091D2
:101360003C03892B19F580910402882351F0809168
:101370003D03811106C081E08093290380932803F7
:10138000089520913D033091040281E090E03323E1
:1013900011F090E080E030E082239323892B21F04C
:1013A0001092290381E0EACF10922803089582E089
:1013B00090E0FA01918380838FEF9FEF0895CF93A0
:1013C000DF93EA01009711F00E94151A1982188222
:1013D00090E080E0DF91CF910895DB01009719F450
:1013E0008FEF8C9308952EEF2C93FC013F96EF30F6
:1013F000F10508F034C08827EF5FF54F8F4F0C944C
:10140000DA282D0A2B0A290A270A250A210A230A83
:101410001F0A1D0A1B0A180A140A100A160A2F0AA4
:1014200080E311968C93089589E2FBCF82E2F9CF95
:1014300011961C92089583E2F4CF81E2F2CF81E10C
:10144000F0CF87E2EECF8AE2ECCF80E1EACF84E210
:10145000E8CF88E2E6CF86E2E4CF81E3E2CF80E224
:10146000E0CF80915F0390916003089590936003B3
:1014700080935F03089580915E03089590915E03C9
:10148000892B80935E030895982F909580915E0339
:10149000892380935E03089580915D030895809170
:1014A0005B0390915C0308956115710559F0FB0190
:1014B00030E020E070E060E02417350719F0611596
:1014C000710511F0CB010895A081B181A817B9076A
:1014D00009F4BF012F5F3F4F3696EECF8091610335
:1014E00081111CC041D247D290935403809353037F
:1014F0000E9486130E949813909358038093570379
:101500000E94AB160E94B216909356038093550327
:1015100081E08093610390E080E0089584EF9FEF85
:1015200008958F929F92AF92BF92CF92DF92EF92E7
:10153000FF920F931F93CF93DF9300D000D000D082
:101540001F92CDB7DEB71A86198618861F821E82B3
:101550001D821C821B821A8219828091610307EF0F
:101560001FEF882309F48BC08E010D5F1F4F9E0172
:101570002B5F3F4FAE01495F5F4FBE01675F7F4FFB
:1015800090E080E00E942F188C01009721F00596D2
:10159000029708F0C7C089859A85009709F4EFC0C3
:1015A000ED80FE802B813C812E0D3F1D4F815885A3
:1015B0004217530708F4E3C0E80EF91ED7014C9117
:1015C00020915F0330916003232B09F494C0413FC5
:1015D00008F069C08CE1840F8D3008F483C08DE27F
:1015E000840F803108F481C088E3840F8B3008F4C5
:1015F0007FC09DEEC92E99E0D92EE7EDF9E06D810F
:101600007E81AE014F5F5F4F89859A8519955C0198
:10161000C114D104A1F189809A808114910479F1D7
:101620008B819C818815990508F484C010E000E046
:101630004B815C8170E060E0C7010E9404290115C4
:101640001105E9F449815A8169857A858D819E81E8
:10165000680F791FC501F6011995E980FA800D819F
:101660001E812F81388549855A856FEF7FEF81E094
:1016700090E00E94CA178C01892B09F053C0C80161
:101680002A960FB6F894DEBF0FBECDBFDF91CF9183
:101690001F910F91FF90EF90DF90CF90BF90AF9090
:1016A0009F908F90089530E020E0220F331FF901C2
:1016B000ED5AFC4F0190F081E02D309709F499CF5D
:1016C000842F90E01995009709F493CFDC011296CE
:1016D000ED91FC9113971496CD90DC90309709F022
:1016E0008ECF1EC021E030E0E0CF22E030E0DDCF41
:1016F00023E030E0DACFD12CC12CEFEDF9E04F3F01
:1017000009F07DCFE0915303F0915403309719F421
:1017100004EF1FEF0CC08FEF90E019950097B1F622
:1017200004EF1FEF89859A85009709F4A8CF0E94DE
:10173000151AA5CF0E94F9188C0189859A850E94F7
:10174000151A70E060E0C4010E94921898878F8398
:101750000E94C7179E838D836F81788561157105FF
:1017600059F0C8010E94AB1B9A87898706EF1FEFCB
:10177000892B09F05BCF5CCF08EF1FEF59CF08EF43
:101780001FEFD0CF209161032111D7C787EF9FEFC3
:10179000089580915F039091600308950E94B716A9
:1017A0000E941116EDD0E3E5F3E088E0DF011D9221
:1017B0008A95E9F71092610390E080E0089586E051
:1017C00090E0FA019183808390E080E0089547E003
:1017D00050E060E272E068CEDF92EF92FF920F93EA
:1017E0001F93CF93DF938A01EC01C60FD71FE090C0
:1017F0006503F0906603D9800E94E118D816190697
:1018000078F082E090E0F801918380838EEF9FEF83
:10181000DF91CF911F910F91FF90EF90DF9008958E
:10182000EF2841F482E090E0F8019183808384EF17
:101830009FEFEECF89818093640390E00196F801D9
:101840009183808390E080E0E3CFCF93DF93EA0140
:101850000E942515882321F00E94EE180E9426156B
:1018600082E090E0998388838BEF9FEFDF91CF91A7
:101870000895CF93DF93EB0186E0FB0111928A95E7
:10188000E9F78FEF8883F7DD898306DE8A8307DE39
:101890009D838C83DF91CF910895CF93DF93EA01ED
:1018A0000E942815811109C082E090E09983888305
:1018B00085EF9FEFDF91CF91089590E080E0D6DD36
:1018C00081E090E09983888390E080E0F3CF0F93EC
:1018D0001F93CF93DF93EA018C01060F171F0E941D
:1018E000281581110BC082E090E09983888385EFF1
:1018F0009FEFDF91CF911F910F910895F8018181A2
:10190000823038F082E090E0998388838EEF9FEFF9
:10191000F0CF81E090E0AADD88E090E099838883B1
:1019200090E080E0E6CFCF93DF930097D1F4EB0116
:10193000FB01329686E0DF011D928A95E9F78FEF71
:10194000888385E089831A820E94E1188B830E9434
:10195000E0189D838C8381E08E838F83DF91CF910C
:101960000895DF91CF9139CD87EE9BE0909363038B
:1019700080936203089580916203909163030895B8
:101980001092630310926203089580916503909111
:1019900066030895411105C0611571058105910522
:1019A00061F060936503709366038093670390937F
:1019B00068034093690381E0089580E00895FF92F1
:1019C0000F931F93CF93DF938A01EC01C60FD71FAC
:1019D000F9800E94E118F816190668F082E090E09C
:1019E000F801918380838EEF9FEFDF91CF911F915C
:1019F0000F91FF9008956C817D818E819F814B8135
:101A0000C9DF811108C082E090E0F80191838083F2
:101A100084EF9FEFEACF89818093640390E0019681
:101A2000F8019183808390E080E0DFCFCF93DF9354
:101A3000EA01FC01E60FF71F6481758186819781B9
:101A40004381A8DF811109C082E090E099838883F7
:101A500084EF9FEFDF91CF91089581E090E099832B
:101A6000888390E080E0F6CFE5E6F3E040815181A5
:101A700062817381480F511D611D711D4083518327
:101A8000628373830895CF93C09164034C2F50E019
:101A9000609165037091660301960E94FB288C2F6C
:101AA000E3DF10926403CF910895009799F4809139
:101AB0006503909166032FEFFB012083892B59F07A
:101AC0002091640330E02F5F3F4F2417350719F44E
:101AD000CB01D9CF82CC0895009799F4809165030A
:101AE000909166032FEFFB012083892B59F0209101
:101AF000640330E02F5F3F4F2417350719F4CB0103
:101B0000C2CF6BCC08952DE0AC01249FC001259F6E
:101B1000900D1124E0916E03F0916F03E80FF91F0F
:101B2000238134812250310981E02230310508F0CF
:101B300080E008950F931F93CF93DF93009170037C
:101B400010917103D0E0C0E080E00C171D0749F44C
:101B500091E0811190E0892FDF91CF911F910F913A
:101B600008958111F5CFCE01CEDF2196EECFA09161
:101B70006E03B0916F03109729F12091700330919B
:101B8000710382179307F0F45DE0589F9001599F0D
:101B9000300D1124A20FB31FED91FC9111973097D6
:101BA00089F012968C91681768F485E0689FE00DC3
:101BB000F11D112480819181892B21F081E0928196
:101BC000491708F080E00895EF92FF920F931F935A
:101BD000CF93DF93EA01FC01E60FF71F0281138127
:101BE000E480F5804F2D6E2DC801C1DF81110DC03D
:101BF00082E090E0998388838EEF9FEFDF91CF9111
:101C00001F910F91FF90EF900895C8017CDF88230A
:101C100039F082E090E09983888388EF9FEFEECFE0
:101C20001093100200930F02E0921102F092120240
:101C300081E090E09983888390E080E0DFCFCF92CD
:101C4000DF92EF92FF920F931F93CF93DF937A016E
:101C5000EC01C60FD71FC0900F02D0901002009168
:101C6000110210911202412F602FC60180DF8111F5
:101C700010C082E090E0F701918380838AEF9FEFAC
:101C8000DF91CF911F910F91FF90EF90DF90CF9058
:101C90000895C60138DF882341F082E090E0F70123
:101CA0009183808388EF9FEFEBCF4C815D816E81C4
:101CB0007F819A8189818F3F41F082E090E0F70136
:101CC000918380838EEF9FEFDBCFEDE0EC9D900161
:101CD000ED9D300D1124E0916E03F0916F03E20F42
:101CE000F31F0190F081E02D25E0029FE00DF11D32
:101CF00011240190F081E02D27E0129FE00DF11DED
:101D00001124808391838B818283438354836583F1
:101D100076831F5F1093120281E090E0F7019183B8
:101D2000808390E080E0ACCFEF92FF920F931F93FF
:101D3000CF93DF937A018C01060F171FC0916E03BA
:101D4000D0916F03209781F021E030E0F80182818B
:101D5000938140917003509171038417950710F09F
:101D600030E020E0232B71F482E090E0F7019183D2
:101D700080838EEF9FEFDF91CF911F910F91FF90A6
:101D8000EF9008954DE0489F9001499F300D112438
:101D9000C20FD31FB8DE882341F082E090E0F70144
:101DA0009183808388EF9FEFE6CFF801248135810E
:101DB00020383105C8F687818111D6CF4181842F23
:101DC00090E08F7E009741F082E090E0F7019183F0
:101DD000808386EF9FEFCFCF4F833E832D83268175
:101DE00028871986223010F421E0288721E030E08E
:101DF000F70131832083BFCF88E090E0FA0191831F
:101E0000808390E080E00895FB018FEF808381E183
:101E100081838FEF9FEF9383828380E890E09583A7
:101E20008483168217820895FB018FEF808391E0EF
:101E3000918382839383848384E3858381E090E02C
:101E40009783868308954BE050E06AE472E02CCBE0
:101E50008F929F92BF92CF92DF92EF92FF920F9359
:101E60001F93CF93DF93EA01FC01E60FF71F8281F6
:101E700093810481B580E0916E03F0916F033097F8
:101E800091F482E090E0998388838CEF9FEFDF915B
:101E9000CF911F910F91FF90EF90DF90CF90BF9067
:101EA0009F908F9008952091700330917103821755
:101EB000930738F082E090E0998388838EEF9FEF5C
:101EC000E6CF2DE0289F6001299FD00C1124EC0D56
:101ED000FD1DE080F180E114F10499F28281081780
:101EE00048F785E0089F80011124E00EF11EF701FC
:101EF00080819181892B29F6BB20E1F2F7E0BF9E1A
:101F000040011124C4010E94C719F7019183808305
:101F1000E0916E03F0916F03EC0DFD1D0190F081D7
:101F2000E02DE00FF11F80819181009739F482E06C
:101F300090E0998388838DEF9FEFA9CFA40170E093
:101F400060E00E94042980916E0390916F03C80E97
:101F5000D91EF60180819181080F191FF801B28204
:101F600081E090E09983888390E080E090CFAF9209
:101F7000BF92CF92DF92FF920F931F93CF93DF9385
:101F8000EA01FC01E60FF71F82819381F480009142
:101F90006E0310916F030115110581F482E090E04A
:101FA000998388838CEF9FEFDF91CF911F910F91E1
:101FB000FF90DF90CF90BF90AF9008952091700375
:101FC000309171038217930738F082E090E0998393
:101FD00088838EEF9FEFE8CF2FEF2F0D2C3FA8F7D0
:101FE0002DE0289F6001299FD00C11240C0D1D1D90
:101FF000F80180819181892B89F6F5E0FF9E5001DF
:102000001124C5010E94C719F80191838083E091D2
:102010006E03F0916F03EC0DFD1D8081918100979F
:1020200039F482E090E0998388838DEF9FEFBCCFF5
:10203000A50170E060E00E940429E0916E03F09138
:102040006F03EC0DFD1DF28281E090E0998388839F
:1020500090E080E0A9CFCF92DF92EF92FF920F93B2
:102060001F93CF93DF93860F971FFC01028113818B
:1020700080916E0390916F03892B81F082E090E054
:10208000FA01918380838CEF9FEFDF91CF911F91B5
:102090000F91FF90EF90DF90CF900895C801B0E0CE
:1020A000A0E00197A109B1098F3F9F4FA105B1059C
:1020B00040F082E090E0FA01918380838EEF9FEF01
:1020C000E4CF7A018DE0809F6001819FD00C1124C4
:1020D000C6010E94C719EC01009741F482E090E02C
:1020E000F701918380838DEF9FEFCFCFA60170E042
:1020F00060E00E940429D0936F03C0936E03109395
:1021000071030093700390E080E02FEF3FEF8017A2
:10211000910741F481E090E0F7019183808390E0A2
:1021200080E0B3CF3C872B8701962D96F0CFCF92DE
:10213000DF92EF92FF920F931F93CF93DF93EC0107
:10214000D12CC12C10E000E0F12CE12C8A81801709
:10215000110609F0BCF4AE01455F5F4F63E070E02B
:10216000C7010E94411A009721F02FEF3FEF3C87F3
:102170002B87DF91CF911F910F91FF90EF90DF9010
:10218000CF900895E881F981EC0DFD1D2381348104
:10219000C90101960115110519F44F8144FD0496FA
:1021A00061E070E0BFD7E816F90608F47C010F5F24
:1021B0001F4F85E0C80ED11CC9CFF89420916C0345
:1021C00030916D0381E02115310509F080E0232B6A
:1021D00009F0789408954F925F926F927F928F9258
:1021E0009F92AF92BF92CF92DF92EF92FF920F93A6
:1021F0001F93CF93DF933C01660E771EF30182811C
:1022000093814C01B12CA12CC0916E03D0916F032E
:10221000209769F021E030E06091700370917103C4
:102220008617970710F030E020E0232BC1F482E0FE
:1022300090E0FA01918380838EEF9FEFDF91CF9141
:102240001F910F91FF90EF90DF90CF90BF90AF90D4
:102250009F908F907F906F905F904F9008958092A5
:10226000130290921402A0921502B09216026DE031
:10227000689F9001699F300D1124C20FD31FF30195
:102280008181833040F082E090E0FA019183808385
:1022900086EF9FEFD3CF2A012B813C81232BF1F4D2
:1022A000288139819F8191FF2EC0232B09F464C0BE
:1022B000209173039A81422F490F5527551FBA0168
:1022C00041E050E06138710514F050E040E0452BEA
:1022D00009F452C02A87920F909373038150823081
:1022E00008F476C06ADF882309F4C5C0F301818150
:1022F000813009F480C008F470C0823009F4B3C0A2
:1023000090E080E08EC0232BB9F1209172039A8176
:10231000E22FE90FFF27FF1F41E050E0ED3FF105FD
:1023200014F050E040E0452B39F12A87920F90934A
:102330007203D4CFA081B181A20FB31F11966C910B
:10234000060F111D0196295F3F4F8417950794F3DF
:10235000C114D104C9F48F8184FF16C031D721E0A4
:10236000A8014B5F5F4F8417950708F420E0A70191
:102370004B5F5F4F21110EC082E090E0F20191832C
:10238000808387EF9FEF5ACF1BD721E0A8014F5FD3
:102390005F4FE9CF88819981E80EF91EF701148318
:1023A0000383FFEFCF1ADF0A7A018A818C151D049F
:1023B00009F00CF497CFE881F981EE0DFF1D428101
:1023C00050E030E020E010E000E090E080E0BDCFA1
:1023D000F12CE12CD12CC12CE8CF81E090E09C8342
:1023E0008B83A8DB882309F48BCF81E090E03ED873
:1023F00080E44AD885CF8B859C85019651F083E097
:1024000090E09C838B8382E090E030D880E436D8E3
:1024100077CF89288A288B2879F4CE0188DE009727
:1024200071F3789422E030E0F20131832083892B2C
:10243000F9F08DEF9FEF02CF2D813E81809109024F
:1024400090910A0228173907D1F660910D02709118
:102450000E02AE01455F5F4F80910B0290910C021E
:102460000E946A1BDCCF82E090E09C838B8348CF84
:1024700090E080E0E3CE82E090E0F20191838083FF
:1024800085EF9FEFDBCE8F929F92AF92BF92CF925C
:10249000DF92EF92FF920F931F93CF93DF93EA01A6
:1024A0008C01060F171FF8018181833098F082E0BC
:1024B00090E09983888386EF9FEFDF91CF911F9102
:1024C0000F91FF90EF90DF90CF90BF90AF909F90D3
:1024D0008F90089580916E0390916F03892B61F026
:1024E00081E090E02091700330917103232B11F46F
:1024F00090E080E0892B39F482E090E09983888332
:102500008EEF9FEFDACF59DE882309F4D5C0F801AA
:102510008181813009F48BC0E8F0823099F42091F8
:10252000700330917103E0916E03F0916F0390E0BE
:1025300080E041E050E02817390709F0B3C0FADA2B
:10254000811117C0789481E090E09983888390E0AE
:1025500080E0B3CF2091700330917103E0916E035E
:10256000F0916F0390E080E041E050E028173907D8
:1025700041F481E090E00E94360A80E40E94440A1F
:10258000E1CF63817481672B11F0548343830196FB
:102590003D96ECCFE0916E03F0916F03E00FF11FD9
:1025A000238134812230310561F4238534852F3F26
:1025B0003F4F39F4C114D104E104F10409F5CF010E
:1025C000B6DDEFEFCE1ADE0AEE0AFE0A035F1F4FFA
:1025D000409170035091710370E060E0C416D5061D
:1025E000E606F70664F50097A9F27894892B09F4BA
:1025F000AACF82E090E0998388838DEF9FEF5DCF33
:10260000458156812091090230910A0242175307F1
:10261000C1F6AF01455F5F4F60910D0270910E02F0
:1026200080910B0290910C020E946A1BCACF10E0AD
:1026300000E090E080E0C12CD12C7601C9CF00975A
:10264000A1F610E000E0812C912C540183E0E82EEB
:10265000F12C1AC0E0916E03F0916F03E00FF11FAF
:1026600083819481029749F4F482E38282E090E0CE
:102670000E94360A80E40E943E0AFFEF8F1A9F0AEA
:10268000AF0ABF0A035F1F4F8091700390917103DF
:10269000B0E0A0E088169906AA06BB06DCF290E03E
:1026A00080E0A3CF638174816230710511F454839B
:1026B000438301963D963FCF82E090E099838883E3
:1026C00085EF9FEFFACE0097B9F48FEFFB0180837F
:1026D00020911302309114024DE0429FC001439FAC
:1026E000900D1124E0916E03F0916F03E80FF91F34
:1026F0008285FB01818308950C94ED0988E090E0C8
:10270000FA019183808390E080E0089510926D0338
:1027100010926C03EEE6F3E086E0DF011D928A95ED
:10272000E9F783E29FE090936B0380936A03089537
:1027300080916A0390916B0308952F923F924F927C
:102740005F926F927F928F929F92AF92BF92CF9241
:10275000DF92EF92FF920F931F93CF93DF93CDB74A
:10276000DEB762970FB6F894DEBF0FBECDBFF89408
:1027700020916C0330916D032F5F3F4F30936D03B9
:1027800020936C03789420916E0330916F033B8308
:102790002A83232B09F456C12091700330917103D1
:1027A000232B09F44FC14D875E876F87788B9C87F9
:1027B0008B878A819B819A8B898BD12CC12C198222
:1027C00010E000E08091700390917103C816D90663
:1027D00018F43981332329F1F89480916C03909196
:1027E0006D03019790936D0380936C037894C801F7
:1027F00062960FB6F894DEBF0FBECDBFDF91CF91CA
:102800001F910F91FF90EF90DF90CF90BF90AF900E
:102810009F908F907F906F905F904F903F902F9000
:102820000895B60190E080E029D38887A989BA8904
:1028300017968C91179781FD8DC013968D919C9161
:102840001497039709F086C01596ED91FC91FF83CC
:10285000EE832B853C85E217F30709F07BC0712CD2
:10286000612C512C412C63C092D39A87898710E048
:102870004114510431F4A989BA8917961C91129513
:102880001170A989BA89ED91FC91E60DF71D23809D
:102890003480111169C0BFEF2B1A3B0A61E070E070
:1028A000C10140D45C01A989BA891B968D919C9184
:1028B0008F3F980709F45CC0B5014DD74C010097D4
:1028C00009F4BBC0E985FA85E80FF91FA989BA891F
:1028D0001A968C91840D808311114DC08F010F5F6A
:1028E0001F4F8091090290910A02AE81BF81A81703
:1028F000B90709F09DC081E090E0B885BB2311F0D5
:1029000090E080E0710109851A859501A401B60166
:102910009195819591093ED38C01892B11F0C401C9
:1029200084D58FEF481A580A95E0690E711CA98961
:10293000BA8912968C918415150429F024F0B98176
:10294000BB2309F491CFE885EE2321F0B60190E096
:1029500080E096D2FFEFCF1ADF0A29893A89235FF8
:102960003F4F3A8B298B2ECFE5E02E0E311C96CFB0
:10297000C5010DD5A3CF8D859E85AF85B88981838F
:102980009283A383B4838F010B5F1F4FAACFE08094
:10299000F180EC81FD81EE0EFF1ED70113966D9143
:1029A0007C9114978C918F3FE1F1E1E0F0E002C05F
:1029B000EE0FFF1F8A95E2F7CF01092E000CAA0B3C
:1029C000BB0BFB014081518162817381842395237C
:1029D000A623B72321E0892B8A2B8B2B09F420E037
:1029E000D8012C93D70111968C91080F111DEA8103
:1029F000FB813196FB83EA832C813D81295F3F4F28
:102A00003D832C83A989BA89ED91FC91E60DF71DD0
:102A100082812A813B818217130611F00CF0B7CF17
:102A20006ACFF701418150E0C8010E94FB28DACF4C
:102A30001D821C821B821A82E5CF31E0398306EFAA
:102A40001FEF6FCF10E000E0C7CEB7CB78940895AA
:102A50002F923F924F925F926F927F929F92AF928E
:102A6000BF92CF92DF92EF92FF920F931F93CF937B
:102A7000DF9300D000D0CDB7DEB700916E03109188
:102A80006F03992493940115110509F43EC0A09099
:102A90007003B090710391DB982E8823B1F11092EE
:102AA0006F0310926E0310927103109270031092D4
:102AB0007203109273038FEF9FEFDC018093130278
:102AC00090931402A0931502B093160278947AD3CF
:102AD0001E830D83C12CD12C7601C501B0E0A0E08E
:102AE00089839A83AB83BC8322242A94322C8981E4
:102AF0009A81AB81BC81C816D906EA06FB06F4F0C0
:102B0000C80193D480E40E94440A892D26960FB60A
:102B1000F894DEBF0FBECDBFDF91CF911F910F9113
:102B2000FF90EF90DF90CF90BF90AF909F907F90FD
:102B30006F905F904F903F902F900895C114D104F3
:102B4000E104F10409F5D8011B968D919C918F3F0A
:102B5000980709F040D5F80134862386ED81FE817F
:102B600080819181B12CA12C412C512C3201892BD7
:102B700069F5BFEFCB1ADB0AEB0AFB0AED81FE8198
:102B80003D96FE83ED83B3CFAD81BE8115962D9129
:102B90003C9116978091090290910A0228173907F3
:102BA000E9F61B968D919C91C4D5D8CF8A0D9B1DBB
:102BB000DC018D919C91009709F037D4BFEF4B1A3F
:102BC0005B0A6B0A7B0AE5E0AE0EB11CAD81BE81EB
:102BD0008D919C91119712964C9150E070E060E0BD
:102BE00044165506660677060CF31FD4C2CFCF9362
:102BF000DF93EA012DDF811109C082E090E0998323
:102C0000888385EF9FEFDF91CF91089581E090E079
:102C10000E94360A81E090E09983888390E080E00A
:102C2000F2CF16DF10926B0310926A03089542E010
:102C300050E06CE872E00C94540AFF920F931F93DB
:102C4000CF93DF938A01EC01C60FD71FF980B9D269
:102C50000897F816190671F068F082E090E0F80124
:102C6000918380838EEF9FEFDF91CF911F910F9122
:102C7000FF9008956C817D818E819F814B810E94A0
:102C8000CA0C811108C082E090E0F8019183808332
:102C900084EF9FEFE9CFF9800E94C50C4F2D50E0E3
:102CA000BE01685F7F4F0E94FB2889810E94340D1E
:102CB00081E090E0F8019183808390E080E0D4CFC0
:102CC000DF92EF92FF920F931F93CF93DF938A01CE
:102CD000EC01C60FD71F0E94C50C7C01D98071D2B0
:102CE000DD2059F0029721E030E0D816190619F0DE
:102CF00010F030E020E0232B79F482E090E0F8013E
:102D0000918380838EEF9FEFDF91CF911F910F9181
:102D1000FF90EF90DF900895EF2841F482E090E07B
:102D2000F8019183808384EF9FEFEECFF9800E94BA
:102D3000C50C4F2D50E0BE016E5F7F4F0E94FB28F7
:102D400089810E94340D81E090E0F80191838083B5
:102D500090E080E0D9CF87E196E19093750380936E
:102D600074030895809174039091750308950895F4
:102D7000FC0111821082938382830895DB011D92EE
:102D80001C92DC011296ED91FC9113977183608384
:102D900013967C936E9312970895FC018081918124
:102DA000DB018D939C93A081B181109741F08D91AF
:102DB0009C9191838083892B11F4F383E28308959E
:102DC000FC0180819181DB018D939C93892B11F40F
:102DD00073836283718360830895FC011182108282
:102DE000938382830895CF93DF931F921F92CDB771
:102DF000DEB71A821982F894BE016F5F7F4F8BE7AE
:102E000093E0CBDF89819A81009709F00ED3898105
:102E10009A81892B89F7BE016F5F7F4F8FE793E01F
:102E2000BCDF89819A81009709F0FFD289819A815C
:102E3000892B89F778940F900F90DF91CF910895A7
:102E4000CF93DF931F921F92CDB7DEB71A821982FC
:102E5000F894BE016F5F7F4F87E793E09EDF898123
:102E60009A81009709F0E1D289819A81892B89F7AB
:102E700078940F900F90DF91CF91089581E008959D
:102E800090E080E00895EF92FF920F931F93CF930D
:102E9000DF931F921F92CDB7DEB71A8219828091FD
:102EA000760307EF1FEF8823A1F1F894BE016F5F4F
:102EB0007F4F8FE793E071DF789489819A81EE24C8
:102EC000E394F12C892B51F4F894BE016F5F7F4F8E
:102ED0008BE793E062DF7894F12CE12C89819A8171
:102EE0000EEF1FEF0097A9F0FC014281538164E0CF
:102EF00070E02CD68C01892B61F0F89469817A817D
:102F0000C701880F991F880F991F85589C4F58DF5C
:102F10007894C8010F900F90DF91CF911F910F917E
:102F2000FF90EF9008950F931F93CF93DF9300D0FE
:102F30001F92CDB7DEB71C821B821A821982809144
:102F4000760307EF1FEF8823C1F0AE014D5F5F4F9F
:102F500064E070E0CE0101966CD68C01892B69F497
:102F6000E981FA818B819C8193838283F8946981C2
:102F70007A8187E793E002DF7894C8010F900F9081
:102F80000F900F90DF91CF911F910F91089571D7FE
:102F9000049608958F929F92AF92BF92CF92DF9244
:102FA000EF92FF920F931F93CF93DF931F921F9285
:102FB000CDB7DEB71A821982BC016F5F7F4F6330D5
:102FC000710598F0AA24AA94BA2CC5010F900F900D
:102FD000DF91CF911F910F91FF90EF90DF90CF90F5
:102FE000BF90AF909F908F9008954115510551F378
:102FF000480159018A016C01CADF8815990511F74A
:10300000E114F104F9F28E0D9F1DA816B906D0F255
:10301000809176038823F1F0F894B501645071092A
:103020009701AE014F5F5F4FC801049697D65C01D0
:10303000892B71F489819A81F80193838283C60177
:10304000880F991F880F991FB80185589C4F96DEED
:103050007894BBCF87EFA82EBB24BA94B6CFAF929B
:10306000BF92CF92DF92EF92FF920F931F93CF9375
:10307000DF931F921F92CDB7DEB71A821982892B78
:1030800009F047C06115710509F443C041155105A8
:1030900009F43FC02115310509F43BC001151105A4
:1030A000C1F1809176038823B9F179016A015B014E
:1030B000F894BE016F5F7F4F87E793E06EDE7894F0
:1030C00089819A81009759F1DC0112966D917C916A
:1030D000A80104965CD68C01E981FA81D501ED93B3
:1030E000FC93828193810496F601918380834FDF64
:1030F000D7018D939C93C8010F900F90DF91CF91D2
:103100001F910F91FF90EF90DF90CF90BF90AF9005
:1031100008950FEF1FEFEFCF07EF1FEFECCF0EEF8C
:103120001FEFE9CFCF93DF93EC01672B71F4AAD6A1
:103130008C179D0760F09DD62496C80FD91F9CD68A
:103140008C0F9D1FDF91CF91089599D6F1CF90E01C
:1031500080E0F8CF0F931F93CF93DF9320917603F6
:1031600021112BC08B01EC018BE793E001DE8FE78F
:1031700093E0FEDD87E793E0FBDD86D00097C1F4A6
:1031800081D670E060E0CEDF47E152E062E070E0BF
:1031900078D1009769F4809117029091180284D633
:1031A000B801CE01B9D4009719F421E02093760339
:1031B000DF91CF911F910F91089584EF9FEFF8CF8A
:1031C0005EC660C6CF93DF9360D6EC01892B11F405
:1031D0000ADE36DECE01DF91CF910895CF93DF93E3
:1031E00054D6EC01892B09F4FEDDCE01DF91CF919D
:1031F000089580911702909118020895CF93DF935C
:1032000080917603D0E0C0E08823D1F052D6EC0163
:10321000892BB1F4E8DD14DE809117029091180239
:10322000DAD1E9D2EC01892B59F48BE793E0D5DDB3
:103230008FE793E0D2DD87E793E0CFDD109276034E
:10324000CE01DF91CF910895CF93DF930097A1F442
:10325000DF91CF910895EC011A821982A8833097EB
:1032600011F0928381832F5F3F4FFC01860F971FE0
:103270004217530781F7ECCF30E020E0F0E0E0E0C8
:10328000AFEF6F5F7F4FF4CFCF92DF92EF92FF925D
:103290000F931F93CF93DF9303E714E00C7F88E92C
:1032A000E82E82E0F82E9EE9C92E92E0D92EC2EBDC
:1032B000D4E0D7014D915D917D01F601619171914D
:1032C0006F01198308835D834C835B834A837F830B
:1032D0006E839B012F5F3F4F249FC001259F900D60
:1032E000349F900D112499878887C801ADDF8885A8
:1032F0009985080F191F2A96FEE9EF16F2E0FF06DE
:10330000C1F6E5E8F3E08BEEDF011D928A95E9F75F
:1033100010928403109283031092D1041092D0046F
:103320001092D5041092D4041092D3041092D204B7
:103330001092D7041092D6041092D9041092D80497
:103340001092DB041092DA041092DF041092DE0473
:103350001092DD041092DC041092E1041092E0045B
:103360001092E3041092E2041092AF041092AE04A3
:103370001092B1041092B00490E080E0DF91CF9100
:103380001F910F91FF90EF90DF90CF9008950097DD
:1033900099F1F8948930910550F48091B40490919A
:1033A000B504892B39F020E090E080E018C081312D
:1033B000910550F48091BE049091BF04892B31F0A7
:1033C00021E081E090E00BC08197A8F48091C804CF
:1033D0009091C904892B79F022E082E090E0EAE044
:1033E000E89FD001E99FB00D1124AE54BB4F8D91E1
:1033F0009C91009721F4789490E080E00895E29FFA
:10340000F0011124EE54FB4FDC0111964D915C91BB
:1034100051834083428153814150510953834283F8
:10342000FC012193CF0178940895009749F1DC01C4
:103430008E91853041F4E091B004F091B104309761
:10344000F9F0CD0119948530D8F4282F30E0F894A4
:103450008FEF8C938AE0829FF001839FF00D1124FF
:10346000EE54FB4F8081918112969C938E9311971D
:10347000B183A08382819381019693838283789420
:103480000895CF92DF92EF92FF920F931F93CF9305
:10349000DF939C0188E893E08C7F4115510509F486
:1034A00097C02115310509F493C06115710509F420
:1034B0008FC07A01AB01B9016D5F7F4F6C7F9B01BB
:1034C0002F5F3F4F249F8001259F100D349F100DCB
:1034D0001124F8942091D0043091D104232B59F475
:1034E0002091D8043091D9042115310569F12017B4
:1034F000310708F056C02091DA043091DB04232B09
:1035000091F42091D8043091D904820F931F209117
:10351000E2043091E3042115310509F43FC020177E
:10352000310708F052C07894CFEFDFEF86EF9FEFBE
:10353000F701D183C083DF91CF911F910F91FF904D
:10354000EF90DF90CF900895C3E0D0E0C090830368
:10355000D090840328EE30E02C193D092017310764
:1035600010F32AE02C9FF0012D9FF00D1124EE5452
:10357000FB4F9183808355834483538342837783B6
:1035800066831187008760DE0C0D1D1D1093840378
:1035900000938303789490E080E0CACFC4E0D0E049
:1035A000D5CFC3E0D0E02AE02C9FF0012D9FF00D95
:1035B0001124EE54FB4F91838083558344835383BE
:1035C00042837783668340DEE5CFC4E0D0E0EBCF73
:1035D0008FEF9FEFB0CFFF920F931F93CF93DF93A7
:1035E0009C01235031092230310508F070C0EC01F4
:1035F000F89484E09AE09C9FD0019D9FB00D112427
:10360000A654BB4F082F10E0909FF001919FF00D42
:103610001124EE54FB4F20813181C017D10714F1E2
:10362000FF24F394232B41F52AE0209FF001219FF2
:10363000F00D1124EE54FB4F80918303909184038D
:1036400040855185841B950B90938403809383035D
:103650002C9FF0012D9FF00D1124EE54FB4F11868D
:1036600010861CC0232B39F42D913C911197232BEC
:10367000A9F48150C7CFF12C8AE08C9FF0018D9F77
:10368000F00D1124EE54FB4F4085518570E060E051
:10369000808191810E940429F110C6CF8AE08C9F1D
:1036A000F0018D9FF00D1124EE54FB4F118210821A
:1036B000158214821382128217821682789490E007
:1036C00080E0DF91CF911F910F91FF9008958FEFD0
:1036D0009FEFF7CF4115510549F1009739F1611579
:1036E000710521F1F8942091AE043091AF04232BA1
:1036F000B9F42091B0043091B104232B89F4909354
:10370000AF048093AE047093B1046093B0047894D6
:1037100025E030E090E080E0FA01318320830895D5
:1037200078942FEF3FEF86EF9FEFF6CF8FEF9FEF6D
:103730000895059769F4F8941092AF041092AE04BE
:103740001092B1041092B004789490E080E0089553
:103750008FEF9FEF08956115710519F4F0E0E0E037
:1037600011C08530910581F4E091AE04F091AF0471
:103770003097A1F3CB0101961995009779F3FC01DD
:1037800085E08193CF0108959C01235031092230B7
:10379000310520F72AE0289FD001299FB00D112480
:1037A000AE54BB4F2D913C911197232BB9F2169635
:1037B0002D913C9117972617370780F2F8941296AF
:1037C0002D913C9113972115310529F0ED91FC9134
:1037D0001197309711F47894C1CF4181528111969D
:1037E0005C934E932150310913963C932E9312977C
:1037F00081937894C7CFE0E7F4E08EE3DF011D9278
:103800008A95E9F7E5E8F3E08BEEDF011D928A95F2
:10381000E9F71092840310928303E2EBF4E082E371
:10382000DF011D928A95E9F7EEEAF4E084E0DF011A
:103830001D928A95E9F790E080E00895CF93DF9399
:10384000C0911902D0911A02CF3FDC0759F4DCD3A2
:1038500090931A028093190297FF09C0D0931A021D
:10386000C093190284EF9FEFDF91CF91089590E00C
:1038700080E0FACF8230910528F48093E40490E050
:1038800080E008958FEF9FEF08954F925F926F92BF
:103890007F92AF92BF92CF92DF92EF92FF920F93FF
:1038A0001F93CF93DF931F921F92CDB7DEB71A827B
:1038B0001982009709F478C06115710509F474C084
:1038C0002091190230911A0207EF1FEF2F3F3F4F4F
:1038D00009F444C06B015C01412C512C3201F12CE4
:1038E000E12C10E000E09E012F5F3F4FA6014E1932
:1038F0005F09B5016E0D7F1D8091190290911A022A
:10390000E1D3892B09F04AC089819A81009741F45B
:10391000E114F10429F42091E404222309F441C0C4
:10392000E80EF91EEC14FD04C8F480E8481684E89B
:1039300058068EE16806710418F560E070E0CB016E
:1039400019D72AE0420E511C611C711C0A3F4FEF2F
:10395000140721F0043F8FEF1807A1F4C8010F905E
:103960000F90DF91CF911F910F91FF90EF90DF901B
:10397000CF90BF90AF907F906F905F904F900895E1
:1039800001EF1FEF81E090E0013F2FEF120711F0F0
:1039900090E080E0892B09F4A6CFE0CF04EF1FEF81
:1039A000DDCF0AEF1FEFDACF0FEF1FEFD7CF4F9228
:1039B0005F926F927F92AF92BF92CF92DF92EF921F
:1039C000FF920F931F93CF93DF931F921F92CDB758
:1039D000DEB71A821982009709F478C06115710563
:1039E00009F474C02091190230911A0207EF1FEFF9
:1039F0002F3F3F4F09F444C06B015C01412C512C17
:103A00003201F12CE12C10E000E09E012F5F3F4FCE
:103A1000A6014E195F09B5016E0D7F1D8091190237
:103A200090911A0205D3892B09F04AC089819A81A5
:103A3000009741F4E114F10429F42091E4042223D5
:103A400009F441C0E80EF91EEC14FD04C8F480E846
:103A5000481686E9580688E96806710418F560E09A
:103A600070E0CB0187D62AE0420E511C611C711C0C
:103A70000E3F4FEF140721F0043F8FEF1807A1F41A
:103A8000C8010F900F90DF91CF911F910F91FF9080
:103A9000EF90DF90CF90BF90AF907F906F905F904E
:103AA0004F90089502EF1FEF81E090E0023F2FEF6B
:103AB000120711F090E080E0892B09F4A6CFE0CF47
:103AC00004EF1FEFDDCF0EEF1FEFDACF0FEF1FEF89
:103AD000D7CF8091190290911A028F3F980749F031
:103AE0008BD2892B49F48FEF9FEF90931A0280932A
:103AF000190290E080E0089584EF9FEF0895FC01A3
:103B0000680F791F90E080E0E617F70709F4089541
:103B10002191820F911DF8CF2091E504211113C04E
:103B20008DDE009791F41092EB041092EA0410924B
:103B3000E9041092E8041092E7041092E60421E0F0
:103B40002093E504089584EF9FEF0895AF92BF920C
:103B5000CF92DF92EF92FF920F931F93CF93DF9359
:103B6000009709F460C04630510508F45CC020910C
:103B7000E504C7EFDFEF222309F449C08C01060FEB
:103B8000171FF801C080D180C114D10409F44EC0C0
:103B900096012A5F3F4F4217530708F447C07C0144
:103BA0008091EA049091EB0493838283B6016C5F69
:103BB0007F4F5801A60EB71EC801A1DFF501918302
:103BC000808364E070E0C80160DEEC01892BF9F4C9
:103BD00081E090E04FDEB601C801049656DEEC01AC
:103BE000892B91F462E070E0C5014FDEEC01892B76
:103BF00059F4C7011ADC8091EA049091EB04019614
:103C00009093EB048093EA0490E080E033DECE01F1
:103C1000DF91CF911F910F91FF90EF90DF90CF90A8
:103C2000BF90AF900895CFEFDFEFF1CFC9EFDFEF97
:103C3000EECF6F927F928F929F92AF92BF92CF9270
:103C4000DF92EF92FF920F931F93CF93DF9300D0F9
:103C50001F92CDB7DEB7009709F47AC04115510520
:103C600009F476C02091E50407EF1FEF222309F441
:103C70004DC03A017B015C0164E070E0CE01019629
:103C800096DE8C01892B09F041C009811A8101154A
:103C9000110509F45AC0480186E0880E911CB7014D
:103CA000680D791D80911B0290911C0254DD6C01FE
:103CB000009709F450C0A70170E060E00E94042959
:103CC00089819A81AB81BC81EC0CFD1CF701819349
:103CD0009193A193B1937F0181E090E0CBDDB80196
:103CE000C70165DE892B31F562E070E0C701800F06
:103CF000911F5DDE8C01892BE9F490E080E0BADD54
:103D0000F501D182C082F30191828082C8010F90B7
:103D10000F900F900F90DF91CF911F910F91FF9017
:103D2000EF90DF90CF90BF90AF909F908F907F905B
:103D30006F90089590E080E09DDDF5011182108282
:103D4000F30111821082C60170DB09EF1FEFDECF95
:103D50000FEF1FEFDBCF06EF1FEFD8CF0097A1F0DB
:103D60004115510589F02115310571F0F90136969B
:103D70006E177F0748F0DC012D933C93DA01ED9339
:103D8000FC9390E080E008958FEF9FEF0895AF924D
:103D9000BF92CF92DF92EF92FF920F931F93CF9338
:103DA000DF93009709F45FC04115510509F45BC02A
:103DB0006530710508F457C02091E504C7EFDFEFC7
:103DC000222391F1DC01CD90DC9011971296ED91B8
:103DD000FC9196012A5F3F4FC9EFDFEF26173707A7
:103DE00019F5C091E604D091E704209749F521E048
:103DF00030E03093E7042093E6047A018C01F093DD
:103E0000E904E093E8045601B4E0AB0EB11CB5013F
:103E100076DE0A0D1B1DF801208131818217930780
:103E200029F5D701CD92DC92CE01DF91CF911F9180
:103E30000F91FF90EF90DF90CF90BF90AF900895DB
:103E40002091E8043091E9042F5F3F4FCCEFDFEF82
:103E5000E217F30790F2CBEFDFEF2E173F0768F280
:103E6000D0E0C0E0CACFCFEFDFEFDECFC3EFDFEFB0
:103E7000DBCF84E090E0089582E090E008958CEF3D
:103E80009FEF089580E290E008951092EB04109265
:103E9000EA041092E9041092E8041092E7041092E8
:103EA000E60490E080E0089590931C0280931B024A
:103EB00008958091E504882391F00BDE009789F442
:103EC0001092EB041092EA041092E9041092E804B4
:103ED0001092E7041092E6041092E504089590E031
:103EE00080E00895009749F06115710531F0FC01FB
:103EF00011821082FB01118210820895F3CF40E8F5
:103F000055E260E070E090E080E000C08130910513
:103F100071F01CF4892B39F008958230910559F025
:103F2000039769F0089526E089EF94E054C626E0EF
:103F300086E995E0FBCF26E083E396E0F7CF26E025
:103F400080ED96E0F3CF1F920F920FB60F921124DF
:103F50000BB60F922F933F934F935F936F937F9383
:103F60008F939F93AF93BF93EF93FF938BEC93EF5C
:103F70009093250180932401B9D0FF91EF91BF91D7
:103F8000AF919F918F917F916F915F914F913F91F1
:103F90002F910F900BBE0F900FBE0F901F90189592
:103FA0008BEC93EF9093250180932401A3E7B0E07D
:103FB0008C918E7F8C93E0E2F1E080818C7F808316
:103FC000E1E2F1E08081877E80838081856080836B
:103FD00080818D7F80838C9181608C930895E3E74D
:103FE000F0E0808190819E7F90838170089581E0D0
:103FF00008951092EC04089568EE73E080E090E07C
:10400000B9D390E080E0089526E040E050E16EE012
:1040100070E089EF94E0DFD589EF94E012D5892B29
:1040200021F089EF94E027D5F7CF90E080E0089564
:10403000CF92DF92EF92FF920F931F93CF93DF9374
:104040006B017A01E9011982188289EF94E0F9D4B1
:10405000892B69F18601CC24C39482E0D82E80910B
:10406000EC04811110C089EF94E005D50297B9F7EF
:10407000C092EC04F801D1928F0188819981019658
:1040800099838883ECCF888199818E159F0578F478
:1040900089EF94E0F0D48F3F9807A9F3F80181935A
:1040A0008F0188819981019699838883ECCF90E074
:1040B00080E0DF91CF911F910F91FF90EF90DF9003
:1040C000CF9008950F931F93CF93DF93EA01890157
:1040D00089EF94E00E947B28F801D183C08390E0AF
:1040E00080E0DF91CF911F910F910895CF92DF92E1
:1040F000EF92FF92CF93DF938091ED0491E0980FC0
:104100009093ED04882379F021E030E03093EF04C0
:104110002093EE048093ED04DF91CF91FF90EF9018
:10412000DF90CF9008957894C0911E02D0911F0225
:104130006E8D7F8D88A199A142D120E030E040E8CA
:104140005FE446D26B017C016A8D7B8D8C8D9D8DE9
:1041500036D19B01AC01C701B6018AD004D16B01F5
:104160007C010E940103B701A60190E080E00E945B
:104170003102F8948091ED048150CCCFCF93DF933E
:1041800010927707109276072BD3B9DEC0911E02EA
:10419000D0911F02198218826FEF7FEFCB010E942E
:1041A000A70270E060E090E080E00E943A01009792
:1041B000A9F50E949F03F8947894BE016A5D7F4F31
:1041C0008A819B810E943D01892B59F46FEF7FEF1B
:1041D000CB010E94C8010E94A102882311F081E056
:1041E0008AA7F894DDDE0E94A402811104C00E9417
:1041F000A10291E0811190E09093760778940E945B
:10420000310AEC0178948091760781110AC00E94EE
:1042100013040E948A02F89490E080E0DF91CF912D
:1042200008950E9488020E94A40291E0811106C0B4
:104230000E94A10291E0811101C090E09093770764
:104240009091770781E0911180E0809376078091CB
:1042500077078111C4DE219729F40E94310A892B46
:1042600009F4C7DE0E94310AEC01C1DECCCF505800
:10427000BB27AA270ED057C148D130F04DD120F02E
:1042800031F49F3F11F41EF43DC10EF4E095E7FBBD
:104290000AC1E92F59D180F3BA176207730784075F
:1042A000950718F071F49EF588C10EF4E0950B2E79
:1042B000BA2FA02D0B01B90190010C01CA01A00178
:1042C0001124FF27591B99F0593F50F4503E68F1D3
:1042D0001A16F040A22F232F342F4427585FF3CF14
:1042E000469537952795A795F0405395C9F77EF4E5
:1042F0001F16BA0B620B730B840BBAF09150A1F02E
:10430000FF0FBB1F661F771F881FC2F70EC0BA0FB3
:10431000621F731F841F48F4879577956795B7953B
:10432000F7959E3F08F0B3CF9395880F08F0992733
:10433000EE0F97958795089529D180F09F3740F427
:1043400091110EF43BC160E070E080E89FE30895B6
:1043500026F01B16611D711D811DABC0C5C07FD02D
:1043600008F481E00895F8D088F09F5790F0B92FB5
:104370009927B751A0F0D1F0660F771F881F991FBA
:104380001AF0BA95C9F712C0B13081F016D1B1E078
:10439000089513C1672F782F8827B85F39F0B93F88
:1043A000CCF3869577956795B395D9F73EF49095BC
:1043B0008095709561957F4F8F4F9F4F0895E8943A
:1043C00009C097FB3EF490958095709561957F4F5D
:1043D0008F4F9F4F9923A9F0F92F96E9BB2793950B
:1043E000F695879577956795B795F111F8CFFAF41B
:1043F000BB0F11F460FF1BC06F5F7F4F8F4F9F4F4C
:1044000016C0882311F096E911C0772321F09EE8A9
:10441000872F762F05C0662371F096E8862F70E00F
:1044200060E02AF09A95660F771F881FDAF7880FE9
:104430009695879597F90895A9D080F09F3740F415
:1044400091110EF0BBC060E070E080E89FEB089532
:1044500026F41B16611D711D811D2BC045C0990FCF
:104460000008550FAA0BE0E8FEEF16161706E8073E
:10447000F907C0F012161306E407F50798F0621B5F
:10448000730B840B950B39F40A2661F0232B242B34
:10449000252B21F408950A2609F4A140A6958FEF53
:1044A000811D811D089597F99F6780E870E060E0A5
:1044B0000895882371F4772321F09850872B762F65
:1044C00007C0662311F499270DC09051862B70E028
:1044D00060E02AF09A95660F771F881FDAF7880F39
:1044E0009695879597F908959F3F31F0915020F464
:1044F000879577956795B795880F911D96958795C0
:1045000097F908959FEF80EC089500240A941616F9
:10451000170618060906089500240A9412161306B1
:10452000140605060895092E0394000C11F488233F
:1045300052F0BB0F40F4BF2B11F460FF04C06F5F5B
:104540007F4F8F4F9F4F089557FD9058440F551F31
:1045500059F05F3F71F04795880F97FB991F61F005
:104560009F3F79F087950895121613061406551F7C
:10457000F2CF4695F1DF08C0161617061806991FE8
:10458000F1CF86957105610508940895E5DFA0F0E7
:10459000BEE7B91788F4BB279F3860F41616B11D23
:1045A000672F782F8827985FF7CF8695779567953F
:1045B000B11D93959639C8F30895E894BB276627F3
:1045C0007727CB0197F908954ADF08F48FEF089514
:1045D0000BD0A9CF9ADF28F09FDF18F0952309F0C0
:1045E00062CF90CF1124EACFAFDFA0F3959FD1F334
:1045F000950F50E0551F629FF001729FBB27F00D91
:10460000B11D639FAA27F00DB11DAA1F649F6627E5
:10461000B00DA11D661F829F2227B00DA11D621F34
:10462000739FB00DA11D621F839FA00D611D221FEE
:10463000749F3327A00D611D231F849F600D211DD2
:10464000822F762F6A2F11249F5750408AF0E1F075
:1046500088234AF0EE0FFF1FBB1F661F771F881FBE
:1046600091505040A9F79E3F510570F01CCFA6CF46
:104670005F3FECF3983EDCF3869577956795B795A9
:10468000F795E7959F5FC1F7FE2B880F911D9695D3
:10469000879597F908951F920F920FB60F921124E4
:1046A0002F933F938F939F93AF93BF938091F10488
:1046B0009091F204A091F304B091F4043091F004CD
:1046C00023E0230F2D3758F50196A11DB11D20932E
:1046D000F0048093F1049093F204A093F304B09358
:1046E000F4048091F5049091F604A091F704B09140
:1046F000F8040196A11DB11D8093F5049093F60472
:10470000A093F704B093F804BF91AF919F918F915C
:104710003F912F910F900FBE0F901F90189526E894
:10472000230F0296A11DB11DD2CF3FB7F8948091FF
:10473000F5049091F604A091F704B091F80426B521
:10474000A89B05C02F3F19F00196A11DB11D3FBFC9
:10475000BA2FA92F982F8827BC01CD01620F711D98
:10476000811D911D42E0660F771F881F991F4A9592
:10477000D1F708958F929F92AF92BF92CF92DF921E
:10478000EF92FF926B017C01D0DF4B015C01C11401
:10479000D104E104F104D9F0DBD4C7DF6819790949
:1047A0008A099B09683E73408105910580F321E0E9
:1047B000C21AD108E108F10888EE880E83E0981E3D
:1047C000A11CB11CC114D104E104F10431F7FF9024
:1047D000EF90DF90CF90BF90AF909F908F90089513
:1047E000789484B5826084BD84B5816084BD85B5CC
:1047F000826085BD85B5816085BDEEE6F0E0808193
:1048000081608083E1E8F0E01082808182608083B3
:10481000808181608083E0E8F0E080818160808336
:10482000E1EBF0E0808184608083E0EBF0E0808168
:1048300081608083E1E9F0E0808182608083808113
:1048400081608083E0E9F0E0808181608083E1EA3B
:10485000F0E0808182608083808181608083E0EAF3
:10486000F0E0808181608083E1E2F1E0808182601C
:104870008083808181608083E0E2F1E080818160DB
:104880008083EAE7F0E080818460808380818260B9
:1048900080838081816080838081806880831092A2
:1048A000C10008958150823108F059C0E82FF0E02E
:1048B0008827E35AFB4D8F4F7DC47D2481246F24CC
:1048C00075247924AF2484248A248E249424982463
:1048D0009C24A224A624AF24AA24B024B42480912A
:1048E00080008F77809380000895809180008F7D75
:1048F000F9CF80918000877FF5CF84B58F7784BD15
:10490000089584B58F7DFBCF8091B0008F77809321
:10491000B00008958091B0008F7DF9CF8091900014
:104920008F77809390000895809190008F7DF9CFCC
:1049300080919000877FF5CF8091A0008F77809342
:10494000A00008958091A0008F7DF9CF8091A000F4
:10495000877FF5CF809120018F7780932001089584
:10496000809120018F7DF9CF80912001877FF5CF45
:10497000CF93DF9390E0FC01E65DFE4F24918059D8
:104980009E4FFC0184918823C9F090E0880F991F05
:10499000FC01E053FE4FA591B491FC01EA54FE4F97
:1049A000C591D49161110DC09FB7F8948C91209559
:1049B00082238C938881282328839FBFDF91CF9106
:1049C0000895623051F49FB7F8943C91822F8095FE
:1049D00083238C93E8812E2BEFCF8FB7F894EC9143
:1049E0002E2B2C938FBFEACF1F93CF93DF93282FCB
:1049F00030E0F901EC51FF4F8491F901E65DFE4F83
:104A0000D491F901E059FE4FC491CC23A1F0162FA7
:104A1000811148DFEC2FF0E0EE0FFF1FEA54FE4F4C
:104A2000A591B4918FB7F894EC91111108C0D0956D
:104A3000DE23DC938FBFDF91CF911F910895DE2B92
:104A4000F8CFFC01918D228D892F90E0805C9F4FE3
:104A5000821B91098F7399270895FC01918D828D96
:104A6000981731F0828DE80FF11D858D90E0089543
:104A70008FEF9FEF0895FC01918D828D981761F063
:104A8000A28DAE0FBF2FB11D5D968C91928D9F5F51
:104A90009F73928F90E008958FEF9FEF0895FC0130
:104AA000538D448D252F30E0842F90E0821B930B93
:104AB000541710F0CF96089501970895FC01A48D26
:104AC000A80FB92FB11DA35ABF4F2C91848D90E030
:104AD00001968F739927848FA689B7892C93A08913
:104AE000B1898C91837080648C93938D848D98139D
:104AF00006C00288F389E02D80818F7D8083089530
:104B0000CF93DF93EC01888D8823B1F0AA89BB890C
:104B1000E889F9898C9185FD03C0808186FD0CC0F0
:104B20000FB607FCF7CF8C9185FFF2CF808185FF10
:104B3000EDCFCE01C3DFEACFDF91CF910895EF92A1
:104B4000FF920F931F93CF93DF93EC0181E0888F47
:104B50009B8D8C8D98131AC0E889F989808185FF17
:104B600015C09FB7F894EE89FF896083E889F989B9
:104B700080818370806480839FBF81E090E0DF91BB
:104B8000CF911F910F91FF90EF900895F62E0B8D0E
:104B900010E00F5F1F4F0F731127E02E8C8D8E11C9
:104BA0000BC00FB607FCFACFE889F989808185FF31
:104BB000F5CFCE0183DFF2CFEB8DEC0FFD2FF11D92
:104BC000E35AFF4FF0829FB7F8940B8FEA89FB8975
:104BD00080818062D0CFCF92DF92EF92FF921F93BD
:104BE000CF93DF93EC016A017B01122FE889F989E9
:104BF00082E08083C11481EED806E104F10499F0CB
:104C000060E079E08DE390E0A7019601B1D22150F8
:104C10003109410951095695479537952795211531
:104C200080E1380790F0E889F989108260E874E83B
:104C30008EE190E0A70196019BD2215031094109F4
:104C400051095695479537952795EC85FD85308315
:104C5000EE85FF852083188EEC89FD891083EA8913
:104C6000FB89808180618083EA89FB8980818860FB
:104C70008083EA89FB89808180688083EA89FB8957
:104C800080818F7D8083DF91CF911F91FF90EF9086
:104C9000DF90CF9008951F920F920FB60F921124BC
:104CA0000BB60F922F938F939F93EF93FF93E09107
:104CB0000905F0910A058081E0910F05F09110053A
:104CC00082FD1DC09081809112058F5F8F732091AE
:104CD0001305821741F0E0911205F0E0E750FB4F19
:104CE000958F80931205FF91EF919F918F912F9156
:104CF0000F900BBE0F900FBE0F901F9018958081E4
:104D0000F2CF1F920F920FB60F9211240BB60F9293
:104D10002F933F934F935F936F937F938F939F93C3
:104D2000AF93BF93EF93FF9389EF94E0C7DEFF91BA
:104D3000EF91BF91AF919F918F917F916F915F9113
:104D40004F913F912F910F900BBE0F900FBE0F9080
:104D50001F901895E9EFF4E01382128288EE93E039
:104D6000A0E0B0E084839583A683B78388EA92E0CD
:104D70009183808385EC90E09587848784EC90E034
:104D80009787868780EC90E0918B808B81EC90E018
:104D9000938B828B82EC90E0958B848B86EC90E0F9
:104DA000978B868B118E128E138E148E08951F9200
:104DB0000F920FB60F9211240BB60F922F938F9371
:104DC0009F93EF93FF93E091A605F091A705808153
:104DD000E091AC05F091AD0582FD1DC09081809100
:104DE000AF058F5F8F732091B005821741F0E0917E
:104DF000AF05F0E0EA56FA4F958F8093AF05FF912B
:104E0000EF919F918F912F910F900BBE0F900FBE3E
:104E10000F901F9018958081F2CF1F920F920FB6BE
:104E20000F9211240BB60F922F933F934F935F93E2
:104E30006F937F938F939F93AF93BF93EF93FF9362
:104E400086E995E03BDEFF91EF91BF91AF919F9195
:104E50008F917F916F915F914F913F912F910F9023
:104E60000BBE0F900FBE0F901F901895E6E9F5E06E
:104E70001382128288EE93E0A0E0B0E084839583F1
:104E8000A683B78388EA92E0918380838DEC90E0DB
:104E9000958784878CEC90E09787868788EC90E0F4
:104EA000918B808B89EC90E0938B828B8AEC90E0E5
:104EB000958B848B8EEC90E0978B868B118E128E67
:104EC000138E148E08951F920F920FB60F92112415
:104ED0000BB60F922F938F939F93EF93FF93E091D5
:104EE0004306F09144068081E0914906F0914A061C
:104EF00082FD1DC0908180914C068F5F8F73209141
:104F00004D06821741F0E0914C06F0E0ED5CF94F60
:104F1000958F80934C06FF91EF919F918F912F91E8
:104F20000F900BBE0F900FBE0F901F9018958081B1
:104F3000F2CF1F920F920FB60F9211240BB60F9261
:104F40002F933F934F935F936F937F938F939F9391
:104F5000AF93BF93EF93FF9383E396E0AFDDFF91B1
:104F6000EF91BF91AF919F918F917F916F915F91E1
:104F70004F913F912F910F900BBE0F900FBE0F904E
:104F80001F901895E3E3F6E01382128288EE93E017
:104F9000A0E0B0E084839583A683B78388EA92E09B
:104FA0009183808385ED90E09587848784ED90E000
:104FB0009787868780ED90E0918B808B81ED90E0E4
:104FC000938B828B82ED90E0958B848B86ED90E0C5
:104FD000978B868B118E128E138E148E08951F92CE
:104FE0000F920FB60F9211240BB60F922F938F933F
:104FF0009F93EF93FF93E091E006F091E1068081AB
:10500000E091E606F091E70682FD1DC09081809157
:10501000E9068F5F8F732091EA06821741F0E091D5
:10502000E906F0E0E053F94F958F8093E906FF9190
:10503000EF919F918F912F910F900BBE0F900FBE0C
:105040000F901F9018958081F2CF1F920F920FB68C
:105050000F9211240BB60F922F933F934F935F93B0
:105060006F937F938F939F93AF93BF93EF93FF9330
:1050700080ED96E023DDFF91EF91BF91AF919F917D
:105080008F917F916F915F914F913F912F910F90F1
:105090000BBE0F900FBE0F901F901895E0EDF6E03D
:1050A0001382128288EE93E0A0E0B0E084839583BF
:1050B000A683B78388EA92E09183808385E391E0B9
:1050C0009587848784E391E09787868780E391E0E2
:1050D000918B808B81E391E0938B828B82E391E0D3
:1050E000958B848B86E391E0978B868B118E128E45
:1050F000138E148E0895AF92BF92CF92DF92EF92EB
:10510000FF920F931F93CF93DF936C017B018B0171
:10511000040F151FEB015E01AE18BF08C017D107C1
:1051200059F06991D601ED91FC910190F081E02D4B
:10513000C6011995892B79F7C501DF91CF911F9190
:105140000F91FF90EF90DF90CF90BF90AF900895B8
:105150000895DB018F939F9335D0BF91AF91A29FAC
:10516000800D911DA39F900DB29F900D1124089565
:10517000A1E21A2EAA1BBB1BFD010DC0AA1FBB1F5B
:10518000EE1FFF1FA217B307E407F50720F0A21BCD
:10519000B30BE40BF50B661F771F881F991F1A943A
:1051A00069F760957095809590959B01AC01BD0164
:1051B000CF010895EE0FFF1F881F8BBF0790F69158
:1051C000E02D199409D0A59F900DB49F900DA49F38
:1051D000800D911D11240895A29FB001B39FC001BD
:1051E000A39F700D811D1124911DB29F700D811D13
:1051F0001124911D0895FB01DC0102C001900D9264
:1052000041505040D8F70895DC0101C06D934150E2
:0A5210005040E0F70895F894FFCF36
:10521A00FEFFFFFF01E8030000FFFF00000000FFA0
:10522A00FFFFFFFFFFFFFFFFFFFFFFFFFF01C802B6
:10523A00FF00670C930CFE004D0CED09FD00DF0B1F
:10524A00390CFC00250CED09F600160DED09F500E8
:10525A00EC0B550DF400DF0C6C0DDE00EB10631344
:10526A00DD004312ED09DA00FC0E040FD9007E13AB
:10527A00140FE200E40DED09E1001F0EED09E00054
:10528A00940EED09D600F715ED09D5002B10ED099E
:10529A00D400B70FED09D300280FED09F00060160E
:1052AA00ED09ED001D16ED090100010001000800DD
:1052BA0010002000000000009F257B284F25802534
:0652CA0021253B252D25E6
:00000001FF
