:1000000005C100000C940E330C9439330C94643306
:100010000C948F330C94BA330C94E5330C94103455
:100020000C943B3424C1000022C1000020C1000018
:100030001EC100001CC100001AC1000018C1000050
:1000400016C1000014C1000012C1000010C1000060
:100050000EC100000CC100000AC100000C946634FF
:1000600006C100000C9462380C94983800C100005E
:10007000FEC00000FCC00000FAC00000F8C0000094
:10008000F6C00000F4C00000F2C00000F0C00000A4
:100090000C94EE380C942439EAC00000E8C000004B
:1000A000E6C00000E4C00000E2C00000E0C00000C4
:1000B000DEC00000DCC00000DAC00000D8C00000D4
:1000C000D6C00000D4C000000C946E2E0C947A3977
:1000D0000C94B039CCC000000C94063A0C943C3A15
:1000E000C6C0000000000A0B02090C0D0E08070331
:1000F00004010000000000000000000000000000FB
:1001000000000000000000000000000000000000EF
:1001100012111000000000000000000000000000AC
:100120000000000000000000000001021020200874
:100130000810204010204080020102010804020142
:1001400001020408102040808040201008040201B1
:10015000800402018040201008040201080402010A
:100160000102040810204080010204081020408091
:1001700005050505070508080808020202020A0A23
:100180000808040404040101010101010101030341
:10019000030303030303040707070C0C0C0C0C0CEC
:1001A0000C0C0202020206060606060606060B0BE9
:1001B0000B0B0B0B0B0B000020002300260029006B
:1001C0002C002F003200000100000301060109018C
:1001D00000002200250028002B002E0031003400F2
:1001E00002010000050108010B01000021002400AC
:1001F00027002A002D003000330001010000040117
:1002000007010A01C1384D39D939653A11241FBE99
:10021000CFEFD1E2DEBFCDBF00E00CBF13E0A0E026
:10022000B2E0E8E4F6E700E00BBF02C007900D92F1
:10023000A431B107D9F729E0A4E1B3E001C01D92D0
:10024000A438B207E1F711E0C6E0D1E000E006C053
:1002500021970109802FFE010E94F13AC230D10797
:1002600080E00807A9F70E94602F0C94223BC8CEBB
:10027000611102C00C94A7366130E1F362E0FACF5D
:10028000662319F061E00C94E33660E0FCCFCF9276
:10029000DF92EF92FF92CF93882351F16A017B01A5
:1002A000CFEFC80F20E030E0A901CB01B6010E94DA
:1002B000543087FF11C0C701B60190580E94C53065
:1002C0009B01AC016C2F70E090E080E0CF91FF903B
:1002D000EF90DF90CF90B2C0C701B6010E94C0304E
:1002E0008C2FCF91FF90EF90DF90CF900C946D35D5
:1002F000CF91FF90EF90DF90CF9008950F931F93D1
:100300008B019C0183E036952795179507958A9573
:10031000D1F70C5E1C4F462F477021E030E0F90109
:1003200002C0EE0FFF1F4A95E2F7AF01F8012081EE
:100330002423CB010196211102C090E080E01F919F
:100340000F9108950F931F938B019C0183E03695C5
:100350002795179507958A95D1F7677081E090E00A
:1003600001C0880F6A95EAF7F801EC5EFC4F208126
:10037000452B31F48095822380831F910F9108953E
:10038000822BFACF2F923F924F925F926F927F9281
:100390008F929F92AF92BF92CF92DF92EF92FF9295
:1003A0000F931F93CF93DF93D62EC72E782E692EEF
:1003B00049015A01280161E08D2D0E94A736CD2DFB
:1003C000DC2D8E010F5F1F4FA8016D2D7C2D872D19
:1003D000962DB8DF20E030E0A901C201B7010E94EC
:1003E000F631181664F4C201B7010E94C5302B0122
:1003F000C501B4010E94C530A201CE0123D0C801BD
:10040000DF91CF911F910F91FF90EF90DF90CF90F0
:10041000BF90AF909F908F907F906F905F904F9024
:100420003F902F900895882341F08150682F70E00D
:1004300090E080E050E040E085CF0895862FB9013C
:100440000C946D359C01FC01EC51FF4FE491E1509F
:10045000E231E0F4F0E08827EF5CFD4F8F4F0C9421
:10046000F13A43024A024D026402790246028E02C8
:100470009A029E02B502CA02DF02F6020B0346028E
:10048000200337034C0384B5806884BD60E0822F6D
:100490000C94E33684B58062F8CF809180008C7F25
:1004A00082608093800080918100807E8061682BD3
:1004B0006093810050938700409386008091800074
:1004C000806880938000E2CF809180008C7F826082
:1004D0008093800080918100807E8061682B609392
:1004E0008100509387004093860080918000806255
:1004F000E8CF809180008C7F826080938000809123
:100500008100807E8061682B60938100509387001A
:1005100040938600809180008860D3CF8091B000A6
:1005200080688093B0008091B100887F682B6093D1
:10053000B100ACCF8091B0008062F3CF8091900089
:100540008C7F82608093900080919100807E80619A
:10055000682B609391005093970040939600809190
:10056000900080688093900091CF809190008C7F64
:1005700082608093900080919100807E8061682BE2
:100580006093910050939700409396008091900063
:100590008062E8CF809190008C7F82608093900091
:1005A00080919100807E8061682B609391005093D0
:1005B000970040939600809190008860D3CF8091FF
:1005C000A0008C7F82608093A0008091A100807E3B
:1005D0008061682B6093A1005093A7004093A60010
:1005E0008091A00080688093A00050CF8091A000EF
:1005F0008C7F82608093A0008091A100807E8061CA
:10060000682B6093A1005093A7004093A6008091AF
:10061000A0008062E8CF8091A0008C7F82608093F0
:10062000A0008091A100807E8061682B6093A10072
:100630005093A7004093A6008091A0008860D3CF7C
:10064000809120018C7F8260809320018091210124
:10065000807E8061682B6093210150932701409335
:100660002601809120018068809320010FCF809126
:1006700020018C7F82608093200180912101807E07
:100680008061682B609321015093270140932601DC
:10069000809120018062E8CF809120018C7F826070
:1006A0008093200180912101807E8061682B60937E
:1006B00021015093270140932601809120018860F9
:1006C000D3CFCF93DF93EC0170E060E06C177D0730
:1006D0000CF5072E000C880B990B0E94F33020E0DC
:1006E00030E0A9010E94DD2F20E030E0A9010E9446
:1006F000DD2F20E030E040E450E40E94DD2F20E0D8
:1007000030E040E450E40E94DC2F0E94C0306F5F74
:100710007F4FDCCFDF91CF9108950F931F93CF933D
:10072000DF93EC018C810E9410378C018C859D85B4
:10073000C8DF88850E941037488159816A817B8192
:10074000019781F40130110579F44F5F5F4F6F4FCE
:100750007F4F488359836A837B83DF91CF911F91B9
:100760000F910895012B89F34150510961097109D5
:10077000F0CF8EE193E0D1CF8EE293E0CECF8EE347
:1007800093E0CBCF8EE493E0C8CF0F931F93CF932A
:10079000DF93EC0188850E9410378C018C859D8544
:1007A00090DF8C810E941037488159816A817B815A
:1007B000019779F4012B81F44F5F5F4F6F4F7F4FAB
:1007C000488359836A837B83DF91CF911F910F9177
:1007D00008950130110581F34150510961097109F2
:1007E000EFCF8EE193E0D1CF8EE293E0CECF8EE3D8
:1007F00093E0CBCF8EE493E0C8CF0F931F93CF93BA
:10080000DF93D82FC62F8A01E0911D0380E1E89F76
:10081000F0011124E25EFC4F8D2F90E0B0E0A0E0EB
:1008200084839583A683B783862F90E0B0E0A0E011
:1008300080879187A287B3871082118212821382E8
:1008400081E090E0A0E0B0E084879587A687B78735
:1008500060E08D2F0E94A73660E08C2F0E94A736A3
:1008600080911D03813009F43FC0A8F0823009F463
:1008700062C0833009F486C080911D0391E0980F17
:1008800090931D03F801808390E080E0DF91CF9189
:100890001F910F91089580E0D23049F081E0D3306C
:1008A00031F08EEE8D0F8430D8F487E18D1B41E05E
:1008B00050E061EF73E00E94943280E0C23049F072
:1008C00081E0C33031F08EEE8C0F843058F487E134
:1008D0008C1B41E050E069EB73E00E949432CCCF76
:1008E0008FEFE5CF8FEFF5CF80E0D23049F081E098
:1008F000D33031F08EEE8D0F8430C8F487E18D1B3C
:1009000041E050E064EF73E00E94943280E0C23036
:1009100049F081E0C33031F08EEE8C0F843048F422
:1009200087E18C1B41E050E06CEB73E0D6CF8FEF9A
:10093000E7CF8FEFF7CF80E0D23049F081E0D330BE
:1009400031F08EEE8D0F8430C8F487E18D1B41E0CD
:1009500050E067EF73E00E94943280E0C23049F0CB
:1009600081E0C33031F08EEE8C0F843048F487E1A3
:100970008C1B41E050E06FEB73E0AFCF8FEFE7CF20
:100980008FEFF7CF80E0D23049F081E0D33031F003
:100990008EEE8D0F8430C8F487E18D1B41E050E06E
:1009A0006AEF73E00E94943280E0C23049F081E047
:1009B000C33031F08EEE8C0F843048F487E18C1B0D
:1009C00041E050E062EC73E088CF8FEFE7CF8FEF2C
:1009D000F7CF90E1899FF0011124E25EFC4F808106
:1009E0009181A281B381FB0180839183A283B38330
:1009F00090E080E0089590E1899FF0011124E25E8B
:100A0000FC4F108211821282138290E080E00895E0
:100A100090E080E0089590E080E008950F931F93A8
:100A2000009709F489C06115710509F485C000912A
:100A300048021091490220914A0230914B020E3F28
:100A40001F4F2F4F3F4F09F068C04FEF5FEFBA01C4
:100A5000409348025093490260934A0270934B02BC
:100A6000409148025091490260914A0270914B02B4
:100A7000DC011296ED91FC9180819181A281B3817C
:100A80008093970490939804A0939904B0939A0448
:100A900084819581A681B781809393049093940477
:100AA000A0939504B093960480859185A285B38523
:100AB00080938F0490939004A0939104B093920438
:100AC00084859585A685B78580938B0490938C0447
:100AD000A0938D04B0938E04109287041092880422
:100AE0001092890410928A040E94F8148DE195E115
:100AF00090935F0380935E03909361038093600300
:100B00000E94F713009731F421E030E030939C0409
:100B100020939B041F910F9108950091480210911A
:100B2000490220914A0230914B02DB010D931D9343
:100B30002D933C93139794CF8FEF9FEFEBCF8F9232
:100B40009F92AF92BF92CF92DF92EF92FF921F934C
:100B5000CF93DF934B015C0110919E0482E090E003
:100B600090939C0480939B0481149104A104B1048C
:100B700041F480919E04811104C080919D04C1E0E4
:100B80008111C0E0C12CD12C760180919E0481118D
:100B900006C080919D04811102C0CC23D9F083E06E
:100BA00090E090939C0480939B04CC2381F1CCE94A
:100BB000DFEF111102C00E948218CE01DF91CF91A8
:100BC0001F91FF90EF90DF90CF90BF90AF909F90DC
:100BD0008F9008956AE070E080E090E00E94D53444
:100BE00080E1C80E87E2D81EE11CF11C8FEF881649
:100BF0009806A806B80631F0C1E08C149D04AE0436
:100C0000BF0408F0C0E080E00E942314BECFD0E013
:100C1000C0E0CFCFCF92DF92EF92FF920F931F935E
:100C2000CF93DF938F3F910511F008F046C02091DC
:100C30009B0430919C042330310539F020919B04B2
:100C400030919C042130310531F424E030E03093C0
:100C50009C0420939B046A017B01EC018230910586
:100C6000B8F011E0AE01C701B6010E94F613AB0166
:100C7000BC0190E080E0112311F1CE01DF91CF9112
:100C80001F910F91FF90EF90DF90CF900C94971AE7
:100C90008C01000F111F025A1C4FD8018D919C919D
:100CA000892BF9F20E949E1A0297D9F6D801ED918C
:100CB000FC91CE011995182FD5CF8FEF9FEFDF91C3
:100CC000CF911F910F91FF90EF90DF90CF900895FB
:100CD00080E00C942314CF93DF9386E090E0909310
:100CE0009C0480939B040E947C14EC01EEE5F3E0ED
:100CF00084E0DF011D928A95E9F70E941A1810928C
:100D00009C0410929B04CE01DF91CF9108958091B5
:100D10009D0408958091860408956093480270931D
:100D2000490280934A0290934B0290E080E008953C
:100D30002F923F924F925F926F927F928F929F92EB
:100D4000AF92BF92CF92DF92EF92FF920F931F93D9
:100D5000CF93DF93CDB7DEB7CB54D1090FB6F8945C
:100D6000DEBF0FBECDBF26967FAF6EAF269728960B
:100D70005FAF4EAF28973E8B2D8B2C96FFAEEEAE1D
:100D80002C97FB01E150F04CEE0FFF1FEE0FFF1F01
:100D9000E80FF91F80809180A280B3808F8A988E9F
:100DA000A98EBA8EB501A401442777FD4395552736
:100DB0006627772729964FAF2997F901E150F04C24
:100DC000EE0FFF1FEE0FFF1F2896AEACBFAC2897AB
:100DD000EA0DFB1DC080D180E280F380CB8EDC8EDB
:100DE000ED8EFE8EB701A601442777FD439555276A
:100DF000662777272A964FAF2A97188B0F87F80117
:100E000030E020E02C96EEACFFAC2C972E153F0581
:100E10000CF43FC022969FAF8EAF22971A8B098B9E
:100E2000312C212C812C912C540183948D829E8213
:100E3000AF82B88626968EAC9FAC269728143904CC
:100E40007CF129969FAC29972A96AFAC2A9730E07F
:100E500020E041E050E060E070E09A10F5C1C55B31
:100E6000DF4F0FB6F894DEBF0FBECDBFDF91CF913D
:100E70001F910F91FF90EF90DF90CF90BF90AF90B8
:100E80009F908F907F906F905F904F903F902F90AA
:100E9000089511921192119211922F5F3F4FB2CF8C
:100EA0002296EEADFFAD229781919191A191B191E2
:100EB0002296FFAFEEAF22978F88988CA98CBA8CC0
:100EC000B7FE23C04D815E816F8178854150510905
:100ED000610971095A016B01A81AB90ACA0ADB0A29
:100EE000D601C50121E0CD80DE80EF80F8848C152D
:100EF0009D05AE05BF0508F020E0822E912CB12C97
:100F0000A12C8D829E82AF82B8865D01CC24DD2427
:100F1000A8A2B9A2CAA2DBA29C01AD014427552711
:100F20002CA33DA34EA35FA32C96EEADFFAD2C9753
:100F3000E219F3098D889E888E169F060CF4F40141
:100F40002896AEACBFAC28972496BFAEAEAE249721
:100F5000C988DA88DC8ACB8A1E861D86812C912C72
:100F60005401839489869A86AB86BC86812C912C09
:100F70005401CD84DE84CE16DF0604F1F7FF02C0F3
:100F8000F0E0E0E0E20DF31D2C96EEACFFAC2C9708
:100F9000EE15FF0554F4EE0FFF1FEE0FFF1FE00FDD
:100FA000F11F80829182A282B3822FEF221A320A2D
:100FB000E989FA893496FA8BE98B3CCF2496AEAD59
:100FC000BFAD2497CD90DD90ED90FD902496BFAFFE
:100FD000AEAF24972B8D3C8D4D8D5E8D57FF22C07B
:100FE00089859A85AB85BC850197A109B109AC01BA
:100FF000BD014C195D096E097F096A017B0181E021
:1010000029853A854B855C85C216D306E406F5062C
:1010100008F080E0482F50E070E060E049875A8790
:101020006B877C87B7018827992768A779A78AA744
:101030009BA7EE24FF2428A139A14AA15BA1C701E7
:10104000B6010E94C03A2B013C012CA13DA14EA14A
:101050005FA168A579A58AA59BA50E94C03A6CA747
:101060007DA78EA79FA7AB89BC894D915D916D919E
:101070007D91BC8BAB8BDB01CA01880D991DAA1D2C
:10108000BB1D89839A83AB83BC8391E09F8F2981A9
:101090003A814B815C81281539054A055B0508F0CA
:1010A0001F8E2CA13DA14EA15FA1C701B6010E94D8
:1010B000C03A6B017C0189809A80AB80BC808C0C2B
:1010C0009D1CAE1CBF1C89829A82AB82BC825201DD
:1010D0009924882488AA99AAAAAABBAA29813A8114
:1010E0004B815C81280D391D4A1D5B1D2CAB3DAB2E
:1010F0004EAB5FAB8CA49DA4AEA4BFA454019924B5
:10110000882488AE99AEAAAEBBAE280D391D4A1D03
:101110005B1D2CAF3DAF4EAF5FAFAB89BC89149761
:101120002D933D934D935C93139728A139A14AA128
:101130005BA168A579A58AA59BA50E94C03A9F8C52
:10114000690D711D811D911D230166247724460EB2
:10115000571E681E791E2CA53DA54EA55FA54A0108
:10116000AA24BB24840C951CA61CB71C81E090E02B
:10117000A0E0B0E049815A816B817C814C155D050E
:101180006E057F0518F080E090E0DC01880D991D68
:10119000AA1DBB1D41E050E060E070E088A899A85E
:1011A000AAA8BBA8CCA8DDA8EEA8FFA8C814D9049B
:1011B000EA04FB0418F040E050E0BA01840F951FE8
:1011C000A61FB71F812C912C54018394C8ACD9ACB5
:1011D000EAACFBAC2CAD3DAD4EAD5FAD2C153D0585
:1011E0004E055F0518F0812C912C5401880E991E34
:1011F000AA1EBB1E4D855E854F5F5F4F5E874D8784
:10120000B8CEEF85F889C190D190E190F190F88B3C
:10121000EF87DB01CA010197A109B1098C199D096A
:10122000AE09BF09349780839183A283B383E1E041
:1012300084179507A607B70708F0E0E04E2F50E0A7
:1012400070E060E02F5F3F4F2C968EAC9FAC2C97E8
:1012500028153905B4F203CE2F923F924F925F9238
:101260006F927F928F929F92AF92BF92CF92DF92B6
:10127000EF92FF920F931F93CF93DF9300D01F92B3
:10128000CDB7DEB78B015C834B83FB01E150F04CA3
:10129000EE0FFF1FEE0FFF1FE80FF91F4081518176
:1012A0006281738177FD27C04C01B12CA12CC12C28
:1012B000D12C7601A016B10664F5F401619171910B
:1012C000819191914F010E94F1304B815C810E948C
:1012D000FC319B01AC01C701B6010E94DD2F6B01FF
:1012E0007C012B813C81205E3F4F3C832B833FEF71
:1012F000A31AB30ADFCF9A838983312C212C81E092
:1013000090E0A0E0B0E0C12CD12C7601201631068F
:10131000CCF0C701B6010F900F900F900F90DF91A6
:10132000CF911F910F91FF90EF90DF90CF90BF90E2
:10133000AF909F908F907F906F905F904F903F9075
:101340002F900895E981FA814190519061907190B8
:10135000FA83E9834094509460947094530142015D
:10136000880E991EAA1EBB1EC501B4010E94F13051
:101370004B815C810E94FC319B01AC01C701B6012D
:101380000E94DC2F6B017C0181E084149504A6048B
:10139000B70408F080E090E0B0E0A0E02B813C8151
:1013A000205E3F4F3C832B833FEF231A330AAECF9F
:1013B0008F519F4FFC01808191810197A1F4F90128
:1013C00080819181A281B381FB0180839183A2837B
:1013D000B383F90184819581A681B781FA01808365
:1013E0009183A283B3830895CF92DF92EF92FF920D
:1013F0006B017C019F7720E030E040E859E50E94D6
:10140000543087FF2BC020E030E040E05FE3C701AD
:10141000B6010E94F63187FD0EC020E030E040E0CA
:101420005FE3C701B6010E94DD2FFF90EF90DF90D0
:10143000CF900C942E3120E030E040E05FEBC7010C
:10144000B6010E94F631181684F420E030E0A901BC
:10145000C701B6010E9430326B017C01C701B601A1
:10146000FF90EF90DF90CF90089520E030E040E0D3
:101470005FE3C701B6010E94DC2FFF90EF90DF9081
:10148000CF900C944130E0910C04F0910D048091C8
:101490004E0990914F09A0915009B0915109808354
:1014A0009183A283B38308952F923F924F925F92CC
:1014B0006F927F928F929F92AF92BF92CF92DF9264
:1014C000EF92FF920F931F93CF93DF93CDB7DEB7C9
:1014D000A8970FB6F894DEBF0FBECDBF8091610410
:1014E000909162048130910509F096C18091490480
:1014F00090914A04A0914B04B0914C048090510407
:1015000090905204A0905304B0905404C0904D04A5
:10151000D0904E04E0904F04F09050048F3F2FEF96
:101520009207A207B20709F054C1C701B6016F5F65
:101530007F4F8F4F9F4F0E94F130A50194010E9471
:10154000303220E030E040E85FE40E9430326093C7
:1015500090037093910380939203909393038091EF
:1015600049098150823008F46EC180E080934909B6
:10157000C0900002D0900102E0900202F0900302BD
:10158000A701960160910A0970910B0980910C09DD
:1015900090910D090E945430882341F0C0920A09AD
:1015A000D0920B09E0920C09F0920D098091090983
:1015B000811110920909BE01675F7F4F80910E096A
:1015C00008DA80912C0290912D02A0912E02B09108
:1015D0002F028D839E83AF83B88789859A85AB85DB
:1015E000BC8589839A83AB83BC8382E0E82EF12C8F
:1015F00006E519E021E030E0AE014F5F5F4F61E0AA
:1016000070E0CE01059694DB88E0F801A2E6B9E02F
:1016100001900D928A95E1F78091610490916204A6
:101620009E8B8D8B0197D1F420910402309105029D
:1016300040910602509107026091080270910902E0
:1016400080910A0290910B020E94303260934A0905
:1016500070934B0980934C0990934D09C0904A09AF
:10166000D0904B09E0904C09F0904D0950E040E0DB
:1016700062E070E086E599E0EFDD20E030E040E8F0
:101680005DE20E9430329B01AC01C701B6010E94AD
:10169000DC2F6B017C01C0924E09D0924F09E09281
:1016A0005009F0925109E0916404F0916504408082
:1016B00051806280738020902F0930903009009112
:1016C000310910913209B0903709A09038099090F3
:1016D000390980903A099101A801C301B2010E9421
:1016E00054302B2D3A2D492D582D18160CF4ADC021
:1016F000C301B2010E94543018160CF40FC51092A9
:1017000052091092530910925409109255092091D0
:1017100052093091530940915409509155096091F3
:1017200010027091110280911202909113020E9496
:1017300030324B015C0120910C0230910D0240913E
:101740000E0250910F02C701B6010E9430329B0178
:10175000AC01C501B4010E94DD2F4B015C01209159
:101760005E0930915F094091600950916109609173
:1017700018027091190280911A0290911B020E9426
:1017800030329B01AC01C501B4010E94DD2F4B0139
:101790005C018092520990925309A0925409B09230
:1017A000550940901C0250901D0260901E027090DE
:1017B0001F02A30192010E94F63118160CF083C09B
:1017C00040925209509253096092540970925509FF
:1017D0008AC0BC01CD016F5F7F4F8F4F9F4F0E942A
:1017E000F130A50194010E9430322B013C01C70168
:1017F000B6010E94F130A50194010E94303220E030
:1018000030E040E85FE40E9430329B01AC01C3014C
:10181000B2010E94DD2F9BCE892B09F0A0CEE09172
:10182000C003F091C1030190F081E02D808191818E
:10183000A281B381E0916404F09165048083918377
:10184000A283B3838CCE83E091CEB101C8010E9404
:10185000543087FF0BC02B2D3A2D492D582DC30135
:10186000B2010E94F63118160CF462C420913309BB
:10187000309134094091350950913609B22CA32C8E
:10188000902E812EC701B6010E94DC2F698F7A8FBE
:101890008B8F9C8F2B2D3A2D492D582DC301B201D2
:1018A0000E94DC2F9B01AC01698D7A8D8B8D9C8D04
:1018B0000E945830609352097093530980935409E1
:1018C0009093550924CF40902002509021026090BF
:1018D000220270902302A3019201C501B4010E946B
:1018E000543087FD6DCFAD89BE89119709F5E89415
:1018F000F7F88090520990905309A0905409B09045
:10190000550920E030E0A901C501B4010E94F6317B
:1019100018160CF068C320E030E040E450E4C70142
:10192000B6010E94F63118160CF05DC31092410901
:1019300080914109813009F476C3823009F497C35C
:1019400081111DC020E432E0AE01435F5F4FBE0154
:101950006F5E7F4F80E893E02BDD80916104909172
:101960006204019761F480914909882309F458C3FE
:10197000833009F051C381E090E08093490965E02C
:1019800070E080E090E00E947E018C0190932E092F
:1019900080932D09609152097091530980915409E7
:1019A000909155099F772091240230912502409112
:1019B0002602509127020E9430326B017C0120E008
:1019C00030E04FE753E40E94543018160CF473C310
:1019D000C0925209D0925309E0925409F0925509ED
:1019E00020E030E0A9016091520970915309809183
:1019F0005409909155090E94F63187FF08C0109252
:101A000052091092530910925409109255094091AD
:101A10005209509153096091540970915509C801B8
:101A20000E9447018091610490916204019709F03E
:101A30007FC069897A898B899C89D6DC6B017C019E
:101A4000C0925209D0925309E0925409F09255097C
:101A500020E030E040E853E40E9454306FEF87FF0D
:101A60000EC020E030E0A901C701B6010E94F631A6
:101A700060E087FD04C0C701B6010E94C5308EE159
:101A80000E9440016D857E858F859889ADDC6B0154
:101A90007C01C0925209D0925309E0925409F0920D
:101AA000550920E030E040E853E40E9454306FEFE5
:101AB00087FF0EC020E030E0A901C701B6010E94F7
:101AC000F63160E087FD04C0C701B6010E94C53051
:101AD0008FE10E944001609128027091290280915B
:101AE0002A0290912B0280DC6B017C01C09252098A
:101AF000D0925309E0925409F092550920E030E069
:101B000040E853E40E9454306FEF87FF0EC020E09E
:101B100030E0A901C701B6010E94F63160E087FDFF
:101B200004C0C701B6010E94C53089E00E9440018F
:101B30008091610490916204019709F03BC2809109
:101B40002F0990913009A0913109B09132098D8B04
:101B50009E8BAF8BB88F4090720950907309609044
:101B6000740970907509E0916404F0916504C08077
:101B7000D180E280F380A3019201BC01CD010E94DB
:101B800054308111A5C2C0922F09D0923009E09241
:101B90003109F0923209E3E3F9E080914E09909126
:101BA0004F09A0915009B091510980839183A2837C
:101BB000B38360914D0470914E0480914F049091D5
:101BC00050040E94F13020E030E040E85FE40E94E1
:101BD00030326B017C016091490470914A0480911C
:101BE0004B0490914C040E94F1309B01AC01C70161
:101BF000B6010E94DD2F20E030E0A9010E94DD2F18
:101C00000E94C530AB01BC0190E080E003D8809118
:101C1000610490916204019709F0CCC1609159046C
:101C200070915A0480915B0490915C040E94F130A1
:101C300020E030E040E85FE40E9430326B017C013C
:101C40006091550470915604809157049091580406
:101C50000E94F1309B01AC01C701B6010E94DD2F4B
:101C600020E030E0A9010E94DD2F0E94C530AB01C9
:101C7000BC0181E090E00E940A06A0916104B0914D
:101C80006204BAA3A9A3119709F094C1E091C0031B
:101C9000F091C1030190F081E02D4080518062807D
:101CA00073808091900390919103A0919203B091E1
:101CB00093038BA39CA3ADA3BEA3E0919403F091E7
:101CC0009503C080D180E280F380E091C403F0915D
:101CD000C50300811181E0918803F0918903208080
:101CE0003180A281B381BE8BAD8B848195819A8F27
:101CF000898FA681B781BE8FAD8F8085918598A38E
:101D00008F8FE0918603F09187031182108284E027
:101D1000F801D10101900D928A95E1F7E091BE039F
:101D2000F091BF03AD89BE89B183A083ACDB20E015
:101D300030E040E05FE3C701B6010E9430324B0162
:101D40005C01ED89FE8920813181428153810E94AD
:101D50003032D1012D913D914D915C910E94DD2F4A
:101D6000F8016083718382839383E091C003F091D3
:101D7000C1038081918198A78FA3A5019401C3011C
:101D8000B2010E94DD2FAFA1B8A56D937D938D9315
:101D90009C931397E091BE03F091BF03898D9A8DB8
:101DA0009183808381DB6FDBA98DBA8D2D913D916D
:101DB0004D915C91C501B4010E943032F101208146
:101DC0003181428153810E94DD2FD8016D937D9333
:101DD0008D939C931397E091BE03F091BF038D8D7B
:101DE0009E8D9183808360DB4EDBAD8DBE8D2D910A
:101DF0003D914D915C91C701B6010E943032F101D5
:101E000020813181428153810E94DD2FD8016D9361
:101E10007D938D939C931397E091C003F091C10340
:101E20000190F081E02D8BA19CA1ADA1BEA180838A
:101E30009183A283B383E091BE03F091BF03AF8D82
:101E4000B8A1B183A08330DB1EDBE98DFA8D608100
:101E50007181828193819B01AC010E94DD2FAD894C
:101E6000BE892D913D914D915C910E94DD2F4B01DA
:101E70005C01ED8DFE8D60817181828193819B017A
:101E8000AC010E94DD2F9B01AC01C501B4010E9491
:101E9000DD2FAF8DB8A12D913D914D915C910E94A8
:101EA000DD2F4B015C0120E030E040EC50E4C70145
:101EB000B6010E9458309B01AC01C501B4010E94DB
:101EC0003032F10120813181428153810E94DD2F26
:101ED000D8016D937D938D939C931397E091860326
:101EE000F091870389A19AA191838083809149040D
:101EF00090914A04A0914B04B0914C040196A11D0D
:101F0000B11D8093490490934A04A0934B04B0936D
:101F10004C04892B8A2B8B2B99F480914D04909142
:101F20004E04A0914F04B09150040196A11DB11D23
:101F300080934D0490934E04A0934F04B0935004AB
:101F40008091900390919103A0919203B09193039B
:101F5000E0916404F091650480839183A283B3834C
:101F60008091550490915604A0915704B091580463
:101F70000196A11DB11D8093550490935604A09322
:101F80005704B0935804892B8A2B8B2B99F480919A
:101F9000590490915A04A0915B04B0915C0401969D
:101FA000A11DB11D8093590490935A04A0935B0422
:101FB000B0935C04A8960FB6F894DEBF0FBECDBFF9
:101FC000DF91CF911F910F91FF90EF90DF90CF9015
:101FD000BF90AF909F908F907F906F905F904F9049
:101FE0003F902F90089520E030E0A901C501B40191
:101FF0000E94543087FF0EC020E030E040E450E4FF
:10200000C701B6010E94F631181624F481E08093CE
:1020100041098ECC82E0FBCF082E000C990BADCC91
:1020200082E090E0AACC28E332E0AE01435F5F4F4C
:10203000BE016F5E7F4F80E893E0BAD98091610462
:1020400090916204019709F09ACC80914809882305
:1020500059F0833029F481E090E0809348098FCCD7
:10206000082E000C990BF9CF82E090E0F6CF20E328
:1020700032E0AE01435F5F4FBE016F5E7F4F80E88D
:1020800093E096D98091610490916204019709F0E0
:1020900076CC80914709882359F0833029F481E078
:1020A00090E0809347096BCC082E000C990BF9CF78
:1020B00082E090E0F6CF80E090E0AFE7B3E4809379
:1020C000520990935309A0935409B093550988CCB1
:1020D0008090370990903809A0903909B0903A095A
:1020E000A5019401C301B2010E94543081110BC0BB
:1020F000C0923709D0923809E0923909F0923A0932
:10210000EBE3F9E04ACDA50194016D897E898F89C1
:10211000988D0E94543087FFEBCF35CD2B2D3A2D73
:10212000492D582DB101C8010E94543087FD93CB31
:1021300020913B0930913C0940913D0950913E0965
:10214000A1CB4F925F926F927F92AF92BF92DF923C
:10215000EF92FF920F931F93CF93DF9384E090E071
:102160000CD2E0E8F3E08EEEDF011D928A95E9F7EC
:10217000C1E6D4E0D783C68384E694E09093C1039C
:102180008093C00301E514E0158B048B2CE034E050
:1021900037AF26AF46E054E05093C5034093C403E5
:1021A00021E434E03093C3032093C20323E434E0FA
:1021B0003093C7032093C60328E034E03093C9036B
:1021C0002093C8032AE034E03093CB032093CA0362
:1021D000F093EB03E093EA03F583E48321E030E03E
:1021E0003983288327E234E063E174E0E9017983ED
:1021F000688367E174E070932A04609329046BE1BB
:1022000074E070932C0460932B046FE174E070937E
:102210002E0460932D0463E274E0709330046093A5
:102220002F046EE5A62E69E0B62EDA01AD92BC92BF
:102230003187208725E732E03387228726E634E09E
:10224000EC013983288340E050E060E87FEB409365
:102250005D0450935E0460935F04709360044FE6E6
:1022600052E163E87AE3D8014D935D936D937C93DB
:10227000139741E354E08CE797E5A2E4B2E3EA0167
:1022800088839983AA83BB8387E091E7A2E3BAE1BD
:102290008093350490933604A0933704B0933804A8
:1022A0008BEB9AE9A9E4BBEB8093390490933A0451
:1022B000A0933B04B0933C0485EF99E8AEE7BAEDF8
:1022C00080933D0490933E04A0933F04B093400458
:1022D000A4E7B3E0B383A283E2E6F3E01196FC93B4
:1022E000EE938AE792E0918380839383828367E40D
:1022F00079E075836483978386839187808793874A
:1023000082879587848788E499E09787868789E420
:1023100099E0918B808B87E494E015969C938E9343
:10232000149713965C934E93129717963C932E93A3
:102330001697EAE4F9E084E1DF011D928A95E9F756
:1023400084E0E50119928A95E9F7C3E0D9E087E4D2
:10235000FE0111928A95E9F7E2E6F9E01082118216
:10236000128213821482158216821782DD24D3947E
:10237000DFAE70E0A72E72E0B72EF501808191816B
:10238000A281B3818F839887A987BA87412C512C6A
:102390003201439449825A826B827C824EE059E03A
:1023A00063E082E00E94FD03DD821E828FEF8EAF2C
:1023B0001CA2D092430919A64DA25EA26FA278A6D4
:1023C000E12CF12C8701A801970165E070E080E025
:1023D00090E00E94C2019BA78AA7D9A61C8AD0922E
:1023E00045094D8A5E8A6F8A788E61E08EE10E948F
:1023F0003801D98E1C86D09244094D865E866F8640
:10240000788A61E08FE10E943801D98A1C8ED092CF
:1024100046094D8E5E8E6F8E78A261E089E00E9443
:102420003801D9A28091720990917309A091740921
:10243000B09175098CA79DA7AEA7BFA78CAB9DAB2C
:10244000AEABBFABF50184899589A689B789809326
:102450005E0990935F09A0936009B09361098B8531
:10246000DF91CF911F910F91FF90EF90DF90BF9080
:10247000AF907F906F905F904F900C94FB04809191
:102480000309811114C081E080930309809104093C
:1024900090910509A0910609B09107090197A1053E
:1024A000B10529F48091080981110E9408058091E5
:1024B000270981112EC081E0809327098091280986
:1024C00090912909A0912A09B0912B090197A105A2
:1024D000B105F9F480912C098823D9F065E070E00A
:1024E00080E090E00E947E0190932E0980932D0958
:1024F00040E050E0BA010E94470165E070E080E0F2
:1025000090E00E947E0190932E0980932D090E94F5
:10251000130280911709811103C081E0809317098C
:1025200080910F09811103C081E080930F09809190
:102530001F09811103C081E080931F09089560E0A5
:1025400070E080E89FE7089560E070E080E89FE732
:10255000089560E070E080E89FEF089560E070E02B
:1025600080E89FEF089560E070E080EC9FEF0895B1
:1025700060E070E080EC9FEF0895F5DF60937609EE
:10258000709377098093780990937909F1DF6093CC
:102590006A0970936B0980936C0990936D09CFDF82
:1025A000609372097093730980937409909375090D
:1025B000CBDF60936E0970936F09809370099093DD
:1025C0007109C7DF60937A0970937B0980937C0956
:1025D00090937D09C3DF60937E0970937F09809398
:1025E00080099093810908954F925F926F927F9234
:1025F0008F929F92AF92BF92CF92DF92EF92FF9213
:102600000F931F93F89440907A0450907B0460904D
:102610007C0470907D04C0906E04D0906F04E090B4
:102620007004F09071044130510509F0A4C09B0181
:10263000AC01241935094609570929013A010091CD
:102640007604109177042091780430917904480140
:102650005901840C951CA61CB71C80169106A20675
:10266000B306A0F4009172041091730420917404D5
:10267000309175040F5F1F4F2F4F3F4F009372042F
:10268000109373042093740430937504809276043D
:1026900090927704A0927804B09279040091720429
:1026A00010917304209174043091750480927E041B
:1026B00090927F04A0928004B092810400938204DF
:1026C00010938304209384043093850460937A04E8
:1026D00070937B0480937C0490937D04A8EEB3E018
:1026E000A30192010E94F93A6C0D7D1D8E1D9F1D64
:1026F00060936E0470936F048093700490937104E0
:10270000009148021091490220914A0230914B02F7
:102710000F3F1F4F2F4F3F4FF1F000914802109194
:10272000490220914A0230914B020E3F1F4F2F4F1A
:102730003F4F89F0C0904802D0904902E0904A0291
:10274000F0904B0221E08C149D04AE04BF0408F409
:1027500020E02093860478941F910F91FF90EF90D2
:10276000DF90CF90BF90AF909F908F907F906F90B1
:102770005F904F9008954B015C0184189508A6085E
:10278000B708A3019201261B370B480B590B6415A0
:10279000750586059705D0F082169306A406B50642
:1027A00040F420E030E0A90181149104A104B104B7
:1027B00091F4A8EEB3E00E94F93AA7019601261B16
:1027C000370B480B590BCA01B901C5CF82169306C6
:1027D000A406B50670F7A8EEB3E0A50194010E9427
:1027E000F93A6C0D7D1D8E1D9F1DB5CFFDCECF938B
:1027F000DF9300D01F92CDB7DEB71C821B821A82F6
:102800001982BE016F5F7F4FCE0103960E943C2E5E
:1028100069817A818B819C810E948327009761F472
:10282000BE016F5F7F4FCE0103960E94482E6981E3
:102830007A818B819C8127D50F900F900F900F90FC
:10284000DF91CF910895FF920F931F93CF93DF9362
:10285000082F60E070E0CB010E94D534FF24F39490
:102860000E946C26EC01892B89F010E0CE3F8FEF9F
:10287000D80769F0002361F160E070E0CB010E94AD
:10288000D53481E090E0892B59F322C011E01ED5A8
:10289000EC01892B21F0CE3F8FEFD80759F71111AA
:1028A0001EC011E0229609F410E00E941C26EC01E3
:1028B000892B21F0CE3F8FEFD807E1F6111111C01F
:1028C00011E0CE3F8FEFD80709F410E001110BC0E3
:1028D000CE01DF91CF911F910F91FF90089511E0EC
:1028E000E4CF11E0F3CF60E070E0CB010E94D5347B
:1028F0001F25812F90E0C7CFCF93DF931FD6D0E065
:10290000C0E0892B71F06AE070E080E090E00E9406
:10291000D53481E098DF12D62196C03D27E0D2075A
:1029200081F711D60E94D72710929E0410929D0421
:1029300010929704109298041092990410929A049D
:10294000109293041092940410929504109296049D
:1029500010928F041092900410929104109292049D
:1029600010928B0410928C0410928D0410928E049D
:1029700010928704109288041092890410928A049D
:102980004EEF5FEF6FEF7FEF4093480250934902A5
:1029900060934A0270934B0210928604EEE7F4E0D3
:1029A00028E0DF011D922A95E9F710927A0410922F
:1029B0007B0410927C0410927D0410927604109295
:1029C0007704109278041092790410927204109295
:1029D0007304109274041092750410926E04109295
:1029E0006F041092700410927104DF91CF910895DA
:1029F0001092AA041092AB041092AC041092AD0491
:102A00001092A9048091B2049091B3049093A80409
:102A10008093A7041092A6041092A5041092A1041A
:102A20001092A2041092A3041092A4041092AF0476
:102A30001092AE0490E080E00895CF92DF92EF9282
:102A4000FF920F931F93CF938C01019709F055C00C
:102A50002091B2043091B3048091A7049091A8040E
:102A60004091B2045091B3045093A8044093A7043A
:102A70002817390781F01092A6041092A50410922D
:102A8000A1041092A2041092A3041092A404109224
:102A9000AF041092AE048091B2049091B3040197F8
:102AA00061F58091AE049091AF04892B21F480915F
:102AB0004C02811112C08091AE049091AF04019735
:102AC000E1F48091A1049091A204A091A304B0919B
:102AD000A4040197A105B10581F41092A1041092FC
:102AE000A2041092A3041092A40410924C0282E05B
:102AF00090E09093AF048093AE048091B2049091E3
:102B0000B304019709F01CC18091C8049091C904D5
:102B10008017910709F014C18091C4049091C504F5
:102B2000A091C604B091C704009709F409C120918F
:102B3000C30421110DC04091C4045091C50460919B
:102B4000C6047091C704452B462B472B09F4F8C0E7
:102B50002091AE043091AF042230310509F0F0C06D
:102B60002091A5042111ECC0FC01C080D180E2803D
:102B7000F3808091A904882309F4D3C08091B5041F
:102B80009091B604892B09F4FEC02091B5043091D0
:102B9000B60481E02230310509F080E02091B504CF
:102BA0003091B604C1E02130310549F02091B504DF
:102BB0003091B604C1E02230310509F0C0E088232D
:102BC00009F456C02091BF043091C0044091C10463
:102BD0005091C204C701B6010E94F63187FD14C0AE
:102BE0002091BF043091C0044091C1045091C204AF
:102BF0006091AA047091AB048091AC049091AD04F3
:102C00000E94543087FD22C02091BF043091C0043F
:102C10004091C1045091C204C701B6010E94F6312F
:102C2000181634F52091BF043091C0044091C104BE
:102C30005091C2046091AA047091AB048091AC04DD
:102C40009091AD040E945430811112C08091B7045C
:102C50009091B804A091B904B091BA04892B8A2B41
:102C60008B2B19F481E08093A60481E08093A50466
:102C7000CC2309F456C02091BF043091C004409188
:102C8000C1045091C204C701B6010E94543087FFAD
:102C900014C02091BF043091C0044091C1045091F0
:102CA000C2046091AA047091AB048091AC0490912D
:102CB000AD040E94F63187FF22C02091BF043091FD
:102CC000C0044091C1045091C204C701B6010E94E2
:102CD0005430811126C02091BF043091C00440912E
:102CE000C1045091C2046091AA047091AB04809118
:102CF000AC049091AD040E94F631181694F48091C2
:102D0000B7049091B804A091B904B091BA04892B8A
:102D10008A2B8B2B19F481E08093A60481E08093A9
:102D2000A50481E09091A504911180E08093A9040D
:102D3000C092AA04D092AB04E092AC04F092AD042D
:102D40000130110509F067C18091AE049091AF0484
:102D5000892BD9F41092B4041092A50480914C02EE
:102D6000882379F082E090E09093AF048093AE04E2
:102D700010924C022091B2043091B30481E0232BD5
:102D8000E9F080E01BC081E009CF10924C028091F5
:102D9000B404882349F01092A6041092AF04109254
:102DA000AE041092B404EDCF8091B2049091B304BC
:102DB000892BE1F08091A5041092A5042091AE0426
:102DC0003091AF042230310509F45EC088F421153A
:102DD000310509F448C02130310509F4F3C01092DF
:102DE000A6041092A5041092B40438C081E0E6CF86
:102DF0002330310509F4B1C02430310581F7409109
:102E0000A1045091A2046091A3047091A4044115FF
:102E100051056105710561F0415051096109710960
:102E20004093A1045093A2046093A3047093A4045C
:102E30004091A1045091A2046091A3047091A40454
:102E4000452B462B472BD9F42091B0043091B10487
:102E50002130310509F046C01092A6041092AF044B
:102E60001092AE040CC080914C02882341F082E0A5
:102E700090E09093AF048093AE0410924C021092B5
:102E80009F048091A604CEC08823C9F38091B70423
:102E90009091B804A091B904B091BA04181619061B
:102EA0001A061B060CF07DC08091B2049091B30409
:102EB000019709F076C08091B7049091B804A09171
:102EC000B904B091BA048093A1049093A204A09392
:102ED000A304B093A40483E090E09093AF048093A4
:102EE000AE04CDCF4091BB045091BC046091BD04B1
:102EF0007091BE04452B462B472BA9F01092A604D7
:102F00008091BB049091BC04A091BD04B091BE041B
:102F10008093A1049093A204A093A304B093A4046B
:102F200081E090E0DACF882399F080914D02909172
:102F30004E02A0914F02B09150028093A104909351
:102F4000A204A093A304B093A40484E090E0C5CFAE
:102F50001092A60482E090E0C0CF8091A1049091ED
:102F6000A204A091A304B091A4040097A105B10507
:102F700059F00197A109B1098093A1049093A2048B
:102F8000A093A304B093A4048091A1049091A204FF
:102F9000A091A304B091A404892B8A2B8B2B09F058
:102FA0006ECF80914D0290914E02A0914F02B09150
:102FB0005002892B8A2B8B2B09F44ECF81E0809312
:102FC000A604B3CF4091A1045091A2046091A30440
:102FD0007091A404411551056105710561F04150DE
:102FE0005109610971094093A1045093A2046093AF
:102FF000A3047093A4044091A1045091A204609191
:10300000A3047091A404452B462B472B09F037CF1E
:103010008111C7CF9FCF80919F04882309F431CFBE
:103020008091A004CF911F910F91FF90EF90DF90BE
:10303000CF9008951092AA041092AB041092AC04A1
:103040001092AD041092A9041092AF041092AE0435
:103050001092A8041092A7041092C9041092C804F8
:103060001092A6041092A5041092A1041092A2043A
:103070001092A3041092A4041092A00410929F0432
:103080001092C4041092C5041092C6041092C70492
:103090001092C3041092BF041092C0041092C10495
:1030A0001092C20488EE93E0A0E0B0E080934D025D
:1030B00090934E02A0934F02B09350021092BB0423
:1030C0001092BC041092BD041092BE041092B7047A
:1030D0001092B8041092B9041092BA041092B60477
:1030E0001092B50481E080934C021092B4041092C7
:1030F000B3041092B2041092B1041092B00490E0A4
:1031000080E008958091B2049091B304892B19F561
:1031100080914C02882351F08091B404811106C043
:1031200081E08093A00480939F0408952091B404CB
:1031300030914C0281E090E0332311F090E080E088
:1031400030E082239323892B21F01092A00481E0A8
:10315000EACF10929F04089582E090E0FA019183F3
:1031600080838FEF9FEF0895CF93DF93EA0100975D
:1031700011F00E94EC281982188290E080E0DF9123
:10318000CF910895DB01009719F48FEF8C93089588
:103190002EEF2C93FC013F96EF30F10508F034C080
:1031A0008827EA52F74E8F4F0C94F13A0219001912
:1031B000FE18FC18FA18F618F818F418F218F01897
:1031C000ED18E918E518EB18041980E311968C93B3
:1031D000089589E2FBCF82E2F9CF11961C920895FF
:1031E00083E2F4CF81E2F2CF81E1F0CF87E2EECF4C
:1031F0008AE2ECCF80E1EACF84E2E8CF88E2E6CF52
:1032000086E2E4CF81E3E2CF80E2E0CF8091D60492
:103210009091D70408959093D7048093D60408958D
:103220008091D50408959091D504892B8093D5047D
:103230000895982F90958091D50489238093D50483
:1032400008958091D40408958091D2049091D3047C
:1032500008956115710559F0FB0130E020E070E040
:1032600060E02417350719F06115710511F0CB01E5
:103270000895A081B181A817B90709F4BF012F5F94
:103280003F4F3696EECF8091D80481111CC041D2B9
:1032900047D29093CB048093CA040E945E220E947E
:1032A00070229093CF048093CE040E9484250E94C4
:1032B0008B259093CD048093CC0481E08093D80437
:1032C00090E080E0089584EF9FEF08958F929F92A1
:1032D000AF92BF92CF92DF92EF92FF920F931F9324
:1032E000CF93DF9300D000D000D01F92CDB7DEB7D0
:1032F0001A86198618861F821E821D821C821B82D6
:103300001A8219828091D80407EF1FEF882309F4ED
:103310008BC08E010D5F1F4F9E012B5F3F4FAE0193
:10332000495F5F4FBE01675F7F4F90E080E00E9482
:1033300008278C01009721F00596029708F0C7C076
:1033400089859A85009709F4EFC0ED80FE802B8176
:103350003C812E0D3F1D4F8158854217530708F4BD
:10336000E3C0E80EF91ED7014C912091D6043091AC
:10337000D704232B09F494C0413F08F069C08CE1C5
:10338000840F8D3008F483C08DE2840F803108F4FF
:1033900081C088E3840F8B3008F47FC092ECC92E83
:1033A00098E1D92EECEAF8E16D817E81AE014F5FA4
:1033B0005F4F89859A8519955C01C114D104A1F1EB
:1033C00089809A808114910479F18B819C81881580
:1033D000990508F484C010E000E04B815C8170E046
:1033E00060E0C7010E941B3B01151105E9F449810A
:1033F0005A8169857A858D819E81680F791FC50103
:10340000F6011995E980FA800D811E812F8138859A
:1034100049855A856FEF7FEF81E090E00E94A326F7
:103420008C01892B09F053C0C8012A960FB6F89475
:10343000DEBF0FBECDBFDF91CF911F910F91FF90E7
:10344000EF90DF90CF90BF90AF909F908F900895B6
:1034500030E020E0220F331FF901E653FB4F0190CB
:10346000F081E02D309709F499CF842F90E01995E1
:10347000009709F493CFDC011296ED91FC9113971C
:103480001496CD90DC90309709F08ECF1EC021E0CD
:1034900030E0E0CF22E030E0DDCF23E030E0DACFF3
:1034A000D12CC12CE4EBF8E14F3F09F07DCFE09146
:1034B000CA04F091CB04309719F404EF1FEF0CC04D
:1034C0008FEF90E019950097B1F604EF1FEF898513
:1034D0009A85009709F4A8CF0E94EC28A5CF0E94F6
:1034E000D2278C0189859A850E94EC2870E060E0E3
:1034F000C4010E946B2798878F830E94A0269E8319
:103500008D836F8178856115710559F0C8010E941E
:10351000702A9A87898706EF1FEF892B09F05BCF06
:103520005CCF08EF1FEF59CF08EF1FEFD0CF2091EE
:10353000D8042111DAC787EF9FEF08958091D60450
:103540009091D70408950E9490250E94EA24EDD01E
:10355000EAECF4E088E0DF011D928A95E9F7109229
:10356000D80490E080E0089586E090E0FA0191832D
:10357000808390E080E0089547E050E06DE772E0DE
:1035800068CEDF92EF92FF920F931F93CF93DF935A
:103590008A01EC01C60FD71FE090DC04F090DD0437
:1035A000D9800E94BA27D816190678F082E090E0F8
:1035B000F801918380838EEF9FEFDF91CF911F9170
:1035C0000F91FF90EF90DF900895EF2841F482E093
:1035D00090E0F8019183808384EF9FEFEECF8981A3
:1035E0008093DB0490E00196F8019183808390E062
:1035F00080E0E3CFCF93DF93EA010E94FD2388238D
:1036000021F00E94C7270E94FE2382E090E0998368
:1036100088838BEF9FEFDF91CF910895CF93DF9356
:10362000EB0186E0FB0111928A95E9F78FEF888321
:10363000F7DD898306DE8A8307DE9D838C83DF9135
:10364000CF910895CF93DF93EA010E940024811166
:1036500009C082E090E09983888385EF9FEFDF9136
:10366000CF91089590E080E0D6DD81E090E09983ED
:10367000888390E080E0F3CF0F931F93CF93DF9385
:10368000EA018C01060F171F0E94002481110BC054
:1036900082E090E09983888385EF9FEFDF91CF915F
:1036A0001F910F910895F8018181823038F082E0F6
:1036B00090E0998388838EEF9FEFF0CF81E090E0D8
:1036C000AADD88E090E09983888390E080E0E6CFEF
:1036D000CF93DF930097D1F4EB01FB01329686E0A4
:1036E000DF011D928A95E9F78FEF888385E0898352
:1036F0001A820E94BA278B830E94B9279D838C83EC
:1037000081E08E838F83DF91CF910895DF91CF91F8
:1037100039CD8CEB9AE19093DA048093D904089523
:103720008091D9049091DA0408951092DA041092ED
:10373000D90408958091DC049091DD04089541112D
:1037400005C0611571058105910561F06093DC0488
:103750007093DD048093DE049093DF044093E004D3
:1037600081E0089580E00895FF920F931F93CF9317
:10377000DF938A01EC01C60FD71FF9800E94BA2798
:10378000F816190668F082E090E0F80191838083D2
:103790008EEF9FEFDF91CF911F910F91FF900895D2
:1037A0006C817D818E819F814B81C9DF811108C031
:1037B00082E090E0F8019183808384EF9FEFEACF6D
:1037C00089818093DB0490E00196F80191838083E6
:1037D00090E080E0DFCFCF93DF93EA01FC01E60FBA
:1037E000F71F64817581868197814381A8DF8111EC
:1037F00009C082E090E09983888384EF9FEFDF9196
:10380000CF91089581E090E09983888390E080E0F3
:10381000F6CFECEDF4E04081518162817381480F75
:10382000511D611D711D408351836283738308950F
:10383000CF93C091DB044C2F50E06091DC04709179
:10384000DD0401960E94123B8C2FE3DF1092DB0413
:10385000CF910895009799F48091DC049091DD0454
:103860002FEFFB012083892B59F02091DB0430E0FE
:103870002F5F3F4F2417350719F4CB01D9CF82CCE6
:103880000895009799F48091DC049091DD042FEF66
:10389000FB012083892B59F02091DB0430E02F5F5E
:1038A0003F4F2417350719F4CB01C2CF6BCC0895D5
:1038B0002DE0AC01249FC001259F900D1124E091C3
:1038C000E504F091E604E80FF91F238134812250CA
:1038D000310981E02230310508F080E008950F932E
:1038E0001F93CF93DF930091E7041091E804D0E099
:1038F000C0E080E00C171D0749F491E0811190E0D1
:10390000892FDF91CF911F910F9108958111F5CFEC
:10391000CE01CEDF2196EECFA091E504B091E60472
:10392000109729F12091E7043091E804821793075A
:10393000F0F45DE0589F9001599F300D1124A20FC3
:10394000B31FED91FC911197309789F012968C91ED
:10395000681768F485E0689FE00DF11D11248081EF
:103960009181892B21F081E09281491708F080E054
:103970000895EF92FF920F931F93CF93DF93EA0185
:10398000FC01E60FF71F02811381E480F5804F2DC3
:103990006E2DC801C1DF81110DC082E090E09983D6
:1039A00088838EEF9FEFDF91CF911F910F91FF9052
:1039B000EF900895C8017CDF882339F082E090E021
:1039C0009983888388EF9FEFEECF1093580200937E
:1039D0005702E0925902F0925A0281E090E09983F6
:1039E000888390E080E0DFCFCF92DF92EF92FF926A
:1039F0000F931F93CF93DF937A01EC01C60FD71F6C
:103A0000C0905702D09058020091590210915A026A
:103A1000412F602FC60180DF811110C082E090E04D
:103A2000F701918380838AEF9FEFDF91CF911F9100
:103A30000F91FF90EF90DF90CF900895C60138DF8F
:103A4000882341F082E090E0F7019183808388EF42
:103A50009FEFEBCF4C815D816E817F819A8189815F
:103A60008F3F41F082E090E0F701918380838EEFF9
:103A70009FEFDBCFEDE0EC9D9001ED9D300D11242B
:103A8000E091E504F091E604E20FF31F0190F0816C
:103A9000E02D25E0029FE00DF11D11240190F08141
:103AA000E02D27E0129FE00DF11D1124808391830A
:103AB0008B81828343835483658376831F5F109356
:103AC0005A0281E090E0F7019183808390E080E0EA
:103AD000ACCFEF92FF920F931F93CF93DF937A01B6
:103AE0008C01060F171FC091E504D091E6042097C2
:103AF00081F021E030E0F801828193814091E70478
:103B00005091E8048417950710F030E020E0232B53
:103B100071F482E090E0F701918380838EEF9FEF54
:103B2000DF91CF911F910F91FF90EF9008954DE09D
:103B3000489F9001499F300D1124C20FD31FB8DE5A
:103B4000882341F082E090E0F7019183808388EF41
:103B50009FEFE6CFF8012481358120383105C8F682
:103B600087818111D6CF4181842F90E08F7E00978D
:103B700041F082E090E0F7019183808386EF9FEF30
:103B8000CFCF4F833E832D8326812887198622300D
:103B900010F421E0288721E030E0F7013183208311
:103BA000BFCF88E090E0FA019183808390E080E0CD
:103BB0000895FB018FEF808381E181838FEF9FEF79
:103BC0009383828380E890E09583848316821782B2
:103BD0000895FB018FEF808391E09183828393832B
:103BE000848384E3858381E090E0978386830895CE
:103BF0004BE050E067EA72E02CCB8F929F92BF922D
:103C0000CF92DF92EF92FF920F931F93CF93DF93A8
:103C1000EA01FC01E60FF71F828193810481B580E0
:103C2000E091E504F091E604309791F482E090E0B1
:103C3000998388838CEF9FEFDF91CF911F910F9134
:103C4000FF90EF90DF90CF90BF909F908F9008955E
:103C50002091E7043091E8048217930738F082E05E
:103C600090E0998388838EEF9FEFE6CF2DE0289F29
:103C70006001299FD00C1124EC0DFD1DE080F18026
:103C8000E114F10499F28281081748F785E0089F52
:103C900080011124E00EF11EF70180819181892BB2
:103CA00029F6BB20E1F2F7E0BF9E40011124C401D8
:103CB0000E949E28F70191838083E091E504F091B2
:103CC000E604EC0DFD1D0190F081E02DE00FF11FE9
:103CD00080819181009739F482E090E09983888314
:103CE0008DEF9FEFA9CFA40170E060E00E941B3B25
:103CF0008091E5049091E604C80ED91EF6018081FA
:103D00009181080F191FF801B28281E090E0998338
:103D1000888390E080E090CFAF92BF92CF92DF9205
:103D2000FF920F931F93CF93DF93EA01FC01E60FFD
:103D3000F71F82819381F4800091E5041091E604DD
:103D40000115110581F482E090E0998388838CEF5E
:103D50009FEFDF91CF911F910F91FF90DF90CF9058
:103D6000BF90AF9008952091E7043091E804821746
:103D7000930738F082E090E0998388838EEF9FEF7D
:103D8000E8CF2FEF2F0D2C3FA8F72DE0289F6001E3
:103D9000299FD00C11240C0D1D1DF80180819181EB
:103DA000892B89F6F5E0FF9E50011124C5010E9480
:103DB0009E28F80191838083E091E504F091E60468
:103DC000EC0DFD1D80819181009739F482E090E037
:103DD000998388838DEF9FEFBCCFA50170E060E0F1
:103DE0000E941B3BE091E504F091E604EC0DFD1D03
:103DF000F28281E090E09983888390E080E0A9CF0F
:103E0000CF92DF92EF92FF920F931F93CF93DF93A6
:103E1000860F971FFC01028113818091E504909128
:103E2000E604892B81F082E090E0FA01918380839F
:103E30008CEF9FEFDF91CF911F910F91FF90EF904B
:103E4000DF90CF900895C801B0E0A0E00197A109EC
:103E5000B1098F3F9F4FA105B10540F082E090E08E
:103E6000FA01918380838EEF9FEFE4CF7A018DE09A
:103E7000809F6001819FD00C1124C6010E949E2862
:103E8000EC01009741F482E090E0F7019183808398
:103E90008DEF9FEFCFCFA60170E060E00E941B3B4B
:103EA000D093E604C093E5041093E8040093E7047C
:103EB00090E080E02FEF3FEF8017910741F481E021
:103EC00090E0F7019183808390E080E0B3CF3C875E
:103ED0002B8701962D96F0CFCF92DF92EF92FF9233
:103EE0000F931F93CF93DF93EC01D12CC12C10E0E3
:103EF00000E0F12CE12C8A818017110609F0BCF456
:103F0000AE01455F5F4F63E070E0C7010E94182972
:103F1000009721F02FEF3FEF3C872B87DF91CF9168
:103F20001F910F91FF90EF90DF90CF900895E8815F
:103F3000F981EC0DFD1D23813481C9010196011524
:103F4000110519F44F8144FD049661E070E0C3D778
:103F5000E816F90608F47C010F5F1F4F85E0C80ED4
:103F6000D11CC9CFF8942091E3043091E40481E09E
:103F70002115310509F080E0232B09F0789408958C
:103F80004F925F926F927F928F929F92AF92BF9269
:103F9000CF92DF92EF92FF920F931F93CF93DF9315
:103FA0003C01660E771EF301828193814C01B12C96
:103FB000A12CC091E504D091E604209769F021E09E
:103FC00030E06091E7047091E8048617970710F0DD
:103FD00030E020E0232BC1F482E090E0FA019183ED
:103FE00080838EEF9FEFDF91CF911F910F91FF9014
:103FF000EF90DF90CF90BF90AF909F908F907F9089
:104000006F905F904F90089580925B0290925C0257
:10401000A0925D02B0925E026DE0689F9001699F80
:10402000300D1124C20FD31FF3018181833040F082
:1040300082E090E0FA019183808386EF9FEFD3CFF7
:104040002A012B813C81232BF1F4288139819F8126
:1040500091FF2EC0232B09F464C02091EA049A81B9
:10406000422F490F5527551FBA0141E050E06138F2
:10407000710514F050E040E0452B09F452C02A8746
:10408000920F9093EA048150823008F476C06ADF80
:10409000882309F4C7C0F3018181813009F480C00D
:1040A00008F470C0823009F4B5C090E080E090C0A0
:1040B000232BB9F12091E9049A81E22FE90FFF2720
:1040C000FF1F41E050E0ED3FF10514F050E040E00B
:1040D000452B39F12A87920F9093E904D4CFA08120
:1040E000B181A20FB31F11966C91060F111D01969D
:1040F000295F3F4F8417950794F3C114D104C9F485
:104100008F8184FF16C035D721E0A8014B5F5F4F38
:104110008417950708F420E0A7014B5F5F4F21113A
:104120000EC082E090E0F2019183808387EF9FEFE1
:104130005ACF1FD721E0A8014F5F5F4FE9CF888199
:104140009981E80EF91EF70114830383FFEFCF1A5C
:10415000DF0A7A018A818C151D0409F00CF497CFCF
:10416000E881F981EE0DFF1D428150E030E020E052
:1041700010E000E090E080E0BDCFF12CE12CD12CEC
:10418000C12CE8CF81E090E09C838B83A8DB88235F
:1041900009F48BCF81E090E03ED880E44AD885CF07
:1041A0008B859C85019651F083E090E09C838B8306
:1041B00082E090E030D880E436D877CF22E08216D3
:1041C0009104A104B1047CF4CE0186DE009761F372
:1041D000789422E030E0F20131832083892BF9F0DA
:1041E0008DEF9FEF00CF2D813E8180915102909104
:1041F000520228173907C1F6609155027091560294
:10420000AE01455F5F4F80915302909154020E942E
:104210002F2ADCCF82E090E09C838B8346CF90E016
:1042200080E0E1CE82E090E0F2019183808385EF2F
:104230009FEFD9CE8F929F92AF92BF92CF92DF9293
:10424000EF92FF920F931F93CF93DF93EA018C01BC
:10425000060F171FF8018181833098F082E090E00B
:104260009983888386EF9FEFDF91CF911F910F9104
:10427000FF90EF90DF90CF90BF90AF909F908F9086
:1042800008958091E5049091E604892B61F081E026
:1042900090E02091E7043091E804232B11F490E0A2
:1042A00080E0892B39F482E090E0998388838EEF57
:1042B0009FEFDACF57DE882309F4D6C0F801818159
:1042C000813009F48CC0E8F0823099F42091E70441
:1042D0003091E804E091E504F091E60490E080E09C
:1042E00041E050E02817390709F0B4C0F8DA81112D
:1042F00017C0789481E090E09983888390E080E013
:10430000B3CF2091E7043091E804E091E504F09107
:10431000E60490E080E041E050E02817390741F4DE
:1043200081E090E00E940B1980E40E941919E1CF0E
:1043300063817481672B11F05483438301963D960A
:10434000ECCFE091E504F091E604E00FF11F23814A
:1043500034812230310569F4238534852F3F3F4F66
:1043600041F422E0C216D104E104F1040CF5CF01BE
:10437000B3DD4FEFC41AD40AE40AF40A035F1F4FF7
:104380004091E7045091E80470E060E0C416D5065F
:10439000E606F70664F50097A1F27894892B09F4F4
:1043A000A9CF82E090E0998388838DEF9FEF5CCF67
:1043B0004581568120915102309152024217530794
:1043C000C1F6AF01455F5F4F609155027091560293
:1043D00080915302909154020E942F2ACACF10E07C
:1043E00000E090E080E0C12CD12C7601C9CF00978D
:1043F000A1F610E000E0812C912C540183E0E82E1E
:10440000F12C1AC0E091E504F091E604E00FF11FF1
:1044100083819481029749F4F482E38282E090E000
:104420000E940B1980E40E9413198FEF881A980AD2
:10443000A80AB80A035F1F4F8091E7049091E8042F
:10444000B0E0A0E088169906AA06BB06DCF290E070
:1044500080E0A3CF638174816230710511F45483CD
:10446000438301963D963ECF82E090E09983888316
:1044700085EF9FEFF9CE0097B9F48FEFFB018083B2
:1044800020915B0230915C024DE0429FC001439F4E
:10449000900D1124E091E504F091E604E80FF91F76
:1044A0008285FB01818308950C94C21888E090E016
:1044B000FA019183808390E080E008951092E404F3
:1044C0001092E304E5EEF4E086E0DF011D928A95A8
:1044D000E9F788EF9DE19093E2048093E104089569
:1044E0008091E1049091E20408952F923F924F92BF
:1044F0005F926F927F928F929F92AF92BF92CF9274
:10450000DF92EF92FF920F931F93CF93DF93CDB77C
:10451000DEB762970FB6F894DEBF0FBECDBFF8943A
:104520002091E3043091E4042F5F3F4F3093E40483
:104530002093E30478942091E5043091E6043B83D2
:104540002A83232B09F456C12091E7043091E80413
:10455000232B09F44FC14D875E876F87788B9C872B
:104560008B878A819B819A8B898BD12CC12C198254
:1045700010E000E08091E7049091E804C816D906A5
:1045800018F43981332329F1F8948091E304909150
:10459000E40401979093E4048093E3047894C801C1
:1045A00062960FB6F894DEBF0FBECDBFDF91CF91FC
:1045B0001F910F91FF90EF90DF90CF90BF90AF9041
:1045C0009F908F907F906F905F904F903F902F9033
:1045D0000895B60190E080E02AD38887A989BA8936
:1045E00017968C91179781FD8DC013968D919C9194
:1045F0001497039709F086C01596ED91FC91FF83FF
:10460000EE832B853C85E217F30709F07BC0712C04
:10461000612C512C412C63C093D39A87898710E079
:104620004114510431F4A989BA8917961C91129545
:104630001170A989BA89ED91FC91E60DF71D2380CF
:104640003480111169C0BFEF2B1A3B0A61E070E0A2
:10465000C10141D45C01A989BA891B968D919C91B5
:104660008F3F980709F45CC0B5013AD74C01009719
:1046700009F4BBC0E985FA85E80FF91FA989BA8951
:104680001A968C91840D808311114DC08F010F5F9C
:104690001F4F8091510290915202AE81BF81A817A5
:1046A000B90709F09DC081E090E0B885BB2311F007
:1046B00090E080E0710109851A859501A401B60199
:1046C0009195819591093FD38C01892B11F0C401FB
:1046D00083D58FEF481A580A95E0690E711CA98995
:1046E000BA8912968C918415150429F024F0B981A9
:1046F000BB2309F491CFE885EE2321F0B60190E0C9
:1047000080E097D2FFEFCF1ADF0A29893A89235F29
:104710003F4F3A8B298B2ECFE5E02E0E311C96CFE2
:10472000C5010CD5A3CF8D859E85AF85B8898183C2
:104730009283A383B4838F010B5F1F4FAACFE080C6
:10474000F180EC81FD81EE0EFF1ED70113966D9175
:104750007C9114978C918F3FE1F1E1E0F0E002C091
:10476000EE0FFF1F8A95E2F7CF01092E000CAA0B6E
:10477000BB0BFB01408151816281738184239523AE
:10478000A623B72321E0892B8A2B8B2B09F420E069
:10479000D8012C93D70111968C91080F111DEA8135
:1047A000FB813196FB83EA832C813D81295F3F4F5A
:1047B0003D832C83A989BA89ED91FC91E60DF71D03
:1047C00082812A813B818217130611F00CF0B7CF4A
:1047D0006ACFF701418150E0C8010E94123BDACF55
:1047E0001D821C821B821A82E5CF31E0398306EFDD
:1047F0001FEF6FCF10E000E0C7CEB4CB78940895E0
:104800002F923F924F925F926F927F929F92AF92C0
:10481000BF92CF92DF92EF92FF920F931F93CF93AD
:10482000DF9300D000D0CDB7DEB70091E504109142
:10483000E604992493940115110509F43EC0A09053
:10484000E704B090E8048EDB982E8823B1F1109233
:10485000E6041092E5041092E8041092E704109226
:10486000E9041092EA048FEF9FEFDC0180935B0272
:1048700090935C02A0935D02B0935E0278947BD328
:104880001E830D83C12CD12C7601C501B0E0A0E0C0
:1048900089839A83AB83BC8322242A94322C898116
:1048A0009A81AB81BC81C816D906EA06FB06F4F0F2
:1048B000C80192D480E40E941919892D26960FB65A
:1048C000F894DEBF0FBECDBFDF91CF911F910F9146
:1048D000FF90EF90DF90CF90BF90AF909F907F9030
:1048E0006F905F904F903F902F900895AD81BE8163
:1048F00092E0C916D104E104F1040CF51B968D91E8
:104900009C918F3F980709F02BD5ED81FE8134866D
:104910002386ED81FE8180819181B12CA12C412CD7
:10492000512C3201892B59F5BFEFCB1ADB0AEB0A68
:10493000FB0AED81FE813D96FE83ED83B0CF159697
:104940002D913C9116978091510290915202281717
:104950003907F9F61B968D919C91B0D5DACF8A0D67
:104960009B1DDC018D919C91009709F035D4BFEF20
:104970004B1A5B0A6B0A7B0AE5E0AE0EB11CAD81F7
:10498000BE818D919C91119712964C9150E070E0F0
:1049900060E044165506660677060CF31DD4C4CFB6
:1049A000CF93DF93EA012CDF811109C082E090E010
:1049B0009983888385EF9FEFDF91CF91089581E000
:1049C00090E00E940B1981E090E09983888390E049
:1049D00080E0F2CF15DF1092E2041092E104089516
:1049E00042E050E069EE72E00C942919FF920F93B7
:1049F0001F93CF93DF938A01EC01C60FD71FF98075
:104A0000B9D20897F816190671F068F082E090E0C4
:104A1000F801918380838EEF9FEFDF91CF911F91FB
:104A20000F91FF9008956C817D818E819F814B81D4
:104A30000E949F1B811108C082E090E0F8019183E1
:104A4000808384EF9FEFE9CFF9800E949A1B4F2D5E
:104A500050E0BE01685F7F4F0E94123B89810E9437
:104A6000091C81E090E0F8019183808390E080E070
:104A7000D4CFDF92EF92FF920F931F93CF93DF93E8
:104A80008A01EC01C60FD71F0E949A1B7C01D980B6
:104A900071D2DD2059F0029721E030E0D8161906D6
:104AA00019F010F030E020E0232B79F482E090E060
:104AB000F801918380838EEF9FEFDF91CF911F915B
:104AC0000F91FF90EF90DF900895EF2841F482E07E
:104AD00090E0F8019183808384EF9FEFEECFF9801F
:104AE0000E949A1B4F2D50E0BE016E5F7F4F0E94C7
:104AF000123B89810E94091C81E090E0F8019183BA
:104B0000808390E080E0D9CF80EF94E29093EC0432
:104B10008093EB0408958091EB049091EC04089548
:104B20000895FC0111821082938382830895DB0132
:104B30001D921C92DC011296ED91FC9113977183EA
:104B4000608313967C936E9312970895FC01808185
:104B50009181DB018D939C93A081B181109741F0ED
:104B60008D919C9191838083892B11F4F383E2834F
:104B70000895FC0180819181DB018D939C93892BA9
:104B800011F473836283718360830895FC01118241
:104B90001082938382830895CF93DF931F921F9295
:104BA000CDB7DEB71A821982F894BE016F5F7F4FCE
:104BB00082EF94E0CBDF89819A81009709F00CD3D2
:104BC00089819A81892B89F7BE016F5F7F4F86EFBC
:104BD00094E0BCDF89819A81009709F0FDD2898138
:104BE0009A81892B89F778940F900F90DF91CF915C
:104BF0000895CF93DF931F921F92CDB7DEB71A822D
:104C00001982F894BE016F5F7F4F8EEE94E09EDFB5
:104C100089819A81009709F0DFD289819A81892B55
:104C200089F778940F900F90DF91CF91089581E0EC
:104C3000089590E080E00895EF92FF920F931F9304
:104C4000CF93DF931F921F92CDB7DEB71A821982DE
:104C50008091ED0407EF1FEF8823A1F1F894BE01C6
:104C60006F5F7F4F86EF94E071DF789489819A813E
:104C7000EE24E394F12C892B51F4F894BE016F5F7C
:104C80007F4F82EF94E062DF7894F12CE12C8981F0
:104C90009A810EEF1FEF0097A9F0FC01428153812A
:104CA00064E070E01DD68C01892B61F0F894698175
:104CB0007A81C701880F991F880F991F8E509B4FCB
:104CC00058DF7894C8010F900F90DF91CF911F911A
:104CD0000F91FF90EF9008950F931F93CF93DF9361
:104CE00000D01F92CDB7DEB71C821B821A821982B8
:104CF0008091ED0407EF1FEF8823C1F0AE014D5FF7
:104D00005F4F64E070E0CE0101965DD68C01892B87
:104D100069F4E981FA818B819C8193838283F89481
:104D200069817A818EEE94E002DF7894C8010F9059
:104D30000F900F900F90DF91CF911F910F910895D9
:104D400062D7049608958F929F92AF92BF92CF92AE
:104D5000DF92EF92FF920F931F93CF93DF931F92F7
:104D60001F92CDB7DEB71A821982BC016F5F7F4FE9
:104D70006330710598F0AA24AA94BA2CC5010F904B
:104D80000F90DF91CF911F910F91FF90EF90DF90E7
:104D9000CF90BF90AF909F908F900895411551058F
:104DA00051F3480159018A016C01CADF8815990540
:104DB00011F7E114F104F9F28E0D9F1DA816B90642
:104DC000D0F28091ED048823F1F0F894B50164509D
:104DD00071099701AE014F5F5F4FC801049688D6F5
:104DE0005C01892B71F489819A81F8019383828314
:104DF000C601880F991F880F991FB8018E509B4FCD
:104E000096DE7894BBCF87EFA82EBB24BA94B6CF9A
:104E1000AF92BF92CF92DF92EF92FF920F931F93C8
:104E2000CF93DF931F921F92CDB7DEB71A821982FC
:104E3000892B09F047C06115710509F443C041157C
:104E4000510509F43FC02115310509F43BC0011596
:104E50001105C1F18091ED048823B9F179016A014E
:104E60005B01F894BE016F5F7F4F8EEE94E06EDEC3
:104E7000789489819A81009759F1DC0112966D919D
:104E80007C91A80104964DD68C01E981FA81D50167
:104E9000ED93FC93828193810496F6019183808344
:104EA0004FDFD7018D939C93C8010F900F90DF9136
:104EB000CF911F910F91FF90EF90DF90CF90BF9017
:104EC000AF9008950FEF1FEFEFCF07EF1FEFECCF7D
:104ED0000EEF1FEFE9CFCF93DF93EC01672B71F457
:104EE0009BD68C179D0760F08ED62496C80FD91FCD
:104EF0008DD68C0F9D1FDF91CF9108958AD6F1CF6B
:104F000090E080E0F8CF0F931F93CF93DF93209131
:104F1000ED0421112BC08B01EC0182EF94E001DE46
:104F200086EF94E0FEDD8EEE94E0FBDD86D0009708
:104F3000C1F472D670E060E0CEDF4FE552E062E08F
:104F400070E076D1009769F480915F0290916002E1
:104F500075D6B801CE01AAD4009719F421E02093A8
:104F6000ED04DF91CF911F910F91089584EF9FEF92
:104F7000F8CF4FC651C6CF93DF9351D6EC01892BA2
:104F800011F40ADE36DECE01DF91CF910895CF9382
:104F9000DF9345D6EC01892B09F4FEDDCE01DF91CC
:104FA000CF91089580915F02909160020895CF9310
:104FB000DF938091ED04D0E0C0E08823D1F043D6A8
:104FC000EC01892BB1F4E8DD14DE80915F02909151
:104FD0006002C6D1D5D2EC01892B59F482EF94E05E
:104FE000D5DD86EF94E0D2DD8EEE94E0CFDD109239
:104FF000ED04CE01DF91CF910895CF93DF93009719
:10500000A1F4DF91CF910895EC011A821982A8834F
:10501000309711F0928381832F5F3F4FFC01860F01
:10502000971F4217530781F7ECCF30E020E0F0E004
:10503000E0E0AFEF6F5F7F4FF4CFAF92BF92CF92C0
:10504000DF92EF92FF920F931F93CF93DF938FEF37
:1050500095E07C012CEFE22285EFC82E82E0D82E6D
:105060009BEFA92E92E0B92ECEE3D6E08E01D601B9
:105070004D915D916D01F501619171915F01D801D3
:105080001196FC92EE9215965C934E93149713969C
:105090005C934E93129717967C936E9316979B0191
:1050A0002F5F3F4F249FC001259F900D349F900D8F
:1050B000112419969C938E931897C7019EDFF801CF
:1050C00080859185E80EF91E065F1F4FFBEFCF1616
:1050D000F2E0DF0661F6ECEFF4E080E091E0DF0162
:1050E0009C011D9221503040E1F71092FB04109278
:1050F000FA048CE596E01F8E1E8E1BA21AA219A23E
:1051000018A21DA21CA21FA21EA22A968C179D07E0
:1051100091F710923B0610923A0610923D061092BB
:105120003C0690E080E0DF91CF911F910F91FF90BE
:10513000EF90DF90CF90BF90AF900895009799F1D6
:10514000F8948930910550F4809140069091410681
:10515000892B39F020E090E080E018C08131910582
:1051600050F480914A0690914B06892B31F021E052
:1051700081E090E00BC08197A8F480915406909153
:105180005506892B79F022E082E090E0EAE0E89F82
:10519000D001E99FB00D1124A25CB94F8D919C9173
:1051A000009721F4789490E080E00895E29FF00168
:1051B0001124E25CF94FDC0111964D915C91518311
:1051C0004083428153814150510953834283FC0102
:1051D0002193CF0178940895009749F1DC018E91D5
:1051E000863041F4E0913C06F0913D063097F9F0AD
:1051F000CD0119948630D8F4282F30E0F8948FEF41
:105200008C938AE0829FF001839FF00D1124E25C71
:10521000F94F8081918112969C938E931197B1835F
:10522000A0838281938101969383828378940895E9
:10523000CF92DF92EF92FF920F931F93CF93DF9362
:105240009C018FEF94E08C7F4115510509F485C0D6
:105250002115310509F481C06115710509F47DC07E
:105260008A01AB01B9016D5F7F4F6C7F9B012F5F9E
:105270003F4F249F7001259FF00C349FF00C1124A8
:10528000F894EEE3F6E023E030E0E901A6A1B7A14F
:10529000C68CD78CCD2809F054C0109709F03CC0BB
:1052A000C090FA04D090FB042DEF30E02C193D099A
:1052B0002E153F0530F47894CFEFDFEF86EF9FEFA8
:1052C0001FC02AE02C9FF0012D9FF00D1124E25CFD
:1052D000F94F91838083558344835383428377833B
:1052E0006683F186E08689DEEC0CFD1CF092FB04FF
:1052F000E092FA047894CF3FDC0701F390E080E07D
:10530000F801D183C083DF91CF911F910F91FF905E
:10531000EF90DF90CF900895AE15BF0590F02AE092
:105320002C9FF0012D9FF00D1124E25CF94F918329
:1053300080835583448353834283778366835DDE12
:10534000D9CF8A0F9B1F2F5F3F4F3A9626303105EA
:1053500009F09BCFCFEFDFEFCDCF8FEF9FEFD3CF14
:10536000FF920F931F93CF93DF939C01235031093A
:105370002330310508F070C0EC01F89485E09AE024
:105380009C9FD0019D9FB00D1124AA5BB94F082F9F
:1053900010E0909FF001919FF00D1124E25CF94F15
:1053A00020813181C017D10714F1FF24F394232BFE
:1053B00041F52AE0209FF001219FF00D1124E25CCD
:1053C000F94F8091FA049091FB0440855185841B2C
:1053D000950B9093FB048093FA042C9FF0012D9F72
:1053E000F00D1124E25CF94F118610861CC0232BAE
:1053F00039F42D913C911197232BA9F48150C7CFFB
:10540000F12C8AE08C9FF0018D9FF00D1124E25C5D
:10541000F94F4085518570E060E0808191810E9464
:105420001B3BF110C6CF8AE08C9FF0018D9FF00DE1
:105430001124E25CF94F11821082158214821382CA
:10544000128217821682789490E080E0DF91CF91EB
:105450001F910F91FF9008958FEF9FEFF7CF4115A8
:10546000510549F1009739F16115710521F1F89461
:1054700020913A0630913B06232BB9F420913C064B
:1054800030913D06232B89F490933B0680933A0696
:1054900070933D0660933C06789426E030E090E0FF
:1054A00080E0FA0131832083089578942FEF3FEF55
:1054B00086EF9FEFF6CF8FEF9FEF0895069769F481
:1054C000F89410923B0610923A0610923D06109204
:1054D0003C06789490E080E008958FEF9FEF089568
:1054E0006115710519F4F0E0E0E011C08630910516
:1054F00081F4E0913A06F0913B063097A1F3CB019D
:1055000001961995009779F3FC0186E08193CF010C
:1055100008959C01235031092330310520F72AE0FA
:10552000289FD001299FB00D1124A25CB94F2D9165
:105530003C911197232BB9F216962D913C91179718
:105540002617370780F2F89412962D913C91139705
:105550002115310529F0ED91FC911197309711F447
:105560007894C1CF4181528111965C934E93215022
:10557000310913963C932E93129781937894C7CF59
:10558000ECEFF5E08EE3DF011D928A95E9F7ECEF91
:10559000F4E080E091E0DF019C011D922150304059
:1055A000E1F71092FB041092FA04EEE3F6E08CE3CC
:1055B000DF011D928A95E9F7EAE3F6E084E0DF0176
:1055C0001D928A95E9F790E080E00895CF93DF93EC
:1055D000C0916102D0916202CF3FDC0759F4DFD362
:1055E000909362028093610297FF09C0D093620298
:1055F000C093610284EF9FEFDF91CF91089590E017
:1056000080E0FACF8230910528F480937A0690E00A
:1056100080E008958FEF9FEF08954F925F926F9211
:105620007F92AF92BF92CF92DF92EF92FF920F9351
:105630001F93CF93DF931F921F92CDB7DEB71A82CD
:105640001982009709F479C06115710509F475C0D4
:10565000209161023091620207EF1FEF2F3F3F4F11
:1056600009F445C06B015C01412C512C3201F12C35
:10567000E12C10E000E09E012F5F3F4FA6014E1984
:105680005F09B5016E0D7F1D8091610290916202EC
:10569000EAD3892B09F04BC089819A81009741F4A4
:1056A000E114F10429F420917A06222309F442C07E
:1056B000E80EF91EEC14FD04D0F480E8481684E8E6
:1056C00058068EE16806710420F560E070E0CB01B9
:1056D0000E94D5342AE0420E511C611C711C0A3F05
:1056E0004FEF140721F0043F8FEF1807A1F4C80112
:1056F0000F900F90DF91CF911F910F91FF90EF903E
:10570000DF90CF90BF90AF907F906F905F904F9061
:10571000089501EF1FEF81E090E0013F2FEF1207A6
:1057200011F090E080E0892B09F4A5CFE0CF04EFE1
:105730001FEFDDCF0AEF1FEFDACF0FEF1FEFD7CF4D
:105740004F925F926F927F92AF92BF92CF92DF9211
:10575000EF92FF920F931F93CF93DF931F921F92AD
:10576000CDB7DEB71A821982009709F479C06115A6
:10577000710509F475C0209161023091620207EF52
:105780001FEF2F3F3F4F09F445C06B015C01412CD7
:10579000512C3201F12CE12C10E000E09E012F5F32
:1057A0003F4FA6014E195F09B5016E0D7F1D809117
:1057B0006102909162020AD3892B09F04BC0898162
:1057C0009A81009741F4E114F10429F420917A06BA
:1057D000222309F442C0E80EF91EEC14FD04D0F4B3
:1057E00080E8481686E9580688E96806710420F5BD
:1057F00060E070E0CB010E94D5342AE0420E511CDB
:10580000611C711C0E3F4FEF140721F0043F8FEF16
:105810001807A1F4C8010F900F90DF91CF911F914D
:105820000F91FF90EF90DF90CF90BF90AF907F905F
:105830006F905F904F90089502EF1FEF81E090E02E
:10584000023F2FEF120711F090E080E0892B09F45E
:10585000A5CFE0CF04EF1FEFDDCF0EEF1FEFDACFC4
:105860000FEF1FEFD7CF80916102909162028F3FBF
:10587000980749F08CD2892B49F48FEF9FEF9093D2
:1058800062028093610290E080E0089584EF9FEFD0
:105890000895FC01680F791F90E080E0E617F70794
:1058A00009F408952191820F911DF8CF20917B0674
:1058B000211113C08BDE009791F410928106109293
:1058C000800610927F0610927E0610927D0610923E
:1058D0007C0621E020937B06089584EF9FEF0895D6
:1058E000AF92BF92CF92DF92EF92FF920F931F93EE
:1058F000CF93DF93009709F460C04630510508F458
:105900005CC020917B06C7EFDFEF222309F449C07A
:105910008C01060F171FF801C080D180C114D1047B
:1059200009F44EC096012A5F3F4F4217530708F40F
:1059300047C07C0180918006909181069383828389
:10594000B6016C5F7F4F5801A60EB71EC801A1DFDC
:10595000F5019183808364E070E0C8015EDEEC01B4
:10596000892BF9F481E090E04DDEB601C801049680
:1059700054DEEC01892B91F462E070E0C5014DDE4C
:10598000EC01892B59F4C70127DC809180069091A6
:1059900081060196909381068093800690E080E0D6
:1059A00031DECE01DF91CF911F910F91FF90EF90EB
:1059B000DF90CF90BF90AF900895CFEFDFEFF1CFA2
:1059C000C9EFDFEFEECF6F927F928F929F92AF92EF
:1059D000BF92CF92DF92EF92FF920F931F93CF93DC
:1059E000DF9300D01F92CDB7DEB7009709F47AC0DD
:1059F0004115510509F476C020917B0607EF1FEF92
:105A0000222309F44DC03A017B015C0164E070E09F
:105A1000CE01019695DE8C01892B09F041C00981E8
:105A20001A810115110509F45AC0480186E0880E53
:105A3000911CB701680D791D8091630290916402F9
:105A40004FDD6C01009709F450C0A70170E060E0E1
:105A50000E941B3B89819A81AB81BC81EC0CFD1CAF
:105A6000F70181939193A193B1937F0181E090E03D
:105A7000C9DDB801C70164DE892B31F562E070E051
:105A8000C701800F911F5CDE8C01892BE9F490E047
:105A900080E0B8DDF501D182C082F301918280827D
:105AA000C8010F900F900F900F90DF91CF911F9131
:105AB0000F91FF90EF90DF90CF90BF90AF909F90AD
:105AC0008F907F906F90089590E080E09BDDF501CE
:105AD00011821082F30111821082C6017DDB09EF71
